:020000040800F2
:100000008005002039020008470200084902000864
:100010004B0200084D0200084F02000800000000DB
:100020000000000000000000000000005102000875
:1000300053020008000000005502000857020008A3
:100040005902000859020008590200085902000824
:100050005902000859020008590200085902000814
:100060005902000859020008590200085902000804
:1000700059020008590200085902000859020008F4
:1000800059020008590200085902000859020008E4
:1000900059020008590200085902000859020008D4
:1000A00059020008590200085902000859020008C4
:1000B00059020008590200085902000859020008B4
:1000C00059020008590200085902000859020008A4
:1000D00059020008411B0008590200085902000893
:1000E0005902000859020008590200085902000884
:1000F0005902000859020008590200085902000874
:100100005902000859020008590200085902000863
:100110005902000859020008590200085902000853
:100120005902000859020008590200085902000843
:100130005902000859020008590200085902000833
:100140005902000859020008590200085902000823
:100150005902000859020008590200085902000813
:100160005902000859020008590200085902000803
:1001700059020008590200085902000859020008F3
:10018000590200085902000800F002F800F044F893
:100190000AA090E8000C82448344AAF10107DA45E2
:1001A00001D100F039F8AFF2090EBAE80F0013F0F0
:1001B000010F18BFFB1A43F00103184780380000F5
:1001C000A0380000103A24BF78C878C1FAD8520786
:1001D00024BF30C830C144BF04680C6070470000C1
:1001E0000023002400250026103A28BF78C1FBD840
:1001F000520728BF30C148BF0B607047782900F014
:10020000A980732900F08181002070471FB501F09B
:1002100099FF1FBD10B510BD00F0AAF91146FFF7F8
:10022000F5FF01F0BBFE00F0C8F903B4FFF7F2FFE1
:1002300003BC01F0C5FC00000B48016841F47001EB
:1002400001600A480047FEE7FEE7FEE7FEE7FEE73B
:10025000FEE7FEE7FEE7FEE7FEE70000044805498B
:10026000034A054B7047000088ED00E08901000853
:1002700080010020800500208001002070470000E0
:100280000FB4044910B503AA029800F043F910BC5A
:100290005DF814FB040000202DE9F0410E460446F1
:1002A000002020622046E168884730B3252805D029
:1002B000D4E901219047206A401CF2E7E16820461A
:1002C00000278847050018D0A5F14100192802D859
:1002D00020354FF400673246294620462760FFF755
:1002E0008DFF40B1012804D0F61D26F00706083620
:1002F000D8E7361DD6E72846DAE7206ABDE8F08160
:1003000070B50C460546012A05D02878800600D530
:10031000EA69002302E0012305E05B1C934202D25C
:10032000E05C0028F9D1A869E618C01AA861286A1B
:10033000184428622846AFF3008004E0D5E9012183
:1003400014F8010B9047B442F8D32846AFF300806D
:1003500070BD000070B504460D4621461068AFF32D
:1003600000802188090502D50F4A7A4402E00E4A2E
:100370007A440E32002104F1240305E000F00F0658
:100380000009965D5E54491C0028F7D120780023AF
:10039000000704D5702D02D009B102231132204686
:1003A000BDE8704000F046B8A43600004FF0013CB4
:1003B00050F8042B51F8043B9A4221D1A2EB0C03D4
:1003C000934313EACC1317D150F8042B51F8043B94
:1003D0009A4215D1A2EB0C03934313EACC130BD131
:1003E00050F8042B51F8043B9A4209D1A2EB0C03BC
:1003F000934313EACC13DBD04FF00000704700BFEB
:10040000D01A01BAB1FA81F101F0180122FA01F013
:10041000CB40C1F12001DBB2C0B2C01A2CFA01F30B
:10042000D11A914311EAC311E6D170477047704762
:10043000704770472DE9F0470D46994692460446AD
:1004400000F124080168880604D5E06921F0100154
:10045000216000E00120A84201DD471B00E00027E9
:10046000A1697A1902EB0900081AA0612078C00678
:1004700002D42046AFF30080002608E0D4E9012131
:100480001AF806009047206A401C761C20624E45F0
:10049000F4DB2078C0060AD52046AFF3008006E0E2
:1004A000D4E9012130209047206A401C2062381E88
:1004B000A7F10107F4DC07E0D4E9012118F80500F1
:1004C0009047206A401C2062281EA5F10105F3DC3C
:1004D0002046AFF300802078000602D50220BDE858
:1004E000F0870120FBE710B5436913B1AFF300803B
:1004F00001E0FFF705FF012010BD127800F1240193
:100500000A7000224A700122EDE711684FF0FF32B5
:10051000E9E70000074B70B50D467B4400F011F889
:100520000446284600F020F810B14FF0FF3070BDAF
:10053000204670BDBB18000001694A1C02610878A2
:10054000704700B58FB0CDE9013100210591054913
:100550007944CDE9031011466846FFF79DFE0FB0C0
:1005600000BD0000E5FFFFFF007B00F0800070474A
:10057000754600F02BF8AE4605006946534620F05C
:100580000700854618B020B5FFF768FEBDE820409B
:100590004FF000064FF000074FF000084FF0000B3F
:1005A00021F00701AC46ACE8C009ACE8C009ACE8F2
:1005B000C009ACE8C0098D46704710B50446AFF3DA
:1005C00000802046BDE81040FFF72FBE004870476E
:1005D0002001002010B5022001F0C2FB10BD000078
:1005E00010B500200B490860FFF7F4FF01200A490D
:1005F000C1F8BC02FFF7EEFF002006490C3108608D
:10060000FFF7E8FF01200449C1F8B002FFF7E2FF5D
:1006100010BD0000B0824042008040421CB50D4831
:10062000006840F002000B490860012003210346E6
:100630000246CDE900100103074800F0EDF8012063
:10064000032103460246CDE90010C103024800F031
:10065000E3F81CBD303802400004024010B5012010
:1006600008490860FFF7B6FF01200749C1F8BC023E
:10067000FFF7B0FF002003490C310860FFF7AAFF25
:1006800010BD0000B08240420080404270B5054677
:100690000024002613E06006040E01200D490860C6
:1006A000FFF798FF0C48D0F8300208B1601CC4B2C4
:1006B000002008490860FFF78DFF701CC6B2082EA5
:1006C000E9DB15B9FFF7CAFF01E0FFF789FF204614
:1006D00070BD0000BC8240420080404270B50446BC
:1006E000002512E0E0090C490860FFF773FF0120C4
:1006F0000A49C1F8BC02FFF76DFF002006490C3122
:1007000008606006040E681CC5B2082DEADB0120F3
:100710000149086070BD0000B08240420080404244
:1007200010B50120094908600949C1F8BC02FFF76A
:1007300051FF002005490860FFF74CFF00200449E5
:10074000C1F8BC02FFF746FF10BD0000B082404276
:100750000080404210B5002007490860FFF73AFFCB
:1007600001200649C1F8BC02FFF734FF012002490D
:100770000860FFF72FFF10BDB0824042008040426A
:1007800070B500240025012011490860FFF722FF01
:1007900001201049C1F8BC02FFF71CFF09E0601CF2
:1007A000C4B2FA2C03DDFFF7D5FF012506E0FFF701
:1007B00011FF0748803800680028F0D100BF0020F2
:1007C00003490C310860FFF705FF284670BD0000A3
:1007D000B08240420080404230B5CC1000F120038E
:1007E00053F824304C07E50E0F24AC40A343CD1042
:1007F00000F1200444F82530CC1000F1200353F818
:1008000024304C07E40E02FA04F42343CD1000F127
:10081000200444F8253030BD2DE9F0470C46DDE9D1
:100820000867002100258C4600BF60E04FF00108FA
:1008300008FA01F504EA050CAC4557D1D0F8008060
:100840004FEA410A4FF0030909FA0AF928EA0908B0
:10085000C0F80080D0F800804FEA410902FA09F997
:1008600048EA0908C0F80080012A01D0022A27D1ED
:10087000D0F808804FEA410A4FF0030909FA0AF953
:1008800028EA0908C0F80880D0F808804FEA410932
:1008900006FA09F948EA0908C0F80880D0F8049077
:1008A0004FF0010808FA01F829EA0809C0F8049095
:1008B000D0F8048003FA01F948EA0908C0F8048076
:1008C000D0F80C804FEA410A4FF0030909FA0AF9FF
:1008D00028EA0908C0F80C80D0F80C804FEA4109DA
:1008E00007FA09F948EA0908C0F80C80491C1029E0
:1008F0009CD3BDE8F08700001FB53348006840F086
:10090000020031490860012000210B460A46CDE96A
:10091000001081032D48FFF77FFF012003210023F2
:100920000246CDE9001041032848FFF775FFFFF7A5
:1009300075FE0020264908600A2001F0F5F9012023
:100940002449C1F8B8020A2001F0EEF90020009015
:1009500003460246022101901C48FFF75DFF642018
:1009600001F0E2F9042202A948F2401000F03EF83A
:1009700000208DF80C0002A917A0FFF781FC19A137
:1009800002A8FFF713FDE8B902208DF80800012244
:1009900002A948F2400000F059F9012202A948F2E8
:1009A000500000F023F80A2001F0BEF900208DF875
:1009B0000800012202A948F2400000F047F9002097
:1009C00004B010BD0120FBE73038024000040240B3
:1009D000B8824042008040424354502049443A2566
:1009E000730D0A0031313538000000002DE9F04167
:1009F00005460F461646FFF793FE2820FFF76EFECA
:100A0000FFF7BEFE2812FFF769FEFFF7B9FEE8B256
:100A1000FFF764FEFFF7B4FEFFF782FE2920FFF721
:100A20005DFEFFF7ADFE00240BE0711EA14201D078
:100A3000012100E000210846FFF728FE3855601C20
:100A4000C4B2B442F1DBFFF785FEBDE8F0810000DF
:100A500071B583B00024002678480078401C77499F
:100A60000870084600780A2190FBF1F201FB1200A1
:100A700018B1724800780A287EDA012203A948F2E8
:100A80004E10FFF7B3FF9DF80C0000F0800068B136
:100A90009DF80C0000F00F00062807DA00200190F6
:100AA000012201A948F24E1000F0D0F89DF80C0088
:100AB00000F00F0000285FD09DF80C0000F00F0040
:100AC0000628D9DA9DF80C0000F00F01FF208840BD
:100AD000C0B201905A4890F820509DF80400C043DD
:100AE000C0B240F0C000564981F820000846818914
:100AF0008182C18AC183002444E0514890F82000DB
:100B00000121A140084010B34E4931F814000422DD
:100B100002A9FFF76BFF4A4890F8300000F001008F
:100B2000B0B19DF80A009DF80B1000EB012081B2D6
:100B300043480C3020F814109DF808009DF8091067
:100B400000EB012081B23E48163020F8141017E067
:100B50009DF808009DF8091000EB012081B238488B
:100B60000C3020F814109DF80A009DF80B1000EBD3
:100B7000012081B2324800E034E0163020F8141031
:100B8000601CC4B2052CB8DB01262D4880892E4993
:100B90000988884205DC2A48C08A2B49498888424E
:100BA0001DDD9DF80C0000F00F0001280ADD24482F
:100BB000C089234988810846008BC88200201F49CC
:100BC00008700FE01E48808A1D4988810846C08B46
:100BD000C88280200390084680F8205002E0002060
:100BE000164908709DF80C0000F08F0080281AD17B
:100BF000134890F8200000F0800040B1104890F8B1
:100C0000200020F080000E4981F820000BE04FF614
:100C1000FF700B498881C882084690F8200000F0D8
:100C2000E00081F8200005480078F02802DD0A2065
:100C300002490870304604B070BD00000E0000206C
:100C400010000020083A0008100100202DE9F041B2
:100C500004460E4617464FF00008FFF761FD2820B6
:100C6000FFF73CFDFFF78CFD2012FFF737FDFFF784
:100C700087FDE0B2FFF732FDFFF782FD00250BE0B4
:100C8000705DFFF72BFDFFF77BFD8046B8F1000F8D
:100C900000D003E0681CC5B2BD42F1DB00BFFFF726
:100CA00059FD4046BDE8F08170B5044600260F4866
:100CB0000588408845430021084600F0ABFC00F061
:100CC000CBFD00BF0EE00948808847F28971884259
:100CD00005D12012064908800846048001E0044836
:100CE0000480761CAE42EED370BD000010010020DF
:100CF0000000086010B504463B488471002C37D1D1
:100D0000F020394908804FF4A07048800846808858
:100D100045F21051884210D14FF4305032490881C9
:100D20004FF4285048814FF42C5088814FF4F070D4
:100D300008804FF44870488006E02C202A4908813A
:100D40002A2048812B2088812748808845F210314D
:100D5000884205D02448808847F2967188423ED167
:100D60004FF4A070204908804FF4F070488036E0BE
:100D70004FF4A0701C490880F02048800846808805
:100D800045F21051884210D14FF430501649088175
:100D90004FF4285048814FF42C5088814FF448700C
:100DA00008804FF4F070488006E02C200E4908813E
:100DB0002A2048812B2088810B48808845F21031F9
:100DC000884205D00848808847F29671884206D14B
:100DD0004FF4F070044908804FF4A0704880002060
:100DE00000F018FB10BD00001001002030B50446D3
:100DF0000D462848808845F21051884220D1254967
:100E0000488900F01DFD201200F00EFD214949899E
:100E1000491C88B200F014FDE0B200F005FD1D4948
:100E2000888900F00DFD281200F0FEFC194989891F
:100E3000491C88B200F004FDE8B200F0F5FC13E0B4
:100E40001449488900F0FCFC201200F0EDFCE0B2EF
:100E500000F0EAFC0F49888900F0F2FC281200F04B
:100E6000E3FCE8B200F0E0FC0A4800890A49088087
:100E70000848808847F28971884206D110120649D5
:100E8000891C08800846028002E00348801C02801A
:100E900030BD000010010020FEFF07602DE9F04F7B
:100EA00006460F4690469946099C4FF0000BA8EB6A
:100EB0000600401C1FFA80FB3D461EE029463046D6
:100EC00000F0A8FB00F0C8FC4FF0000A11E00D484C
:100ED000808847F28971884205D120120A4908802A
:100EE0000846048001E0084804800AF101001FFA66
:100EF00080FADA45EBDB681C85B24D45DEDDBDE8E6
:100F0000F08F000010010020000008601CB5FE48B2
:100F1000006840F01800FC490860FB480830006891
:100F200040F00100F8490831086001200221002347
:100F30000246CDE900100103F448FFF76DFC0120E3
:100F4000022100230246CDE90010C102EF48FFF75D
:100F500063FC0120032100230222CDE900104EF2A0
:100F6000B371EA48FFF758FC012003210023022255
:100F7000CDE900104FF68071E548FFF74DFC0C22DB
:100F80000021E248FFF728FC0C220121DF48FFF78F
:100F900023FC0C220421DD48FFF71EFC0C22052156
:100FA000DA48FFF719FC0C220721D848FFF714FC98
:100FB0000C220821D548FFF70FFC0C220921D34849
:100FC000FFF70AFC0C220A21D048FFF705FC0C228F
:100FD0000D21CE48FFF700FC0C220E21CB48FFF775
:100FE000FBFB0C220F21C948FFF7F6FB0C2207215F
:100FF000C748FFF7F1FB0C220821C548FFF7ECFBBF
:101000000C220921C248FFF7E7FB0C220A21C04845
:10101000FFF7E2FB0C220B21BD48FFF7DDFB0C22A2
:101020001146BB48FFF7D8FB0C220D21B848FFF74B
:10103000D3FB0C220E21B648FFF7CEFB0C220F216A
:10104000B348FFF7C9FB00204FF02041086048601B
:10105000B04908604FF02040006840F480504FF0E5
:10106000204108600846006840F480400860084657
:10107000006840F010000860084640684860084674
:10108000406840F00F0048600846406840F47050E7
:101090004860A0480068C1F804010846D0F804017F
:1010A00040F00900C1F804010846D0F8040140F4FA
:1010B0000060C1F804010846006840F001000860C3
:1010C000322000F031FE01209349C1F8AC020A2021
:1010D00000F02AFE00209049C1F8AC02322000F056
:1010E00023FE01208D490860C82000F01DFED3209A
:1010F00000F0A6FB00F084F98949888000F080F9AF
:101100008749888000F07CF9854988800846808876
:101110004FF6FF7101EA00208149888000F070F9E4
:101120007F49898808437E498880084681887DA058
:10113000FFF7A6F87A48808847F2967188427CD1FA
:10114000F02000F07DFBC32000F06EFBF02000F0EB
:1011500077FB962000F068FB362000F071FB4820FA
:1011600000F062FB3A2000F06BFB552000F05CFBC6
:10117000B42000F065FB012000F056FBB62000F023
:101180005FFB802000F050FB222000F04DFB3B2055
:1011900000F04AFBB72000F053FBC62000F044FBF0
:1011A000C02000F04DFB802000F03EFB162000F038
:1011B0003BFBC12000F044FB192000F035FBC220AE
:1011C00000F03EFBA72000F02FFBC52000F038FB0D
:1011D000162000F029FBE82000F032FB402000F050
:1011E00023FB8A2000F020FB002000F01DFB0020E4
:1011F00000F01AFB292000F017FB192000F014FB67
:10120000A52000F011FB332000F00EFBE02000F0E1
:1012100017FBF02000F008FB072000F005FB0D2075
:1012200000F002FB042000F0FFFA052000F0FCFAB9
:10123000142000F0F9FA362000E09CE000F0F4FA07
:10124000542000F0F1FA4C2000F0EEFA382000F0C3
:10125000EBFA132000F0E8FA142000F0E5FA2E2053
:1012600000F0E2FA342000F0DFFAE12000F0E8FAC2
:10127000F02000F0D9FA102000F0D6FA142000F087
:10128000D3FA0E2000F0D0FA0C2000F0CDFA08209E
:1012900000F0CAFA352000F0C7FA442000F0C4FA82
:1012A0004C2000F0C1FA262000F0BEFA102000F019
:1012B000BBFA122000F0B8FA2C2000F0B5FA322068
:1012C00000F0B2FAF02000F0BBFA3C2000F0ACFADB
:1012D000F02000F0B5FA692000F0A6FA352000F001
:1012E000AFFA002000F0A0FA212000F0A9FA1120A6
:1012F00000F0A6FA782000F017FD292000F0A0FAEF
:10130000322000F011FD15E030380240000C0240A0
:1013100000100240040100A000804142AC82414222
:1013200010010020204C43442049443A25780D0AFE
:10133000000000002A2000F083FA002000F074FA78
:10134000002000F071FA012000F06EFA3F2000F05A
:101350006BFA2B2000F074FA002000F065FA0020F0
:1013600000F062FA012000F05FFADF2000F05CFA82
:101370002C2000F065FA1F48808847F29671884259
:101380002CD11D48006820F00F004FF02041C1F81B
:101390001C010846D0F81C0120F47060C1F81C0143
:1013A0000846D0F81C0140F00300C1F81C011148A8
:1013B000808847F28971884208D10F48006840F45C
:1013C00080604FF02041C1F81C0107E00A48006826
:1013D00040F400704FF02041C1F81C010020FFF7DD
:1013E00089FC0120054908604FF6FF70FFF75CFC9F
:1013F0001CBD0000100100201C0100A0B082414271
:1014000008B5034800880090BDF8000008BD000042
:1014100000000860F0B50546002400277C4880796C
:10142000012818D1082D15D2DFE805F00406080AB6
:101430000C0E101206250DE007250BE0042509E02F
:10144000052507E0012505E0002503E0032501E06F
:10145000022500BF00BF082D1CD2DFE805F00406FE
:10146000090C0F12151800BF14E044F0800411E0BD
:1014700044F040040EE044F0C0040BE044F02004CB
:1014800008E044F0600405E044F0A00402E044F009
:10149000E00400BF00BF5E48808845F210518842DA
:1014A00002D14FF4585700E036275948808847F258
:1014B0009671884201D144F008042146384600F074
:1014C000D5F904F0200068B1514800885049498896
:1014D000884214DA4E48068840884D4908800846FC
:1014E00046800CE04A48008849494988884206DD20
:1014F0004748068840884649088008464680444850
:10150000808845F21051884252D14149488900F003
:1015100097F9002000F088F93D494989491C88B2B3
:1015200000F08EF9002000F07FF939494989891CC3
:1015300088B200F085F936490988491EC1F30F20A9
:1015400000F072F932494989C91C88B200F078F973
:101550002F490978491EC8B200F066F92C498889DC
:1015600000F06EF9002000F05FF929498989491CD3
:1015700088B200F065F9002000F056F92449898905
:10158000891C88B200F05CF921494988491EC1F3E1
:101590000F2000F049F91E498989C91C88B200F062
:1015A0004FF91B498978491EC8B200F03DF92DE07A
:1015B0001749488900F044F9002000F035F900206F
:1015C00000F032F912490988491EC1F30F2000F0DA
:1015D0002BF90F490978491EC8B200F025F90C49CA
:1015E000888900F02DF9002000F01EF9002000F09D
:1015F0001BF907494988491EC1F30F2000F014F96F
:1016000003498978491EC8B200F00EF9F0BD000008
:101610001001002010B502460C461E48808845F295
:101620001051884220D11B49488900F009F9101255
:1016300000F0FAF817494989491C88B200F000F90E
:10164000D0B200F0F1F81349888900F0F9F82012BF
:1016500000F0EAF80F498989491C88B200F0F0F8D7
:10166000E0B200F0E1F813E00A49488900F0E8F838
:10167000101200F0D9F8D0B200F0D6F805498889E8
:1016800000F0DEF8201200F0CFF8E0B200F0CCF865
:1016900010BD0000100100202DE9F84F80460E46D5
:1016A00017461C46B3462046E31704EB5373DB1082
:1016B00021464FEAE47C04EB5C7C4FEAEC0CA4EBA3
:1016C000CC0CBCF1000F02D04FF0010C01E04FF048
:1016D000000C6344224604EBD27C4FEA6C0C03FB03
:1016E0000CF3DBB20093A7F12000C7B2002556E04F
:1016F0000C2C07D107EB47002B4901EB800010F8B9
:10170000059013E0102C05D1284800EB071010F8C5
:1017100005900BE0182C07D107EBC700244901EB1B
:10172000800010F8059001E0BDE8F88F4FF0000A46
:101730002FE009F0800030B11E4802883146404653
:10174000FFF754FB07E00A9828B91B480288314686
:101750004046FFF74BFB4FEA49604FEA1069701CA7
:1017600086B216484088B04200DCDDE7A6EB0B00ED
:10177000A0420AD15E4608F101001FFA80F80F4826
:101780000088404500DCCFE706E00AF1010000F0E8
:10179000FF0ABAF1080FCCDB00BF681CC5B2009885
:1017A0008542A5DB00BFBFE758210008CC25000813
:1017B000BC2B00080A0000200C00002010010020B3
:1017C0002DE9F84704460D4690469946DDE909673C
:1017D00004F0FF0A08EB04001FFA80F809EB05008B
:1017E0001FFA80F916E0444502DB5446A81985B279
:1017F0004D4500DB14E0002000903A78334629463E
:101800002046FFF749FF304606EBD07104EB61013B
:101810008CB27F1C38787E2802DC38782028E2DA07
:1018200000BFBDE8F887000001B5BDF800000090DA
:10183000BDF800000149088008BD000000000860F4
:1018400001B5BDF800000090BDF800000149088016
:1018500008BD0000FEFF07600248008902490880B9
:101860007047000010010020FEFF0760024A108050
:10187000921C118070470000FEFF07601CB54FF6F8
:10188000FF70FFF711FA1F200949088009A01021F5
:10189000CDE9001008490988183988B21023C822F8
:1018A0000021FFF78DFF4FF47840014908801CBDEF
:1018B0000A00002052535400100100202DE9F0418D
:1018C0000746884614461D46284600F033F8C5F101
:1018D000040007FA00F60F20284100EA080006433A
:1018E00006F00F06E21704EBD2625211920002F1E9
:1018F000E022D2F800212146E31704EBD3635B1109
:10190000A4EB431C012303FA0CF31A432046E3170C
:1019100004EBD3635B119B0003F1E023C3F80021C8
:101920000348005D40EA061001490855BDE8F08112
:1019300000E400E00146072323EA01021202054BFE
:1019400018684FF6FF031840034B18431043014B30
:10195000186070470CED00E00000FA054A0A5202D8
:101960000243014B1A60704708ED00E0F0B50446F1
:101970000D4616461F461448006840F00100124903
:10198000086000201049083108600F4800680F49BE
:1019900008400D4908600E48091D0860081F0068CE
:1019A00020F48020091F0860002007490C310860DE
:1019B0003B4632462946204600F00CF800210846F6
:1019C000FFF7CCFFF0BD000000380240FFFFF6FE3D
:1019D00010300024F0B504460D46002100203D4E95
:1019E000366846F480363B4F3E6001E04E1CB1B293
:1019F000384E366806F400361EB941F6FF76B1421D
:101A0000F4DB41F6FF76B14201D1012060E0314EB6
:101A10004036366846F080562E4F40373E602E4E98
:101A2000366846F440462C4F3E602A4E08363668EB
:101A300046F41446274F08373E60264E366826F097
:101A40008076244F3E6045EA84160127C7EB520793
:101A500046EA074646EA036646F480061D4F3F1DE8
:101A60003E603E1F366846F080763F1F3E6000BFF6
:101A7000184E366806F00076002EF9D0174E3668FC
:101A800046F48076154F3E603E46366846F4007652
:101A90003E603E46366846F480663E603E463668A6
:101AA00046F005063E600B4E0836366826F0030603
:101AB000084F08373E603E46366846F002063E60F4
:101AC00000BF044E0836366806F00C06082EF8D122
:101AD000F0BD00000038024000700040003C0240B1
:101AE00010B51448808847F29671884205D0114895
:101AF000808845F21031884219D1FEF7FDFEB0B959
:101B00000D480E494860084690F8300040F08000CB
:101B100081F83000084690F830000649897901F0D4
:101B200001010843054981F83000002010BD012063
:101B3000FCE7000010010020510A000810000020FE
:101B40001C49098801F0200109B31A498988C8B2E3
:101B50001949098801F40041C9B91749098801F4F4
:101B6000804161B10A2803D00021134A118020E08E
:101B70001149098841F400410F4A118019E00D28EC
:101B800006D10D49098841F480410B4A118010E0CB
:101B900009490988C1F30D01084A505406490988CA
:101BA000491C054A118011460988C72901DD002119
:101BB00011807047001001400800002048000020FC
:101BC00000BF704788B00024002584E04248416887
:101BD00000208847002469E03F4890F82000012158
:101BE000A140084000285AD03B480C3030F814007F
:101BF0003A490988884257DA3748163030F81400D5
:101C00003649498888424FDA03A830F824004FF655
:101C1000FF7188420DD130480C3030F8140003A910
:101C200021F824002C48163030F8140001EB840110
:101C300048802B4830F814000221274E1636CDE993
:101C4000001036F814300A3E36F8142003AE06EBC6
:101C50008406718803AE36F8240000F035F91E487A
:101C60000C3030F8140003A921F824001A4816306B
:101C700030F8140001EB8401488017480C3030F82C
:101C8000141016480088183881420DDD12481630AD
:101C900030F81400142807DAFFF7F0FD04E04FF6DF
:101CA000FF7003A921F82400601CC4B2052C93DB4B
:101CB000052000F039F8681CC5B2142095FBF0F13E
:101CC00000FB115038B90748006808B9012000E04E
:101CD00000200449086079E710000020100100206E
:101CE0004E210008840240424FF0E021096921F0B2
:101CF00004014FF0E0221161C21700EB5272C2F3EF
:101D0000C702074B1A701946097801EB4102C2EB72
:101D1000C1114FF6FF7202EAC101024A11807047F9
:101D2000000000200200002070B504464FF4077048
:101D300094FBF0F0C6B24FF4077094FBF0F100FB97
:101D4000114085B205E04FF4077000F027F8701ECF
:101D5000C6B2002EF7D115B1284600F01FF870BDAD
:101D600001460D4A12784A434FF0E0235A6100229F
:101D70009A6101221A6100BF4FF0E022106900F061
:101D800001021AB100F48032002AF5D000224FF08F
:101D9000E0231A619A6170470000002001460D4A55
:101DA00012884A434FF0E0235A6100229A610122CF
:101DB0001A6100BF4FF0E022106900F001021AB171
:101DC00000F48032002AF5D000224FF0E0231A619F
:101DD0009A6170470200002000BF054A128802F095
:101DE0004002002AF9D0C2B2014B9A80704700002D
:101DF00000100140F8B505460E4614461F4604B9CA
:101E0000F8BD2819401E82B2334631462846009755
:101E1000FFF744F800BFF3E72DE9F05F0746884677
:101E200016469A4640F2C32070434FF47A71B0FBD5
:101E3000F1F000F1010906FB06F000EB560B344609
:101E400071040A0CB91B88B253464146FFF7D2FF12
:101E5000012535E005FB05F004FB040058451AD9BF
:101E60004C4517D96B1E5B041A0C08EB040399B29E
:101E70007B1B5B1C98B25346FFF7BCFF6B1E5B04D9
:101E80001A0CA8EB040399B27B1B5B1C98B2534657
:101E9000FFF7B0FF641E63041A0C08EB050399B248
:101EA0003B1B98B25346FFF7A5FF63041A0CA8EB3F
:101EB000050399B23B1B98B25346FFF79BFF6D1C7D
:101EC0004D45C7D9BDE8F09F2DE9FF4F85B080464D
:101ED0008946129F002003900290B84507DB0798BF
:101EE000B84204DBB94502DB0898B84202DA09B00F
:101EF000BDE8F08F0798A0EB08040898A0EB09054F
:101F0000CDF80480CDF80090002C02DD4FF0010ADE
:101F100006E014B94FF0000A02E04FF0FF3A6442C5
:101F2000002D02DD4FF0010B06E015B94FF0000B5C
:101F300002E04FF0FF3B6D42AC4201DD264600E07F
:101F40002E460020049023E0009A91B2019A90B2AC
:101F50003A46139BFFF760FF0398204403900298D2
:101F6000284402900398B04205DD0398801B03903B
:101F70000198504401900298B04205DD0298801B00
:101F800002900098584400900498401C80B204903D
:101F9000711C04988842D7DD00BFA8E71CB5072351
:101FA000022219214FF4A870FFF7E0FCA820FFF7E8
:101FB0009BFE4FF4E131542000F044F8FEF7A6FFF9
:101FC0001549086880474FF478401449088014A0E8
:101FD00010210B46C822CDE9001032211E20FFF748
:101FE000EFFB15A010210B46C822CDE900104621B9
:101FF0001E20FFF7E5FB4FF4FA70FFF795FEFFF7A1
:102000003DFC054890F8300000F0800008B1FFF773
:10201000D9FD00201CBD0000100000200A00002097
:1020200053544D33324634303720436F726520426B
:102030006F61726400000000544F554348205445BE
:1020400053540000F0B52DED028B83B005460E46CB
:10205000384905FB01F000EE100AF8EE400A3001A5
:1020600000EE100AB8EE400A80EE801AB0EE418A07
:10207000BCEEC80A10EE100A84B200EE104AB8EEA8
:10208000400A38EE400AF3EE000A20EE200ABCEEC9
:10209000C00A10EE107A4FF6FF7000EA0414E0193F
:1020A00084B22548006840F00100234908602248B6
:1020B0001430006840F010001F49143108600120FE
:1020C000022100230A46CDE900104FF4C0611B48ED
:1020D000FEF7A2FB072209211848FEF77DFB072225
:1020E0000A211648FEF778FB15480481808920F400
:1020F0000040134988810846808940F008008881A3
:102100000846808940F0040088810846808940F0B4
:10211000200088810223252203210846FFF7CEFBF9
:102120000748808940F400500549888103B0BDEC20
:10213000028BF0BD40420F003038024000000240E8
:10214000001001404FF04070E1EE100A704700F8B7
:10215000E0071F0040BCE0FF00000000000000009E
:1021600000000000000000003F40000000000000F0
:1021700000003000400030004000000009000BC0AB
:102180003D000BC03D00090018C024407FE0224004
:1021900031800000180024C01B000D8032400180F7
:1021A00003801C4027401C80074000401000600056
:1021B00000000000000000000000000000001F8080
:1021C000204040200000402020401F8000000000F0
:1021D000090006001F80060009000000040004003A
:1021E0003F800400040000000010006000000000B8
:1021F00000000000040004000400040004000000CB
:10220000000000400000000000000000002001C0AD
:1022100006003800400000001F8020402040204081
:102220001F800000000010403FC000400000000080
:1022300018C0214022402440184000001080204057
:10224000244024401B80000002000D0011003FC00C
:10225000014000003C8024402440244023800000B2
:102260001F802440244034400380000030002000C0
:1022700027C03800200000001B8024402440244058
:102280001B8000001C0022C0224022401F80000052
:1022900000000000084000000000000000000000F6
:1022A0000460000000000000000004000A001100AB
:1022B00020804040090009000900090009000000D1
:1022C00000004040208011000A0004001800200097
:1022D00023402400180000001F8020402740294090
:1022E0001F400000004007C039000F0001C000403F
:1022F00020403FC0244024401B8000001F8020401D
:10230000204020403080000020403FC0204020403E
:102310001F80000020403FC024402E4030C00000FD
:1023200020403FC024402E00300000000F001080ED
:10233000204022403380020020403FC004000400BF
:102340003FC02040204020403FC0204020400000AF
:102350000060202020203FC02000200020403FC0FF
:1023600024400B0030C0204020403FC020400040AF
:10237000004000C03FC03C0003C03C003FC0000024
:1023800020403FC00C4023003FC020001F80204061
:10239000204020401F80000020403FC024402400F7
:1023A000180000001F802140214020E01FA00000F5
:1023B00020403FC02440260019C0004018C02440DF
:1023C0002440224031800000300020403FC02040A7
:1023D0003000000020003F80004000403F8020008F
:1023E00020003E0001C0070038002000380007C070
:1023F0003C0007C038000000204039C0060039C04A
:10240000204000002000384007C038402000000075
:10241000304021C02640384020C0000000000000AD
:102420007FE0402040200000000070000C0003808E
:10243000004000000000402040207FE0000000003D
:1024400000002000400020000000000000100010EC
:1024500000100010001000100000000040000000FC
:1024600000000000000002800540054003C000405D
:1024700020003FC0044004400380000000000380AF
:102480000440044006400000000003800440244053
:102490003FC00040000003800540054003400000AD
:1024A000000004401FC0244024402000000002E03F
:1024B000055005500650042020403FC00440040051
:1024C00003C000400000044027C00040000000009E
:1024D00000100010041027E00000000020403FC062
:1024E0000140070004C00440204020403FC000409D
:1024F0000040000007C0040007C0040003C0000043
:10250000044007C00440040003C0004000000380F2
:102510000440044003800000041007F0045004400D
:1025200003800000000003800440045007F0001006
:10253000044007C002400400040000000000064000
:102540000540054004C00000000004001F80044056
:1025500000400000040007800040044007C0004025
:102560000400070004C0018006000400060001C04A
:10257000070001C006000000044006C0010006C0BC
:10258000044000000410071004E00180060004006D
:102590000000044005C006400440000000000000A8
:1025A00004007BE040200000000000000000FFF07D
:1025B00000000000000040207BE00400000000005C
:1025C000400080004000200020004000000000008B
:1025D00000000000000000000000000000000000FB
:1025E00000001FCC000C00000000000000000800EC
:1025F000300060000800300060000000022003FC92
:102600001E20022003FC1E200220000000000E18E5
:1026100011043FFF10840C78000000000F001084AC
:102620000F3800C0077818840078000000780F8405
:1026300010C411240E9800E400840008080068000B
:10264000700000000000000000000000000000001A
:10265000000007E0181820044002000000004002BB
:102660002004181807E000000000000002400240AB
:1026700001800FF0018002400240000000800080D5
:1026800000800FF800800080008000000001000D35
:10269000000E0000000000000000000000000080AC
:1026A0000080008000800080008000800000000C1E
:1026B000000C000000000000000000000000000608
:1026C000001800600180060018002000000007F0DC
:1026D000080810041004080807F0000000000804AF
:1026E00008041FFC000400040000000000000E0CA1
:1026F00010141024104411840E0C000000000C185B
:1027000010041104110412880C700000000000E095
:102710000320042408241FFC0024000000001F984C
:10272000108411041104108810700000000007F0DC
:1027300008881104110418880070000000001C00B3
:10274000100010FC13001C001000000000000E38E8
:1027500011441084108411440E380000000007005A
:10276000088C10441044088807F0000000000000A6
:102770000000030C030C000000000000000000003B
:1027800000010106000000000000000000000080C1
:10279000014002200410080810040000022002205A
:1027A000022002200220022002200000000010046B
:1027B00008080410022001400080000000000E0004
:1027C0001200100C106C10800F00000003E00C18B9
:1027D00013E4142417C4082807D000000004003CA8
:1027E00003C41C40074000E4001C000410041FFC4C
:1027F0001104110411040E880070000003E00C188D
:1028000010041004100410081C10000010041FFC19
:10281000100410041004080807F0000010041FFC46
:102820001104110417C410040818000010041FFC40
:102830001104110017C010000800000003E00C187C
:102840001004100410441C780040000010041FFC09
:1028500010840080008010841FFC1004000010040D
:1028600010041FFC1004100400000000000300010D
:10287000100110011FFE10001000000010041FFCCA
:10288000110403801464181C1004000010041FFCC1
:102890001004000400040004000C000010041FFCDD
:1028A0001F0000FC1F001FFC1004000010041FFC90
:1028B0000C04030000E010181FFC100007F00808CB
:1028C000100410041004080807F0000010041FFC96
:1028D00010841080108010800F00000007F008188E
:1028E00010241024101C080A07F2000010041FFC1A
:1028F0001104110011C011300E0C000400000E1C58
:1029000011041084108410441C38000018001000BA
:1029100010041FFC100410001800000010001FF825
:1029200010040004000410041FF8100010001E0022
:1029300011E0001C007013801C0010001FC0103C30
:1029400000E01F0000E0103C1FC000001004180C45
:10295000163401C001C01634180C100410001C00FD
:10296000130400FC13041C00100000000804101CD9
:102970001064108413041C041018000000000000F0
:1029800000007FFE400240024002000000003000D4
:102990000C0003800060001C0003000000004002E7
:1029A000400240027FFE0000000000000000000026
:1029B0002000400040004000200000000001000115
:1029C00000010001000100010001000100004000C1
:1029D00040002000000000000000000000000098FF
:1029E000012401440144014400FC000410001FFCC8
:1029F00000880104010400880070000000000070DD
:102A00000088010401040104008800000000007037
:102A100000880104010411081FFC0004000000F8F4
:102A2000014401440144014400C8000000000104C5
:102A300001040FFC1104110411001800000000D65D
:102A400001290129012901C90106000010041FFC08
:102A5000008401000100010400FC000400000104E6
:102A6000190419FC00040004000000000000000329
:102A700000010101190119FE0000000010041FFCF3
:102A80000024004001B4010C010400000000100407
:102A900010041FFC0004000400000000010401FCFD
:102AA0000104010001FC0104010000FC010401FC1F
:102AB000008401000100010400FC0004000000F893
:102AC000010401040104010400F80000010101FFF8
:102AD00000850104010400880070000000000070FF
:102AE000008801040104010501FF00010104010443
:102AF00001FC00840104010001800000000000CC02
:102B00000124012401240124019800000000010097
:102B1000010007F80104010400000000010001F8B1
:102B2000000400040004010801FC0004010001800D
:102B30000170000C001001600180010001F0010C27
:102B4000003001C00030010C01F001000000010460
:102B5000018C00740170018C0104000001010181ED
:102B60000171000E00180160018001000000018465
:102B7000010C013401440184010C0000000000003C
:102B80000000000001003EFC400240020000000086
:102B900000000000FFFF00000000000000004002F5
:102BA00040023EFC01000000000000000000600048
:102BB0008000800040004000200020000000000055
:102BC0000000000000000000000000000000000005
:102BD00000000000000000000000000000000000F5
:102BE0000000000000000000000000000000000FD6
:102BF00080380FFE380F8038000000000000000011
:102C000000000000000000000000010000060000BD
:102C10000C00003800003100000600000C000038F5
:102C2000000030000000000000000000618000672C
:102C3000F807F98000618000618000618000618098
:102C40000067F807F98000618000000000000000C4
:102C5000000001C0E003E0F00630080418081FFF80
:102C6000FE040E080787F00381E00000000000006A
:102C700001F000060C00040408060C7001F9C00005
:102C80000E00003BE000EC18070808040C180003D5
:102C9000E00000000001E00007F003F818041C0841
:102CA00004170807E1D003C0E00023B0003C08008F
:102CB00020080000100000000000000100003100AA
:102CC000003200001C0000000000000000000000B6
:102CD00000000000000000000000000000000000F4
:102CE0000000000000000000000000007F0001FF65
:102CF000C00780F00C001810000420000200000043
:102D00000000002000021000040C00180780F001F1
:102D1000FFC0007F00000000000000000000000075
:102D20000000000000000000420000660000660095
:102D3000003C0000180003FFC0001800003C000029
:102D40006600006600004200000000000800000865
:102D50000000080000080000080001FFC000080093
:102D60000008000008000008000008000000000043
:102D7000000100003100003200001C0000000000D3
:102D80000000000000000000000000000000000043
:102D90000000000008000008000008000008000013
:102DA00008000008000008000008000008000008F3
:102DB00000000000000000000000000038000038A3
:102DC00000003800000000000000000000000000CB
:102DD00000000000000000000000000000060000ED
:102DE0001C000070000180000E0000380000C000D0
:102DF0000700001C00003000000000000000000080
:102E00007F8001FFE00380700600180400080400C2
:102E10000806001803807001FFE0007F80000000BA
:102E20000000000000000100080100080100080384
:102E3000FFF807FFF8000008000008000008000085
:102E40000000000000000001C03802C058040098D3
:102E5000040118040218040418061C1803F81801C9
:102E6000E0F800000000000000000001C0E003C026
:102E7000F004000804080804080806180803F418F9
:102E800001E7F00001E00000000000000000000089
:102E90000300000D00001100006100008108030123
:102EA0000807FFF80FFFF800010800010800000004
:102EB0000000000000E007FCD00608080610080625
:102EC0001008061008061838060FF00607C00000A4
:102ED00000000000000000003F8001FFE00384309C
:102EE000020818041008041008041008071810033A
:102EF0000FF00007C000000000000000000003C049
:102F0000000700000600000600F80607F806180093
:102F100006E00007000006000000000000000001BD
:102F2000E1E003F7F0063410041808041808040C54
:102F300008040C0806161803F3F001C1E0000000B5
:102F400000000000F80003FC300306380402080407
:102F500002080402080404100308F001FFC0007F07
:102F60000000000000000000000000000000000061
:102F70000000000070380070380070380000000059
:102F80000000000000000000000000000000000041
:102F90000000000000000000301A00301C0000009B
:102FA0000000000000000000000000000000000021
:102FB0000000000800001400002200004100008012
:102FC00080010040020020040010080008000000FA
:102FD000000000002100002100002100002100006D
:102FE000210000210000210000210000210000211B
:102FF00000000000000000000000080008040010AD
:1030000002002001004000808000410000220000FA
:10301000140000080000000000000003C00004C00D
:1030200000040000080038080F38080838081000AD
:103030000C300007E00003C00000000000000000AA
:103040003F8000FFE0038070020F1006708804C00C
:1030500088048308047F8802C09003012000FE409A
:103060000000080000180001F8003E0801C2000737
:10307000020007E20000FE00001FC80001F8000087
:103080003800000804000807FFF807FFF8040808E4
:1030900004080804080804080806180803F41801BE
:1030A000E7F00001E0000000000000003F8001FFA9
:1030B000E0038070020018040008040008040008FF
:1030C0000400100600200780C0000000040008076C
:1030D000FFF807FFF80400080400080400080400D3
:1030E0001802001003807001FFE0007F80000000E4
:1030F00004000807FFF807FFF8040808040808049C
:103100000808040808043E08040008060018010026
:103110006000000004000807FFF807FFF804080833
:10312000040800040800040800043E00060000062D
:103130000000018000000000000000003F8001FF4F
:10314000E003807006001804000804020804020866
:103150000203F00783F000020000020004000807E9
:10316000FFF807FFF804080800080000080000083E
:103170000000080004080807FFF807FFF80400082B
:103180000000000000000400080400080400080714
:10319000FFF807FFF8040008040008040008000016
:1031A0000000000000000000000600000700000111
:1031B00004000104000104000307FFFE07FFFC04F4
:1031C000000004000004000004000807FFF807FFE7
:1031D000F8040C08001800003E0004C7800503C86E
:1031E0000600F8040038040018000008040008076E
:1031F000FFF807FFF80400080000080000080000BE
:10320000080000080000080000180000600000002E
:1032100004000807FFF807800807FC00007FC000D3
:1032200003F80007C000780007800807FFF807FFD1
:10323000F804000804000807FFF807000803C000AE
:1032400000E000003800001E000007000001C0047C
:1032500000F007FFF8040000000000007F8001FF7D
:10326000E003807006001804000804000806001837
:1032700003003001FFE0007F800000000400080729
:10328000FFF807FFF8040408040400040400040421
:1032900000040400060C0003F80001F00000000028
:1032A000000000007F8001FFE003807006008804BA
:1032B00000880400C806003C03003E01FFE6007FD2
:1032C0008400000004000807FFF807FFF80408085E
:1032D000040800040C00040F00040BC00610F003E7
:1032E000F03801E00800000800000001E0F803F0F9
:1032F00030063010041808041808040C08040C08E0
:103300000206180207F00781E000000001800006B5
:10331000000004000004000004000807FFF807FF95
:10332000F80400080400000400000600000180000A
:1033300004000007FFE007FFF00400180000080089
:10334000000800000800000800000804001007FF43
:10335000E004000004000006000007E00007FE0093
:10336000041FE00001F80000380001E0043E0007FF
:10337000C00006000004000004000007E00007FF92
:10338000C0041FF80007C007F80007FF80043FF8DB
:103390000007C004F800070000040000000000045B
:1033A000000806001807C07805F1C8003E00001F9D
:1033B000800463E80780F806001804000800000095
:1033C00004000006000007800007E008047C0800F5
:1033D0001FF80007F800180804E0080700000600BE
:1033E000000400000000000100080600380400F896
:1033F0000403E8040F08047C0805F00807C0080768
:103400000018040060000000000000000000000040
:10341000000000000000003FFFFE2000022000022C
:103420002000022000022000020000000000000036
:10343000000008000007000000C00000380000067F
:10344000000001C000003000000E0000010000007C
:1034500000000000000020000220000220000220E6
:1034600000022000023FFFFE0000000000000000FC
:103470000000000000000000000000000008000044
:103480001000003000002000003000001000000894
:10349000000000000000000000000100000100002A
:1034A0000100000100000100000100000100000116
:1034B0000000010000010000010000010000000008
:1034C000000000000020000020000010000010009C
:1034D00000000000000000000000000000000000EC
:1034E0000000000000F00019F8001B18002208007E
:1034F0002608002408002410003FF8001FF80000F0
:103500000800001800000004000007FFF80FFFF09B
:1035100000181800100800200800200800301800CB
:103520001FF0000FC00000000000000007C0001FD7
:10353000F0001830002008002008002008003C0897
:10354000001C1000006000000000000000000000EF
:1035500007C0001FF00038180020080020080020D5
:103560000804101007FFF80FFFF000001000000023
:103570000000000000000007C0001FF00012300033
:103580002218002208002208003208001E10000E37
:10359000200000000000000020000020080020089B
:1035A00001FFF803FFF8062008042008042008079C
:1035B000200003000000000000000000000E000ECC
:1035C0006E001FF30031B10020B10020B100319135
:1035D000001F13002E1E00200E003000000000040B
:1035E000000807FFF80FFFF8001008002000002077
:1035F00000002008003FF8001FF80000080000004D
:10360000000000000000002008002008002008063C
:103610003FF8063FF800000800000800000800001E
:103620000000000000000000000000000300000394
:10363000002001002001002003063FFE063FFC00A1
:10364000000000000000000000000004000807FF68
:10365000F80FFFF8000188000300002FC00038F8C1
:1036600000203800200800000800000000000000D2
:10367000000004000804000804000807FFF80FFF1A
:10368000F80000080000080000080000000000002A
:10369000002008003FF8003FF8001008002000005C
:1036A0003FF8003FF8001008002000003FF8003FFE
:1036B000F8000008000000002008003FF8003FF874
:1036C000001008001000002000002008003FF80053
:1036D0001FF80000080000000000000007C0000FF5
:1036E000F0001830003008002008002008003008E2
:1036F000001830000FF00007C000000000000000BC
:103700002001003FFF003FFF0010110020090020B2
:1037100008002008003038001FF0000FC000000033
:103720000000000007C0001FF0003818002008004B
:103730002008002009001011001FFF003FFF0000BB
:1037400001000000002008002008002008003FF8C9
:10375000003FF800080800100800200800200000C2
:103760003000003000000000000000000000000CED
:1037700078001E1800330800230800210800218863
:103780000021980030F000386000000000000000C8
:10379000200000200000200000FFF003FFF80020C0
:1037A0000800200800200800003000000000000091
:1037B000000000002000003FF0007FF8000018002B
:1037C0000008000008002010003FF8007FF0000013
:1037D00010000000000000002000003000003C004D
:1037E000003F800023F0000078000070002380007C
:1037F0003C00003000002000002000003C00003FA2
:10380000E00023F80000E0002700003E00003FE059
:103810000021F80001E0003E000020000000000050
:103820002008002008003838003E68002780000388
:10383000C8002CF8003838002018002008000000CC
:10384000000000002000003003003C01003F830026
:1038500023EC000070002380003C000020000020CA
:1038600000000000000000000000003808002038C0
:103870000020F80023E8002F88003E0800380800E8
:103880002018000070000000000000000000000090
:10389000000000000000000008000014001FF7FCFA
:1038A00030000620000200000000000000000000C0
:1038B0000000000000000000000000000000FFFF0A
:1038C000FF000000000000000000000000000000F9
:1038D0000000000000002000023000061FF7FC007E
:1038E00014000008000000000000000000000000BC
:1038F0000000000000000018000060000040000010
:103900004000002000001000000800000400000437
:1039100000000C000010000063E0012003053D04DE
:103920000008090F55373311000308560000000046
:103930000000004800003C080A281E50000082B425
:10394000D2000000000000000000000000008525FB
:10395000104143310D00AD22247D1D1D32DF4F4447
:103960000F802C505000000000D3000000000F28F2
:103970001EFFF03703000000000000000000000000
:1039800050B4C094532D0A02BE60A2718F828092FF
:1039900074A36B010F14031E000000000000000060
:1039A0000000000000000000000D0E0F10121314A4
:1039B000151F1D1B1A19181716FFFFFFFFFFFFFF2A
:1039C000FFFFFFFFFFFFFFFFFF06080C1213141598
:1039D000171819FFFFFFFFFFFFFFFFFFFFFFFFFFAC
:1039E000FFFFFFFFFFFFFFFFFF00C4092323505D20
:1039F000544B3C0F32FFE40440008A054000AA000B
:103A00002222000073220100508158816081688168
:103A1000708130313233343536373839414243449E
:103A20004546403058003031323334353637383936
:103A30006162636465664030780000005C3A0008AB
:103A40000000002048000000C4010008A43A00085B
:103A50004800002038050000E001000800000000D8
:103A60000000000000000000FFFF0000E11A000855
:103A70000000000000000000000000000000000046
:103A80000000000000000000000000000000000036
:103A90000000000000000000000000000000000026
:043AA000D0900000C2
:040000050800018965
:00000001FF
