:020000040800F2
:100000008005002039020008470200084902000864
:100010004B0200084D0200084F02000800000000DB
:100020000000000000000000000000005102000875
:1000300053020008000000005502000857020008A3
:100040005902000859020008590200085902000824
:100050005902000859020008590200085902000814
:100060005902000859020008590200085902000804
:1000700059020008590200085902000859020008F4
:1000800059020008590200085902000859020008E4
:1000900059020008590200085902000859020008D4
:1000A00059020008590200085902000859020008C4
:1000B00059020008590200085902000859020008B4
:1000C00059020008590200085902000859020008A4
:1000D00059020008ED5500085902000859020008AD
:1000E0005902000859020008590200085902000884
:1000F0005902000859020008590200085902000874
:100100005902000859020008590200085902000863
:100110005902000859020008590200085902000853
:100120005902000859020008590200085902000843
:100130005902000859020008590200085902000833
:100140005902000859020008590200085902000823
:100150005902000859020008590200085902000813
:100160005902000859020008590200085902000803
:1001700059020008590200085902000859020008F3
:10018000590200085902000800F002F800F044F893
:100190000AA090E8000C82448344AAF10107DA45E2
:1001A00001D100F039F8AFF2090EBAE80F0013F0F0
:1001B000010F18BFFB1A43F001031847487B0000EA
:1001C000687B0000103A24BF78C878C1FAD852077B
:1001D00024BF30C830C144BF04680C6070470000C1
:1001E0000023002400250026103A28BF78C1FBD840
:1001F000520728BF30C148BF0B607047782900F014
:100200007580732900F00C82002070471FB506F03E
:10021000B4F81FBD10B510BD00F024FA1146FFF769
:10022000F5FF05F055FC00F042FA03B4FFF7F2FFCA
:1002300003BC05F05FFA00000B48016841F470014F
:1002400001600A480047FEE7FEE7FEE7FEE7FEE73B
:10025000FEE7FEE7FEE7FEE7FEE70000044805498B
:10026000034A054B7047000088ED00E08901000853
:1002700080010020800500208001002070470000E0
:100280000FB4044910B503AA029800F0CDF910BCD0
:100290005DF814FB0400002070B50C460546012AE9
:1002A00005D02878800600D5EA69002302E0012302
:1002B00005E05B1C934202D2E05C0028F9D1A869FA
:1002C000E618C01AA861286A184428622846AFF3C5
:1002D000008004E0D5E9012114F8010B9047B442F5
:1002E000F8D32846AFF3008070BD000070B5044617
:1002F0000D4621461068AFF300802188090502D51C
:100300000F4A7A4402E00E4A7A440E32002104F188
:10031000240305E000F00F060009965D5E54491CB9
:100320000028F7D120780023000704D5702D02D0D3
:1003300009B1022311322046BDE8704000F0EDB84B
:10034000467900002DE9F05F894604464FF0000A27
:10035000DFF824B1FB44C0F820A02046E1688847BC
:1003600000287DD0252806D0D4E901219047206AB5
:10037000401C2062F1E700255F462046E16888477F
:100380002028064607DB312E05D2B81910F8200CBC
:1003900008B10543F1E7A80701D525F00405C4F825
:1003A0001CA00027C4F818A02A2E09D0304605F05A
:1003B0009AF938B304EB8708303EC8F8186019E0A2
:1003C00059F8041B204604EB87029161E1688847D5
:1003D000012F064618D1E069002820DA25F0200513
:1003E0001DE0D8F8180000EB800006EB4000303824
:1003F000C8F818002046E1688847064605F073F9FA
:100400000028EED1012F0AD02E2E08D12046E16817
:1004100088477F1C0646022F45F02005C4DBA069F3
:10042000002803DA404245F00105A061E80701D049
:1004300025F01005A6B1A6F14100192802D82036F2
:1004400045F400654A463146204625604D46FFF793
:10045000D5FE60B1012807D0ED1D25F0070000E0B2
:1004600007E000F1080978E705F1040975E730466F
:100470007AE7206ABDE8F09F1C7900004FF0013C4C
:1004800050F8042B51F8043B9A4221D1A2EB0C0303
:10049000934313EACC1317D150F8042B51F8043BC3
:1004A0009A4215D1A2EB0C03934313EACC130BD160
:1004B00050F8042B51F8043B9A4209D1A2EB0C03EB
:1004C000934313EACC13DBD04FF00000704700BF1A
:1004D000D01A01BAB1FA81F101F0180122FA01F043
:1004E000CB40C1F12001DBB2C0B2C01A2CFA01F33B
:1004F000D11A914311EAC311E6D170477047704792
:100500007047704710B500F0A1F8006810BD10B535
:10051000044600F09BF8046010BD2DE9F0470D463D
:1005200099469246044600F124080168880604D5DD
:10053000E06921F01001216000E00120A84201DD06
:10054000471B00E00027A1697A1902EB0900081A8D
:10055000A0612078C00602D42046AFF300800026B8
:1005600008E0D4E901211AF806009047206A401CEF
:10057000761C20624E45F4DB2078C0060AD5204662
:10058000AFF3008006E0D4E9012130209047206AD3
:10059000401C2062381EA7F10107F4DC07E0D4E913
:1005A000012118F805009047206A401C2062281E8F
:1005B000A5F10105F3DC2046AFF3008020780006AA
:1005C00002D50220BDE8F0870120FBE701694A1C43
:1005D00002610878704700B58FB0CDE90131002184
:1005E000059105497944CDE9031011466846FFF7A6
:1005F000A9FE0FB000BD0000E5FFFFFF10B5436985
:1006000013B1AFF3008001E0FFF746FE012010BDFB
:10061000127800F124010A7000224A700122EDE7ED
:1006200011684FF0FF32E9E7074B70B50D467B4488
:10063000FFF7D1FF0446284600F00CF810B14FF048
:10064000FF3070BD204670BDDB520000004870478F
:1006500020010020007B00F08000704700487047B8
:10066000200100207546FFF7F9FFAE4605006946F8
:10067000534620F00700854618B020B5FFF7EEFD81
:10068000BDE820404FF000064FF000074FF0000893
:100690004FF0000B21F00701AC46ACE8C009ACE814
:1006A000C009ACE8C009ACE8C0098D46704710B578
:1006B0000446AFF300802046BDE81040FFF7B5BD0B
:1006C00010B500F011FC10BD2DE9F04107460C46B5
:1006D0000026002509E036023919491B491E88B257
:1006E00000F008F80644681CC5B2A542F3DB3046AA
:1006F000BDE8F08170B50446002600F0A9FC25464F
:10070000E11704EB11610912A02202EB4101C8B20A
:1007100000F06AFC00F0ECFCE11704EB1161091237
:10072000A4EB0121C8B200F05FFC00F0E1FC00F096
:100730008FFCA12000F058FC00F0DAFC002000F053
:100740001DFC064600F0AAFC304670BD2DE9F041C4
:1007500005460E461746002409E0E20026FA02F29A
:10076000D1B22A1990B200F006F8601CC4B2BC42A3
:10077000F3DBBDE8F08170B504460E4600F068FC7E
:100780002546E11704EB11610912A02202EB410199
:10079000C8B200F029FC00F0ABFCE11704EB1161DA
:1007A0000912A4EB0121C8B200F01EFC00F0A0FC6D
:1007B000304600F019FC00F09BFC00F06FFC0A20B2
:1007C00005F04CF870BD10B5022005F063F810BDBF
:1007D00010B500200B490860FFF7F5FF01200A491A
:1007E000C1F8BC02FFF7EFFF002006490C3108609A
:1007F000FFF7E9FF01200449C1F8B002FFF7E3FF6A
:1008000010BD0000B0824042008040421CB50D483F
:10081000006840F002000B490860012003210346F4
:100820000246CDE900100103074800F0EDF8012071
:10083000032103460246CDE90010C103024800F03F
:10084000E3F81CBD303802400004024010B501201E
:1008500008490860FFF7B7FF01200749C1F8BC024B
:10086000FFF7B1FF002003490C310860FFF7ABFF31
:1008700010BD0000B08240420080404270B5054685
:100880000024002613E06006040E01200D490860D4
:10089000FFF799FF0C48D0F8300208B1601CC4B2D1
:1008A000002008490860FFF78EFF701CC6B2082EB2
:1008B000E9DB15B9FFF7CAFF01E0FFF789FF204622
:1008C00070BD0000BC8240420080404270B50446CA
:1008D000002512E0E0090C490860FFF774FF0120D1
:1008E0000A49C1F8BC02FFF76EFF002006490C312F
:1008F00008606006040E681CC5B2082DEADB012002
:100900000149086070BD0000B08240420080404252
:1009100010B50120094908600949C1F8BC02FFF778
:1009200052FF002005490860FFF74DFF00200449F1
:10093000C1F8BC02FFF747FF10BD0000B082404283
:100940000080404210B5002007490860FFF73BFFD8
:1009500001200649C1F8BC02FFF735FF012002491A
:100960000860FFF730FF10BDB08240420080404277
:1009700070B500240025012011490860FFF723FF0E
:1009800001201049C1F8BC02FFF71DFF09E0601CFF
:10099000C4B2FA2C03DDFFF7D5FF012506E0FFF70F
:1009A00012FF0748803800680028F0D100BF0020FF
:1009B00003490C310860FFF706FF284670BD0000B0
:1009C000B08240420080404230B5CC1000F120039C
:1009D00053F824304C07E50E0F24AC40A343CD1050
:1009E00000F1200444F82530CC1000F1200353F826
:1009F00024304C07E40E02FA04F42343CD1000F136
:100A0000200444F8253030BD2DE9F0470C46DDE9DF
:100A10000867002100258C4600BF60E04FF0010808
:100A200008FA01F504EA050CAC4557D1D0F800806E
:100A30004FEA410A4FF0030909FA0AF928EA0908BE
:100A4000C0F80080D0F800804FEA410902FA09F9A5
:100A500048EA0908C0F80080012A01D0022A27D1FB
:100A6000D0F808804FEA410A4FF0030909FA0AF961
:100A700028EA0908C0F80880D0F808804FEA410940
:100A800006FA09F948EA0908C0F80880D0F8049085
:100A90004FF0010808FA01F829EA0809C0F80490A3
:100AA000D0F8048003FA01F948EA0908C0F8048084
:100AB000D0F80C804FEA410A4FF0030909FA0AF90D
:100AC00028EA0908C0F80C80D0F80C804FEA4109E8
:100AD00007FA09F948EA0908C0F80C80491C1029EE
:100AE0009CD3BDE8F08700001FB53348006840F094
:100AF000020031490860012000210B460A46CDE979
:100B0000001081032D48FFF77FFF01200321002300
:100B10000246CDE9001041032848FFF775FFFFF7B3
:100B200075FE0020264908600A2004F097FE012087
:100B30002449C1F8B4020A2004F090FE002000907D
:100B400003460246022101901C48FFF75DFF642026
:100B500004F084FE042202A948F2401000F03EF89E
:100B600000208DF80C0002A917A0FFF789FB19A13E
:100B700002A8FFF783FCE8B902208DF808000122E3
:100B800002A948F2400000F059F9012202A948F2F6
:100B9000470000F023F80A2004F060FE00208DF8E2
:100BA0000800012202A948F2400000F047F90020A5
:100BB00004B010BD0120FBE73038024000040240C1
:100BC000B4024142000041424354502049443A2576
:100BD000730D0A0031313538000000002DE9F04175
:100BE00005460F461646FFF793FE2820FFF76EFED8
:100BF000FFF7BEFE2812FFF769FEFFF7B9FEE8B265
:100C0000FFF764FEFFF7B4FEFFF782FE2920FFF72F
:100C10005DFEFFF7ADFE00240BE0711EA14201D086
:100C2000012100E000210846FFF728FE3855601C2E
:100C3000C4B2B442F1DBFFF785FEBDE8F0810000ED
:100C400071B583B00024002678480078401C7749AD
:100C50000870084600780A2190FBF1F201FB1200AF
:100C600018B1724800780A287EDA012203A948F2F6
:100C70004E10FFF7B3FF9DF80C0000F0800068B144
:100C80009DF80C0000F00F00062807DA0020019004
:100C9000012201A948F24E1000F0D0F89DF80C0096
:100CA00000F00F0000285FD09DF80C0000F00F004E
:100CB0000628D9DA9DF80C0000F00F01FF208840CB
:100CC000C0B201905A4890F820509DF80400C043EB
:100CD000C0B240F0C000564981F820000846818922
:100CE0008182C18AC183002444E0514890F82000E9
:100CF0000121A140084010B34E4931F814000422EC
:100D000002A9FFF76BFF4A4890F8300000F001009D
:100D1000B0B19DF80A009DF80B1000EB012081B2E4
:100D200043480C3020F814109DF808009DF8091075
:100D300000EB012081B23E48163020F8141017E075
:100D40009DF808009DF8091000EB012081B2384899
:100D50000C3020F814109DF80A009DF80B1000EBE1
:100D6000012081B2324800E034E0163020F814103F
:100D7000601CC4B2052CB8DB01262D4880892E49A1
:100D80000988884205DC2A48C08A2B49498888425C
:100D90001DDD9DF80C0000F00F0001280ADD24483D
:100DA000C089234988810846008BC88200201F49DA
:100DB00008700FE01E48808A1D4988810846C08B54
:100DC000C88280200390084680F8205002E000206E
:100DD000164908709DF80C0000F08F0080281AD189
:100DE000134890F8200000F0800040B1104890F8BF
:100DF000200020F080000E4981F820000BE04FF623
:100E0000FF700B498881C882084690F8200000F0E6
:100E1000E00081F8200005480078F02802DD0A2073
:100E200002490870304604B070BD00000E0000207A
:100E3000100000203E7C0008100100202DE9F04148
:100E400004460E4617464FF00008FFF761FD2820C4
:100E5000FFF73CFDFFF78CFD2012FFF737FDFFF792
:100E600087FDE0B2FFF732FDFFF782FD00250BE0C2
:100E7000705DFFF72BFDFFF77BFD8046B8F1000F9B
:100E800000D003E0681CC5B2BD42F1DB00BFFFF734
:100E900059FD4046BDE8F08110B500200F490860BB
:100EA0000F48006820F440200D490860084600689B
:100EB00040F48020086000200A49C1F8A402022002
:100EC00004F0E8FC012005490860022004F0E2FC7F
:100ED00000200449C1F8A00210BD0000A0824042D9
:100EE00000040240008040421CB50C48006840F0FD
:100EF00002000A4908600120022100230246CDE9D0
:100F000000104FF440710648FFF77EFD01200549AF
:100F100008600549C1F8A4021CBD00003038024039
:100F200000040240A08240420080404210B50020F0
:100F30000F4908600F48006820F440200D49086000
:100F40000846006840F48020086001200A49C1F882
:100F5000A402022004F09EFC012005490860022042
:100F600004F098FC00200449C1F8A00210BD000064
:100F7000A0824042000402400080404270B5054615
:100F800000241648006820F44020144908600846F0
:100F900000680860002616E0002011490860022061
:100FA00004F078FC01200F49C1F8A0026006040E8D
:100FB0000B487C38006808B1601CC4B2012004F002
:100FC00069FC701CC6B2082EE6DB15B9FFF7AEFF50
:100FD00001E0FFF761FF204670BD00000004024001
:100FE000A08240420080404270B504461548006827
:100FF00020F44020134908600846006840F480202F
:101000000860002010490860002517E0E0090E493B
:10101000091D08606006040E022004F03BFC01205C
:101020000A49C1F8A002022004F034FC002006495D
:101030000860022004F02EFC681CC5B2082DE5DB18
:1010400070BD000000040240A08240420080404287
:1010500010B50F48006820F440200D49086008468C
:10106000006840F48020086001200A4908600A49AD
:10107000C1F8A002042004F00DFC0020054908601E
:10108000042004F007FC00200349C1F8A00210BDB1
:1010900000040240A48240420080404210B5114842
:1010A000006820F440200F4908600846006840F4BA
:1010B0008020086000200C4908600C49C1F8A40297
:1010C000042004F0E7FB012007490860042004F035
:1010D000E1FB01200549C1F8A402042004F0DAFB79
:1010E00010BD000000040240A08240420080404247
:1010F00010B500241348006820F44020114908600E
:1011000008460068086001200F49086004F0C2FB2F
:1011100001200E49C1F8A00204F0BCFB07E0601CEE
:10112000C4B2FA2C03DDFFF7B9FF012010BD064859
:10113000803800680028F2D10349091F086000BF09
:10114000F4E7000000040240A482404200804042D4
:101150001CB51048006840F001000E4908600846C0
:10116000006840F004000860022000210B460A4697
:10117000CDE9001001210848FFF746FC02200021BC
:101180000B460A46CDE9001001210448FFF73CFC5C
:101190001CBD000030380240000802400000024040
:1011A00010B5044614B101201449087013480078A2
:1011B000C0B113480068012803D012480068012814
:1011C00010D10A2004F04AFB00200C4908700C489A
:1011D0000068012800D110BD0A48006801280AD122
:1011E0000220F8E70648006828B90648006810B9E8
:1011F0000120024908700020EDE7000046000020B1
:10120000000241420002404270B5044600260F48E9
:101210000588408845430021084602F01BFE02F085
:1012200085FF00BF0EE00948808847F28971884237
:1012300005D12012064908800846048001E00448D0
:101240000480761CAE42EED370BD00001001002079
:101250000000086010B504463B488471002C37D16B
:10126000F020394908804FF4A070488008468088F3
:1012700045F21051884210D14FF430503249088164
:101280004FF4285048814FF42C5088814FF4F0706F
:1012900008804FF44870488006E02C202A490881D5
:1012A0002A2048812B2088812748808845F21031E8
:1012B000884205D02448808847F2967188423ED102
:1012C0004FF4A070204908804FF4F070488036E059
:1012D0004FF4A0701C490880F020488008468088A0
:1012E00045F21051884210D14FF430501649088110
:1012F0004FF4285048814FF42C5088814FF44870A7
:1013000008804FF4F070488006E02C200E490881D8
:101310002A2048812B2088810B48808845F2103193
:10132000884205D00848808847F29671884206D1E5
:101330004FF4F070044908804FF4A07048800020FA
:1013400002F088FC10BD0000100100202DE9FF4FC5
:1013500084B081468A460020039002900698A0EB54
:1013600009050798A0EB0A06CDF80490CDF800A077
:10137000002D01DD012705E00DB9002702E04FF047
:10138000FF376D42002E02DD4FF0010806E016B96E
:101390004FF0000802E04FF0FF387642B54201DD21
:1013A0002C4600E034464FF0000B21E0009A91B249
:1013B000019A90B200F022F8039828440390029812
:1013C000304402900398A04205DD0398001B03906F
:1013D0000198384401900298A04205DD0298001B54
:1013E00002900098404400900BF101001FFA80FB2E
:1013F000601C8345DADD08B0BDE8F08F30B50446E7
:101400000D462946204602F025FD02F08FFE0A48CF
:10141000808847F28971884208D108480088001204
:101420000749088005480088088003E003480088D1
:101430000349088030BD0000100100200A00002090
:10144000000008602DE9F04306460F469046002450
:1014500045460320A0EB48093CE07A1B91B23219C3
:1014600090B2FFF7CBFF3A1B91B2721990B2FFF71F
:10147000C5FF3A1991B2721990B2FFF7BFFF7A19FE
:1014800091B2321990B2FFF7B9FF7A1991B2321BBB
:1014900090B2FFF7B3FF3A1991B2721B90B2FFF707
:1014A000ADFF7A1B91B2321B90B2FFF7A7FF3A1B38
:1014B00091B2721B90B2FFF7A1FF641CB9F1000F4B
:1014C00003DAA000801D814404E0601B80000A3024
:1014D00081446D1EAC42C0DDBDE8F08330B50446EA
:1014E0000D462848808845F21051884220D1254970
:1014F000488902F00FFE201202F000FE21494989BE
:10150000491C88B202F006FEE0B202F0F7FD1D4968
:10151000888902F0FFFD281202F0F0FD194989893F
:10152000491C88B202F0F6FDE8B202F0E7FD13E0D4
:101530001449488902F0EEFD201202F0DFFDE0B20E
:1015400002F0DCFD0F49888902F0E4FD281202F068
:10155000D5FDE8B202F0D2FD0A4800890A490880A8
:101560000848808847F28971884206D110120649DE
:10157000891C08800846028002E00348801C028023
:1015800030BD000010010020FEFF07602DE9F04F84
:1015900006460F4690469946099C4FF0000BA8EB73
:1015A0000600401C1FFA80FB3D461EE029463046DF
:1015B00002F050FC02F0BAFD4FF0000A11E00D48B5
:1015C000808847F28971884205D120120A49088033
:1015D0000846048001E0084804800AF101001FFA6F
:1015E00080FADA45EBDB681C85B24D45DEDDBDE8EF
:1015F000F08F000010010020000008601CB5FE48BC
:10160000006840F01800FC490860FB48083000689A
:1016100040F00100F8490831086001200221002350
:101620000246CDE900100103F448FFF7EDF901206F
:10163000022100230246CDE90010C102EF48FFF766
:10164000E3F90120032100230222CDE900104EF22C
:10165000B371EA48FFF7D8F90120032100230222E1
:10166000CDE900104FF68071E548FFF7CDF90C2267
:101670000021E248FFF7A8F90C220121DF48FFF71B
:10168000A3F90C220421DD48FFF79EF90C22052165
:10169000DA48FFF799F90C220721D848FFF794F9A7
:1016A0000C220821D548FFF78FF90C220921D348D5
:1016B000FFF78AF90C220A21D048FFF785F90C229E
:1016C0000D21CE48FFF780F90C220E21CB48FFF701
:1016D0007BF90C220F21C948FFF776F90C2207216C
:1016E000C748FFF771F90C220821C548FFF76CF9CC
:1016F0000C220921C248FFF767F90C220A21C048D1
:10170000FFF762F90C220B21BD48FFF75DF90C22AF
:101710001146BB48FFF758F90C220D21B848FFF7D6
:1017200053F90C220E21B648FFF74EF90C220F2177
:10173000B348FFF749F900204FF0204108604860A6
:10174000B04908604FF02040006840F480504FF0EE
:10175000204108600846006840F480400860084660
:10176000006840F01000086008464068486008467D
:10177000406840F00F0048600846406840F47050F0
:101780004860A0480068C1F804010846D0F8040188
:1017900040F00900C1F804010846D0F8040140F403
:1017A0000060C1F804010846006840F001000860CC
:1017B000322004F053F801209349C1F8AC020A200A
:1017C00004F04CF800209049C1F8AC02322004F03B
:1017D00045F801208D490860C82004F03FF8D32067
:1017E00002F098FC02F02CFA8949888002F028FA6D
:1017F0008749888002F024FA8549888008468088D5
:101800004FF6FF7101EA00208149888002F018FA42
:101810007F49898808437E4988800846808847F246
:10182000967188427ED0042002F074FC02F008FA1F
:101830007749888002F004FA7549888002F000FA3E
:1018400073498880084680884FF6FF7101EA0020BE
:101850006F49888002F0F4F9C0B26D498988084365
:101860006B4988800846808848F25251884203D1EB
:1018700047F28970664988806548808847F2897197
:1018800088425CD0D42002F045FC02F0D9F96049CE
:10189000888002F0D5F95E49888002F0D1F95C4970
:1018A0008880084680884FF6FF7101EA0020584979
:1018B000888002F0C5F956498988084354498880D0
:1018C0000846808845F21031884238D055214FF4BF
:1018D000704002F035FCAA214FF2010002F030FC0A
:1018E00052214FF2020002F02BFC08214FF20300BC
:1018F00002F026FC01214FF2040002F021FC4FF41B
:10190000454002F007FC02F09BF9414988800846F7
:1019100080884FF6FF7101EA00203D4988804CF233
:10192000015000E00BE002F0F5FB02F089F93849C4
:101930008988084336498880052003F08FFF3448A2
:10194000818834A0FEF79CFC3148808847F296716C
:10195000884267D1F02002F0DDFBC32002F0CEFB0D
:10196000F02002F0D7FB962002F0C8FB362002F0F0
:10197000D1FB482002F0C2FB3A2002F0CBFB5520FD
:1019800002F0BCFBB42002F0C5FB012002F0B6FB64
:10199000B62002F0BFFB802002F0B0FB222002F054
:1019A000ADFB3B2002F0AAFBB72002F0B3FBC62040
:1019B00002F0A4FBC02002F0ADFB802002F09EFBF1
:1019C000162002F09BFBC12002F0A4FB192002F0BC
:1019D00095FBC22002F09EFBA72002F08FFBC520E2
:1019E00002F098FB162002F089FBE82002F092FB3F
:1019F000402002F083FB16E030380240000C024029
:101A000000100240040100A000804142AC8241422B
:101A100010010020204C43442049443A25780D0A07
:101A200000000000B2E08A2002F068FB002002F013
:101A300065FB002002F062FB292002F05FFB192009
:101A400002F05CFBA52002F059FB332002F056FBAC
:101A5000E02002F05FFBF02002F050FB072002F0D4
:101A60004DFB0D2002F04AFB042002F047FB05204D
:101A700002F044FB142002F041FB362002F03EFB52
:101A8000542002F03BFB4C2002F038FB382002F0DF
:101A900035FB132002F032FB142002F02FFB2E2026
:101AA00002F02CFB342002F029FBE12002F032FB93
:101AB000F02002F023FB102002F020FB142002F0A3
:101AC0001DFB0E2002F01AFB0C2002F017FB082071
:101AD00002F014FB352002F011FB442002F00EFB53
:101AE0004C2002F00BFB262002F008FB102002F035
:101AF00005FB122002F002FB2C2002F0FFFA32203C
:101B000002F0FCFAF02002F005FB3C2002F0F6FAAD
:101B1000F02002F0FFFA692002F0F0FA352002F01E
:101B2000F9FA002002F0EAFA212002F0F3FA11207B
:101B300002F0F0FA782003F091FE292002F0EAFA90
:101B4000322003F08BFE2A2002F0E4FA002002F09B
:101B5000D5FA002002F0D2FA012002F0CFFA3F209D
:101B600002F0CCFA2B2002F0D5FA002002F0C6FADF
:101B7000002002F0C3FA012002F0C0FADF2002F0D8
:101B8000BDFA2C2002F0C6FA01F0F7BFFE488088AB
:101B900047F2897188427CD1112002F0BBFA78208B
:101BA00003F05CFE362002F0B5FA002002F0A6FA3F
:101BB0003A2002F0AFFA552002F0A0FAB22002F06B
:101BC000A9FA0C2002F09AFA0C2002F097FA0020F1
:101BD00002F094FA332002F091FA332002F08EFAE8
:101BE000B72002F097FA562002F088FABB2002F0E4
:101BF00091FA202002F082FAC02002F08BFA2C2009
:101C000002F07CFAC22002F085FA012002F076FA96
:101C1000C32002F07FFA0F2002F070FAC42002F015
:101C200079FA202002F06AFAC62002F073FA0F2037
:101C300002F064FAD02002F06DFAA42002F05EFAFD
:101C4000A12002F05BFAD62002F064FAA12002F093
:101C500055FAE02002F05EFAF02002F04FFA002080
:101C600002F04CFA062002F049FA062002F046FA89
:101C7000072002F043FA052002F040FA302002F07B
:101C80003DFA442002F03AFA482002F037FA3820B0
:101C900000E068E002F032FA112002F02FFA102082
:101CA00002F02CFA2E2002F029FA342002F026FA53
:101CB000E12002F02FFAF02002F020FA0A2002F0D0
:101CC0001DFA0E2002F01AFA0D2002F017FA0B206E
:101CD00002F014FA272002F011FA2F2002F00EFA77
:101CE000442002F00BFA472002F008FA352002F0F7
:101CF00005FA122002F002FA122002F0FFF92C205D
:101D000002F0FCF9322002F0F9F9352002F002FA73
:101D1000002002F0F3F9212002F0FCF9292002F062
:101D2000F9F92A2002F0F6F9002002F0E7F9002084
:101D300002F0E4F9012002F0E1F93F2002F0DEF9BF
:101D40002B2002F0E7F9002002F0D8F9002002F081
:101D5000D5F9002002F0D2F9EF2002F0CFF92C20C3
:101D600002F0D8F910E78848808845F2103188429F
:101D700040F07B87ED2002F0CDF9012002F0BEF9A2
:101D8000FE2002F0BBF9EE2002F0C4F9DE2002F0E2
:101D9000B5F9212002F0B2F9F12002F0BBF90120DF
:101DA00002F0ACF9DF2002F0B5F9102002F0A6F93C
:101DB000C42002F0AFF98F2002F0A0F9C62002F093
:101DC000A9F9002002F09AF9E22002F097F9E22046
:101DD00002F094F9E22002F091F9BF2002F09AF9A2
:101DE000AA2002F08BF9B02002F094F90D2002F045
:101DF00085F9002002F082F90D2002F07FF9002021
:101E000002F07CF9112002F079F9002002F076F955
:101E1000192002F073F9002002F070F9212002F07D
:101E20006DF9002002F06AF92D2002F067F9002018
:101E300002F064F93D2002F061F9002002F05EF941
:101E40005D2002F05BF9002002F058F95D2002F0FD
:101E500055F9002002F052F9B12002F05BF9802020
:101E600002F04CF9002002F049F98B2002F046F90B
:101E7000002002F043F9962002F040F9002002F021
:101E80003DF9B22002F046F9002002F037F90020B7
:101E900002F034F9022002F031F9002002F02EF9AC
:101EA000032002F02BF9002002F028F9B32002F001
:101EB00031F9002002F022F9002002F01FF9002081
:101EC00002F01CF9002002F019F9002002F016F9C6
:101ED000002002F013F9002002F010F9002002F0B7
:101EE0000DF9002002F00AF9002002F007F90020A5
:101EF00002F004F9002002F001F9002002F0FEF8DF
:101F0000002002F0FBF8002002F0F8F8002002F0B8
:101F1000F5F8002002F0F2F8002002F0EFF80020BF
:101F200002F0ECF8002002F0E9F8002002F0E6F8F8
:101F3000002002F0E3F8002002F0E0F8002002F0B8
:101F4000DDF8B42002F0E6F88B2002F0D7F800208C
:101F500002F0D4F8962002F0D1F8002002F0CEF87A
:101F6000A12002F0CBF8002002F0C8F8B52002F062
:101F7000D1F8022002F0C2F8002002F0BFF80320DE
:101F800002F0BCF8002001E01001002002F0B6F8D9
:101F9000042002F0B3F8002002F0B0F8B62002F0FE
:101FA000B9F8002002F0AAF8002002F0A7F8B72044
:101FB00002F0B0F8002002F0A1F8002002F09EF834
:101FC0003F2002F09BF8002002F098F85E2002F01B
:101FD00095F8002002F092F8642002F08FF80020BB
:101FE00002F08CF88C2002F089F8002002F086F8CC
:101FF000AC2002F083F8002002F080F8DC2002F030
:102000007DF8002002F07AF8702002F077F80020C6
:1020100002F074F8902002F071F8002002F06EF8DF
:10202000EB2002F06BF8002002F068F8DC2002F0F0
:1020300065F8002002F062F8B82002F06BF800208A
:1020400002F05CF8002002F059F8002002F056F887
:10205000002002F053F8002002F050F8002002F0B7
:102060004DF8002002F04AF8002002F047F8BA20AC
:1020700002F050F8242002F041F8002002F03EF86F
:10208000002002F03BF8002002F038F8C12002F0F6
:1020900041F8202002F032F8002002F02FF85420FE
:1020A00002F02CF8002002F029F8FF2002F026F8B8
:1020B000002002F023F8C22002F02CF80A2002F0DF
:1020C0001DF8002002F01AF8042002F017F8002092
:1020D00002F014F8C32002F01DF83C2002F00EF8C4
:1020E000002002F00BF83A2002F008F8002002F07D
:1020F00005F8392002F002F8002001F0FFFF372038
:1021000001F0FCFF002001F0F9FF3C2001F0F6FF98
:10211000002001F0F3FF362001F0F0FF002001F075
:10212000EDFF322001F0EAFF002001F0E7FF2F2051
:1021300001F0E4FF002001F0E1FF2C2001F0DEFFC0
:10214000002001F0DBFF292001F0D8FF002001F082
:10215000D5FF262001F0D2FF002001F0CFFF242080
:1021600001F0CCFF002001F0C9FF242001F0C6FFE0
:10217000002001F0C3FF232001F0C0FF002001F088
:10218000BDFF3C2001F0BAFF002001F0B7FF362070
:1021900001F0B4FF002001F0B1FF322001F0AEFFEA
:1021A000002001F0ABFF2F2001F0A8FF002001F07C
:1021B000A5FF2C2001F0A2FF002001F09FFF2920A5
:1021C00001F09CFF002001F099FF262001F096FF0E
:1021D000002001F093FF242001F090FF002001F087
:1021E0008DFF242001F08AFF002001F087FF2320CB
:1021F00001F084FF002001F081FFC42001F08AFF7C
:10220000622001F07BFF002001F078FF052001F043
:1022100075FF002001F072FF842001F06FFF0020A5
:1022200001F06CFFF02001F069FF002001F066FF73
:10223000182001F063FF002001F060FFA42001F0EE
:102240005DFF002001F05AFF182001F057FF002029
:1022500001F054FF502001F051FF002001F04EFF2B
:102260000C2001F04BFF002001F048FF172001F087
:1022700045FF002001F042FF952001F03FFF0020C4
:1022800001F03CFFF32001F039FF002001F036FFA0
:10229000E62001F033FF002001F030FFC52001F0FF
:1022A00039FF322001F02AFF002001F027FF4420EF
:1022B00001F024FF002001F021FF652001F01EFF46
:1022C000002001F01BFF762001F018FF002001F034
:1022D00015FF882001F012FF002001F00FFFC6203B
:1022E00001F018FF202001F009FF002001F006FF97
:1022F000172001F003FF002001F000FF012001F092
:10230000FDFE002001F0FAFEC72001F003FF0020CF
:1023100001F0F4FE002001F0F1FE002001F0EEFEDD
:10232000002001F0EBFEC82001F0F4FE002001F0D7
:10233000E5FE002001F0E2FE002001F0DFFE0020BB
:1023400001F0DCFEC92001F0E5FE002001F0D6FE20
:10235000002001F0D3FE002001F0D0FE002001F0AB
:10236000CDFE002001F0CAFE002001F0C7FE0020D3
:1023700001F0C4FE002001F0C1FE002001F0BEFE0D
:10238000002001F0BBFE002001F0B8FE002001F0AB
:10239000B5FE002001F0B2FE002001F0AFFE0020EB
:1023A00001F0ACFE002001F0A9FEE02001F0B2FE39
:1023B000162001F0A3FE002001F0A0FE1C2001F079
:1023C0009DFE002001F09AFE212001F097FE0020E2
:1023D00001F094FE362001F091FE002001F08EFE07
:1023E000462001F08BFE002001F088FE522001F013
:1023F00085FE002001F082FE642001F07FFE0020B7
:1024000001F07CFE7A2001F079FE002001F076FEDA
:102410008B2001F073FE002001F070FE992001F086
:102420006DFE002001F06AFEA82001F067FE00208A
:1024300001F064FEB92001F061FE002001F05EFEB3
:10244000C42001F05BFE002001F058FECA2001F01C
:1024500055FE002001F052FED22001F04FFE002078
:1024600001F04CFED92001F049FE002001F046FEAB
:10247000E02001F043FE002001F040FEF32001F0D7
:102480003DFE002001F03AFEE12001F043FE16205F
:1024900001F034FE002001F031FE1C2001F02EFE80
:1024A000002001F02BFE222001F028FE002001F088
:1024B00025FE362001F022FE002001F01FFE4520FF
:1024C00001F01CFE002001F019FE522001F016FE62
:1024D000002001F013FE642001F010FE002001F046
:1024E0000DFE7A2001F00AFE002001F007FE8B208D
:1024F00001F004FE002001F001FE992001F0FEFD34
:10250000002001F0FBFDA82001F0F8FD002001F003
:10251000F5FDB92001F0F2FD002001F0EFFDC4202F
:1025200001F0ECFD002001F0E9FDCA2001F0E6FD1C
:10253000002001F0E3FDD22001F0E0FD002001F0D9
:10254000DDFDD82001F0DAFD002001F0D7FDE0200C
:1025500001F0D4FD002001F0D1FDF32001F0CEFD0B
:10256000002001F0CBFDE22001F0D4FD052001F0B8
:10257000C5FD002001F0C2FD0B2001F0BFFD0020D1
:1025800001F0BCFD1B2001F0B9FD002001F0B6FDFB
:10259000342001F0B3FD002001F0B0FD442001F033
:1025A000ADFD002001F0AAFD4F2001F0A7FD0020A5
:1025B00001F0A4FD612001F0A1FD002001F09EFDCD
:1025C000792001F09BFD002001F098FD882001F0AA
:1025D00095FD002001F092FD972001F08FFD002075
:1025E00001F08CFDA62001F089FD002001F086FDA0
:1025F000B72001F083FD002001F080FDC22001F032
:102600007DFD002001F07AFDC72001F077FD00205C
:1026100001F074FDD12001F071FD002001F06EFD8C
:10262000D62001F06BFD002001F068FDDD2001F0F7
:1026300065FD002001F062FDF32001F05FFD002048
:1026400001F05CFDE32001F065FD052001F056FD81
:10265000002001F053FD0A2001F050FD002001F0A0
:102660004DFD1C2001F04AFD002001F047FD332004
:1026700001F044FD002001F041FD442001F03EFD49
:10268000002001F03BFD502001F038FD002001F05A
:1026900035FD622001F032FD002001F02FFD782091
:1026A00001F02CFD002001F029FD882001F026FD1D
:1026B000002001F023FD972001F020FD002001F013
:1026C0001DFDA62001F01AFD002001F017FDB72026
:1026D00001F014FD002001F011FDC22001F00EFDFB
:1026E000002001F00BFDC72001F008FD002001F0E3
:1026F00005FDD12001F002FD002001F0FFFCD520F6
:1027000001F0FCFC002001F0F9FCDD2001F0F6FCFA
:10271000002001F0F3FCF32001F0F0FC002001F0B8
:10272000EDFCE42001F0F6FC012001F0E7FC0020C4
:1027300001F0E4FC012001F0E1FC002001F0DEFCEE
:10274000022001F0DBFC002001F0D8FC2A2001F07F
:10275000D5FC002001F0D2FC3C2001F0CFFC002091
:1027600001F0CCFC4B2001F0C9FC002001F0C6FCBC
:102770005D2001F0C3FC002001F0C0FC742001F0DA
:10278000BDFC002001F0BAFC842001F0B7FC002061
:1027900001F0B4FC932001F0B1FC002001F0AEFC8C
:1027A000A22001F0ABFC002001F0A8FCB32001F056
:1027B000A5FC002001F0A2FCBE2001F09FFC00203F
:1027C00001F09CFCC42001F099FC002001F096FC73
:1027D000CD2001F093FC002001F090FCD32001F00B
:1027E0008DFC002001F08AFCDD2001F087FC002038
:1027F00001F084FCF32001F081FC002001F07EFC5C
:10280000E52001F087FC002001F078FC002001F0B9
:1028100075FC002001F072FC002001F06FFC02202A
:1028200001F06CFC002001F069FC292001F066FC3D
:10283000002001F063FC3C2001F060FC002001F06E
:102840005DFC4B2001F05AFC002001F057FC5D209C
:1028500001F054FC002001F051FC742001F04EFC0A
:10286000002001F04BFC842001F048FC002001F026
:1028700045FC932001F042FC002001F03FFCA22027
:1028800001F03CFC002001F039FCB32001F036FCE3
:10289000002001F033FCBE2001F030FC002001F0EC
:1028A0002DFCC42001F02AFC002001F027FCCD20E3
:1028B00001F024FC002001F021FCD32001F01EFCDB
:1028C000002001F01BFCDC2001F018FC002001F0CE
:1028D00015FCF32001F012FC002001F00FFCE620B3
:1028E00001F018FC112001F009FC002001F006FCA9
:1028F000342001F003FC002001F000FC562001F020
:10290000FDFB002001F0FAFB762001F0F7FB002030
:1029100001F0F4FB772001F0F1FB002001F0EEFB69
:10292000662001F0EBFB002001F0E8FB882001F0BD
:10293000E5FB002001F0E2FB992001F0DFFB002025
:1029400001F0DCFBBB2001F0D9FB002001F0D6FB3D
:10295000992001F0D3FB002001F0D0FB662001F0AC
:10296000CDFB002001F0CAFB552001F0C7FB002081
:1029700001F0C4FB552001F0C1FB002001F0BEFBBB
:10298000452001F0BBFB002001F0B8FB432001F023
:10299000B5FB002001F0B2FB442001F0AFFB0020AA
:1029A00001F0ACFBE72001F0B5FB322001F0A6FB03
:1029B000002001F0A3FB552001F0A0FB002001F056
:1029C0009DFB762001F09AFB002001F097FB66202A
:1029D00001F094FB002001F091FB672001F08EFBD9
:1029E000002001F08BFB672001F088FB002001F044
:1029F00085FB872001F082FB002001F07FFB9920FE
:102A000001F07CFB002001F079FBBB2001F076FB9C
:102A1000002001F073FB992001F070FB002001F011
:102A20006DFB772001F06AFB002001F067FB44207A
:102A300001F064FB002001F061FB562001F05EFB19
:102A4000002001F05BFB232001F058FB002001F087
:102A500055FB332001F052FB002001F04FFB4520D5
:102A600001F04CFB002001F049FBE82001F052FB93
:102A7000002001F043FB002001F040FB992001F011
:102A80003DFB002001F03AFB872001F037FB0020DE
:102A900001F034FB882001F031FB002001F02EFB17
:102AA000772001F02BFB002001F028FB662001F0CD
:102AB00025FB002001F022FB882001F01FFB0020F5
:102AC00001F01CFBAA2001F019FB002001F016FB0D
:102AD000BB2001F013FB002001F010FB992001F056
:102AE0000DFB002001F00AFB662001F007FB00202F
:102AF00001F004FB552001F001FB002001F0FEFA7B
:102B0000552001F0FBFA002001F0F8FA442001F012
:102B1000F5FA002001F0F2FA442001F0EFFA00206B
:102B200001F0ECFA552001F0E9FA002001F0E6FA94
:102B3000E92001F0EFFAAA2001F0E0FA002001F00C
:102B4000DDFA002001F0DAFA002001F0D7FA0020C7
:102B500001F0E0FAAA2001F0D1FACF2001F0DAFA70
:102B6000002001F0CBFA002001F0C8FA002001F0AB
:102B7000C5FA002001F0C2FA002001F0BFFA0020DF
:102B800001F0BCFA002001F0B9FA002001F0B6FA19
:102B9000002001F0B3FA002001F0B0FA002001F0AB
:102BA000ADFA002001F0AAFA002001F0A7FA0020F7
:102BB00001F0A4FA002001F0A1FA002001F09EFA31
:102BC000002001F09BFAF02001F0A4FA002001F0AF
:102BD00095FA502001F092FA002001F08FFA0020BF
:102BE00001F08CFA002001F089FAF32001F092FA4A
:102BF000002001F083FAF92001F08CFA062001F0A0
:102C00007DFA102001F07AFA292001F077FA0020ED
:102C100001F074FA3A2001F07DFA552001F06EFAC5
:102C2000112001F077FA642002F018FE292001F04B
:102C300071FA352001F06EFA002001F05FFA5120A0
:102C400001F068FAFF2001F059FA532001F062FA0E
:102C50002C2001F053FA552001F05CFA822001F09B
:102C60004DFA2C2001F056FAFDE3FE48808845F22B
:102C700010518842F8D155214FF4704001F060FAAC
:102C8000AA214FF2010001F05BFA52214FF202003B
:102C900001F056FA08214FF2030001F051FA012128
:102CA0004FF2040001F04CFA0D214FF4304001F0D6
:102CB00047FA0D214BF2010001F042FA0D214BF2CF
:102CC000020001F03DFA34214FF4364001F038FAA9
:102CD00034214BF2016001F033FA34214BF20260EF
:102CE00001F02EFA0D214FF4314001F029FA0D21A7
:102CF0004BF2011001F024FA0D214BF2021001F009
:102D00001FFA34214FF4374001F01AFA34214BF204
:102D1000017001F015FA34214BF2027001F010FA43
:102D200000214FF4324001F00BFA00214BF2012058
:102D300001F006FA00214BF2022001F001FA2421F1
:102D40004FF4384001F0FCF924214BF6010001F06A
:102D5000F7F924214BF6020001F0F2F901214FF4BA
:102D60003F4001F0EDF90F214FF4334001F0E8F955
:102D70000F214BF2013001F0E3F90F214BF2023049
:102D800001F0DEF934214FF4394001F0D9F9342152
:102D90004BF6011001F0D4F934214BF6021001F08A
:102DA000CFF908214FF4354001F0CAF908214BF260
:102DB000015001F0C5F908214BF2025001F0C0F9B1
:102DC00003214FF4424001F0BBF924214FF43A4073
:102DD00001F0B6F924214BF6012001F0B1F92421CC
:102DE0004BF6022001F0ACF900214FF43C4001F019
:102DF000A7F978214BF6014001F0A2F900214BF62A
:102E0000024001F09DF900214FF43D4001F098F996
:102E100078214BF6015001F093F900214BF6025056
:102E200001F08EF900214FF43E4001F089F9642150
:102E30004BF6016001F084F900214FF4514001F09C
:102E40007FF933214DF2011001F07AF900214DF2A2
:102E5000021001F075F934214DF2031001F070F900
:102E600000214DF2041001F06BF93A214DF20510EA
:102E700001F066F900214DF2061001F061F94A21D6
:102E80004DF2071001F05CF900214DF2081001F03D
:102E900057F95C214DF2091001F052F900214DF271
:102EA0000A1001F04DF981214DF20B1001F048F9A3
:102EB00000214DF20C1001F043F9A6214DF20D1046
:102EC00001F03EF900214DF20E1001F039F9E52133
:102ED0004DF20F1001F034F901214DF2101001F004
:102EE0002FF913214DF2111001F02AF901214DF2B1
:102EF000121001F025F954214DF2131001F020F9C0
:102F000001214DF2141001F01BF982214DF2151030
:102F100001F016F901214DF2161001F011F9CA2144
:102F20004DF2171001F00CF902214DF2181001F0CA
:102F300007F900214DF2191001F002F902214DF2BA
:102F40001A1001F0FDF801214DF21B1001F0F8F804
:102F500002214DF21C1001F0F3F834214DF21D1046
:102F600001F0EEF802214DF21E1001F0E9F86721A0
:102F70004DF21F1001F0E4F802214DF2201001F093
:102F8000DFF884214DF2211001F0DAF802214DF230
:102F9000221001F0D5F8A4214DF2231001F0D0F851
:102FA00002214DF2241001F0CBF8B7214DF225108B
:102FB00001F0C6F802214DF2261001F0C1F8CF2130
:102FC0004DF2271001F0BCF802214DF2281001F05B
:102FD000B7F8DE214DF2291001F0B2F802214DF2CE
:102FE0002A1001F0ADF8F2214DF22B1001F0A8F8F3
:102FF00002214DF22C1001F0A3F8FE214DF22D100C
:1030000001F09EF803214DF22E1001F099F81021E5
:103010004DF22F1001F094F803214DF2301001F021
:103020008FF833214DF2311001F08AF803214DF26F
:10303000321001F085F86D214DF2331001F080F867
:1030400000214FF4524001F07BF833214DF2012072
:1030500001F076F800214DF2022001F071F83421E0
:1030600002E00000100100204DF2032001F068F89A
:1030700000214DF2042001F063F83A214DF20520C1
:1030800001F05EF800214DF2062001F059F84A21C6
:103090004DF2072001F054F800214DF2082001F014
:1030A0004FF85C214DF2092001F04AF800214DF261
:1030B0000A2001F045F881214DF20B2001F040F883
:1030C00000214DF20C2001F03BF8A6214DF20D201D
:1030D00001F036F800214DF20E2001F031F8E52123
:1030E0004DF20F2001F02CF801214DF2102001F0DB
:1030F00027F813214DF2112001F022F801214DF2A1
:10310000122001F01DF854214DF2132001F018F89F
:1031100001214DF2142001F013F882214DF2152007
:1031200001F00EF801214DF2162001F009F8CA2134
:103130004DF2172001F004F802214DF2182000F0A2
:10314000FFFF00214DF2192000F0FAFF02214DF29D
:103150001A2000F0F5FF01214DF21B2000F0F0FFD6
:1031600002214DF21C2000F0EBFF34214DF21D2016
:1031700000F0E6FF02214DF21E2000F0E1FF672182
:103180004DF21F2000F0DCFF02214DF2202000F064
:10319000D7FF84214DF2212000F0D2FF02214DF211
:1031A000222000F0CDFFA4214DF2232000F0C8FF23
:1031B00002214DF2242000F0C3FFB7214DF225205B
:1031C00000F0BEFF02214DF2262000F0B9FFCF2112
:1031D0004DF2272000F0B4FF02214DF2282000F02C
:1031E000AFFFDE214DF2292000F0AAFF02214DF2AF
:1031F0002A2000F0A5FFF2214DF22B2000F0A0FFC5
:1032000002214DF22C2000F09BFFFE214DF22D20DB
:1032100000F096FF03214DF22E2000F091FF1021C7
:103220004DF22F2000F08CFF03214DF2302000F0F2
:1032300087FF33214DF2312000F082FF03214DF250
:10324000322000F07DFF6D214DF2332000F078FF39
:1032500000214FF4534000F073FF33214DF2013051
:1032600000F06EFF00214DF2023000F069FF3421C2
:103270004DF2033000F064FF00214DF2043000F005
:103280005FFF3A214DF2053000F05AFF00214DF268
:10329000063000F055FF4A214DF2073000F050FF94
:1032A00000214DF2083000F04BFF5C214DF2093057
:1032B00000F046FF00214DF20A3000F041FF81216D
:1032C0004DF20B3000F03CFF00214DF20C3000F0CD
:1032D00037FFA6214DF20D3000F032FF00214DF2F4
:1032E0000E3000F02DFFE5214DF20F3000F028FFE9
:1032F00001214DF2103000F023FF13214DF2113067
:1033000000F01EFF01214DF2123000F019FF542190
:103310004DF2133000F014FF01214DF2143000F093
:103320000FFF82214DF2153000F00AFF01214DF20E
:10333000163000F005FFCA214DF2173000F000FFF3
:1033400002214DF2183000F0FBFE00214DF2193041
:1033500000F0F6FE02214DF21A3000F0F1FE0121DC
:103360004DF21B3000F0ECFE02214DF21C3000F05B
:10337000E7FE34214DF21D3000F0E2FE02214DF255
:103380001E3000F0DDFE67214DF21F3000F0D8FE48
:1033900002214DF2203000F0D3FE84214DF2213085
:1033A00000F0CEFE02214DF2223000F0C9FEA42131
:1033B0004DF2233000F0C4FE02214DF2243000F023
:1033C000BFFEB7214DF2253000F0BAFE02214DF2CA
:1033D000263000F0B5FECF214DF2273000F0B0FED0
:1033E00002214DF2283000F0ABFEDE214DF22930F3
:1033F00000F0A6FE02214DF22A3000F0A1FEF221DB
:103400004DF22B3000F09CFE02214DF22C3000F0EA
:1034100097FEFE214DF22D3000F092FE03214DF279
:103420002E3000F08DFE10214DF22F3000F088FE7E
:1034300003214DF2303000F083FE33214DF2313064
:1034400000F07EFE03214DF2323000F079FE6D2156
:103450004DF2333000F074FE00214FF4544000F080
:103460006FFE332100E088E34DF2014000F068FE7A
:1034700000214DF2024000F063FE34214DF2034082
:1034800000F05EFE00214DF2044000F059FE3A21AA
:103490004DF2054000F054FE00214DF2064000F0D0
:1034A0004FFE4A214DF2074000F04AFE00214DF246
:1034B000084000F045FE5C214DF2094000F040FE5E
:1034C00000214DF20A4000F03BFE81214DF20B40FD
:1034D00000F036FE00214DF20C4000F031FEA62136
:1034E0004DF20D4000F02CFE00214DF20E4000F098
:1034F00027FEE5214DF20F4000F022FE01214DF2A2
:10350000104000F01DFE13214DF2114000F018FE96
:1035100001214DF2124000F013FE54214DF21340F0
:1035200000F00EFE01214DF2144000F009FE822150
:103530004DF2154000F004FE01214DF2164000F05E
:10354000FFFDCA214DF2174000F0FAFD02214DF2B5
:10355000184000F0F5FD00214DF2194000F0F0FD9B
:1035600002214DF21A4000F0EBFD01214DF21B400B
:1035700000F0E6FD02214DF21C4000F0E1FD342197
:103580004DF21D4000F0DCFD02214DF21E4000F026
:10359000D7FD67214DF21F4000F0D2FD02214DF210
:1035A000204000F0CDFD84214DF2214000F0C8FD07
:1035B00002214DF2224000F0C3FDA4214DF2234030
:1035C00000F0BEFD02214DF2244000F0B9FDB7210C
:1035D0004DF2254000F0B4FD02214DF2264000F0EE
:1035E000AFFDCF214DF2274000F0AAFD02214DF2A0
:1035F000284000F0A5FDDE214DF2294000F0A0FD9D
:1036000002214DF22A4000F09BFDF2214DF22B40A9
:1036100000F096FD02214DF22C4000F091FDFE21BC
:103620004DF22D4000F08CFD03214DF22E4000F0B4
:1036300087FD10214DF22F4000F082FD03214DF255
:10364000304000F07DFD33214DF2314000F078FD37
:1036500003214DF2324000F073FD6D214DF23340F5
:1036600000F06EFD00214FF4554000F069FD33215C
:103670004DF2015000F064FD00214DF2025000F0C7
:103680005FFD34214DF2035000F05AFD00214DF250
:10369000045000F055FD3A214DF2055000F050FD68
:1036A00000214DF2065000F04BFD4A214DF207502B
:1036B00000F046FD00214DF2085000F041FD5C2174
:1036C0004DF2095000F03CFD00214DF20A5000F08F
:1036D00037FD81214DF20B5000F032FD00214DF2FB
:1036E0000C5000F02DFDA6214DF20D5000F028FDEC
:1036F00000214DF20E5000F023FDE5214DF20F5058
:1037000000F01EFD01214DF2105000F019FD1321B3
:103710004DF2115000F014FD01214DF2125000F055
:103720000FFD54214DF2135000F00AFD01214DF21E
:10373000145000F005FD82214DF2155000F000FDFF
:1037400001214DF2165000F0FBFCCA214DF217503A
:1037500000F0F6FC02214DF2185000F0F1FC0021BF
:103760004DF2195000F0ECFC02214DF21A5000F01D
:10377000E7FC01214DF21B5000F0E2FC02214DF26A
:103780001C5000F0DDFC34214DF21D5000F0D8FC3F
:1037900002214DF21E5000F0D3FC67214DF21F5064
:1037A00000F0CEFC02214DF2205000F0C9FC842133
:1037B0004DF2215000F0C4FC02214DF2225000F0E5
:1037C000BFFCA4214DF2235000F0BAFC02214DF2BF
:1037D000245000F0B5FCB7214DF2255000F0B0FCAC
:1037E00002214DF2265000F0ABFCCF214DF22750C4
:1037F00000F0A6FC02214DF2285000F0A1FCDE21D1
:103800004DF2295000F09CFC02214DF22A5000F0AC
:1038100097FCF2214DF22B5000F092FC02214DF268
:103820002C5000F08DFCFE214DF22D5000F088FC54
:1038300003214DF22E5000F083FC10214DF22F5049
:1038400000F07EFC03214DF2305000F079FC332172
:103850004DF2315000F074FC03214DF2325000F073
:103860006FFC6D214DF2335000F06AFC00214FF4E3
:10387000564000F065FC33214DF2016000F060FC21
:1038800000214DF2026000F05BFC34214DF2036038
:1038900000F056FC00214DF2046000F051FC3A218A
:1038A0004DF2056000F04CFC00214DF2066000F086
:1038B00047FC4A214DF2076000F042FC00214DF226
:1038C000086000F03DFC5C214DF2096000F038FC1E
:1038D00000214DF20A6000F033FC81214DF20B60B3
:1038E00000F02EFC00214DF20C6000F029FCA62116
:1038F0004DF20D6000F024FC00214DF20E6000F04E
:103900001FFCE5214DF20F6000F01AFC01214DF281
:10391000106000F015FC13214DF2116000F010FC56
:1039200001214DF2126000F00BFC54214DF21360A6
:1039300000F006FC01214DF2146000F001FC822130
:103940004DF2156000F0FCFB01214DF2166000F015
:10395000F7FBCA214DF2176000F0F2FB02214DF295
:10396000186000F0EDFB00214DF2196000F0E8FB5B
:1039700002214DF21A6000F0E3FB01214DF21B60C1
:1039800000F0DEFB02214DF21C6000F0D9FB342177
:103990004DF21D6000F0D4FB02214DF21E6000F0DC
:1039A000CFFB67214DF21F6000F0CAFB02214DF2F0
:1039B000206000F0C5FB84214DF2216000F0C0FBC7
:1039C00002214DF2226000F0BBFBA4214DF22360E6
:1039D00000F0B6FB02214DF2246000F0B1FBB721EC
:1039E0004DF2256000F0ACFB02214DF2266000F0A4
:1039F000A7FBCF214DF2276000F0A2FB02214DF280
:103A0000286000F09DFBDE214DF2296000F098FB5C
:103A100002214DF22A6000F093FBF2214DF22B605F
:103A200000F08EFB02214DF22C6000F089FBFE219C
:103A30004DF22D6000F084FB03214DF22E6000F06A
:103A40007FFB10214DF22F6000F07AFB03214DF235
:103A5000306000F075FB33214DF2316000F070FBF7
:103A600003214DF2326000F06BFB6D214DF23360AB
:103A700000F066FB55214FF4704000F061FBAA2175
:103A80004FF2010000F05CFB52214FF2020000F007
:103A900057FB08214FF2030000F052FB00214FF2C8
:103AA000040000F04DFBCC214FF4314000F048FB06
:103AB00000214BF2011000F043FB05214FF436408A
:103AC00000F03EFB70214FF4374000F039FB7021CD
:103AD0004BF2017000F034FB01214FF4384000F04C
:103AE0002FFB03214BF6010000F02AFB03214BF6CC
:103AF000020000F025FB03214BF6030000F020FB41
:103B000002214FF43C4000F01BFB00214BF601402A
:103B100000F016FB00214BF6024000F011FBD02113
:103B20004FF4494000F00CFB02214CF6011000F06C
:103B300007FB50214CF6021000F002FB50214CF61E
:103B4000031000F0FDFA50214CF6041000F0F8FAD2
:103B500000214FF4545000F0F3FA55214FF468500F
:103B600000F0EEFA4FF4885000F0D4FA782001F01B
:103B700091FE4FF4245000F0CDFA2848808847F297
:103B80009671884211D02548808847F28971884211
:103B90000BD02248808845F21031884205D01F485A
:103BA000808845F2105188422CD11D48006820F0D1
:103BB0000F004FF02041C1F81C010846D0F81C014D
:103BC00020F47060C1F81C010846D0F81C0140F0D8
:103BD0000300C1F81C011148808847F289718842AE
:103BE00008D10F48006840F480604FF02041C1F8D0
:103BF0001C0107E00A48006840F400704FF02041C3
:103C0000C1F81C010020FDF725FB012005490860D3
:103C10004FF6FF70FDF7F8FA1CBD00001001002000
:103C20001C0100A0B082414210B50246012000E014
:103C300050430B1EA1F10104E1B2F9D110BD000007
:103C400008B5034800880090BDF8000008BD0000DA
:103C500000000860F0B50546002400277C48807904
:103C6000012818D1082D15D2DFE805F00406080A4E
:103C70000C0E101206250DE007250BE0042509E0C7
:103C8000052507E0012505E0002503E0032501E007
:103C9000022500BF00BF082D1CD2DFE805F0040696
:103CA000090C0F12151800BF14E044F0800411E055
:103CB00044F040040EE044F0C0040BE044F0200463
:103CC00008E044F0600405E044F0A00402E044F0A1
:103CD000E00400BF00BF5E48808845F21051884272
:103CE00002D14FF4585700E036275948808847F2F0
:103CF0009671884201D144F008042146384600F00C
:103D00001FFA04F0200068B15148008850494988E2
:103D1000884214DA4E48068840884D490880084693
:103D200046800CE04A48008849494988884206DDB7
:103D300047480688408846490880084646804448E7
:103D4000808845F21051884252D14149488900F09B
:103D5000E1F9002000F0D2F93D494989491C88B2B7
:103D600000F0D8F9002000F0C9F939494989891CC7
:103D700088B200F0CFF936490988491EC1F30F20F7
:103D800000F0BCF932494989C91C88B200F0C2F977
:103D90002F490978491EC8B200F0B0F92C4988892A
:103DA00000F0B8F9002000F0A9F929498989491CD7
:103DB00088B200F0AFF9002000F0A0F92449898909
:103DC000891C88B200F0A6F921494988491EC1F32F
:103DD0000F2000F093F91E498989C91C88B200F0B0
:103DE00099F91B498978491EC8B200F087F92DE07E
:103DF0001749488900F08EF9002000F07FF9002073
:103E000000F07CF912490988491EC1F30F2000F027
:103E100075F90F490978491EC8B200F06FF90C49CD
:103E2000888900F077F9002000F068F9002000F0A0
:103E300065F907494988491EC1F30F2000F05EF972
:103E400003498978491EC8B200F058F9F0BD000056
:103E50001001002010B502460C461E48808845F22D
:103E60001051884220D11B49488900F053F91012A3
:103E700000F044F917494989491C88B200F04AF911
:103E8000D0B200F03BF91349888900F043F92012C1
:103E900000F034F90F498989491C88B200F03AF9D9
:103EA000E0B200F02BF913E00A49488900F032F93A
:103EB000101200F023F9D0B200F020F905498889EA
:103EC00000F028F9201200F019F9E0B200F016F91C
:103ED00010BD0000100100202DE9F84F80460E466D
:103EE00017461C46B3462046E31704EB5373DB101A
:103EF00021464FEAE47C04EB5C7C4FEAEC0CA4EB3B
:103F0000CC0CBCF1000F02D04FF0010C01E04FF0DF
:103F1000000C6344224604EBD27C4FEA6C0C03FB9A
:103F20000CF3DBB20093A7F12000C7B2002556E0E6
:103F30000C2C07D107EB47002B4901EB800010F850
:103F4000059013E0102C05D1284800EB071010F85D
:103F500005900BE0182C07D107EBC700244901EBB3
:103F6000800010F8059001E0BDE8F88F4FF0000ADE
:103F70002FE009F0800030B11E48028831464046EB
:103F8000FDF7ACFA07E00A9828B91B4802883146C9
:103F90004046FDF7A3FA4FEA49604FEA1069701CEA
:103FA00086B216484088B04200DCDDE7A6EB0B0085
:103FB000A0420AD15E4608F101001FFA80F80F48BE
:103FC0000088404500DCCFE706E00AF1010000F080
:103FD000FF0ABAF1080FCCDB00BF681CC5B200981D
:103FE0008542A5DB00BFBFE78E63000802680008BA
:103FF000F26D00080A0000200C00002010010020D3
:104000002DE9FF4F81B0074691461E460E9D4FF0A9
:10401000000A002439E0301B401EC1B20A20FFF71D
:1040200003FEB9FBF0F00A21B0FBF1F201FB12082C
:10403000BAF1000F16D1701EA04213DDB8F1000FC7
:104040000ED10020AB4605EBDB71491001FB04717A
:10405000009088B22B4620220299FFF73DFF12E024
:104060004FF0010A0020AB4605EBDB71491001FB64
:104070000471009088B208F13001CAB22B4602994F
:10408000FFF72AFF00BF601CC4B2B442C3DB05B017
:10409000BDE8F08F2DE9F84704460D469046994655
:1040A000DDE9096704F0FF0A08EB04001FFA80F855
:1040B00009EB05001FFA80F916E0444502DB54467F
:1040C000A81985B24D4500DB14E0002000903A7835
:1040D000334629462046FFF7FFFE304606EBD071F7
:1040E00004EB61018CB27F1C38787E2802DC3878C2
:1040F0002028E2DA00BFBDE8F887000001B5BDF86E
:1041000000000090BDF800000149088008BD0000D3
:104110000000086001B5BDF800000090BDF8000087
:104120000149088008BD0000FEFF076002480089C1
:10413000024908807047000010010020FEFF076060
:10414000024A1080921C118070470000FEFF076039
:104150001CB50B48006840F00100094908600120C7
:10416000032100230246CDE9001006210548FCF793
:104170004BFC0120044908600449C1F888021CBDB9
:1041800030380240000002408402404200004042B9
:104190001CB54FF6FF70FDF737F81F20094908805E
:1041A00009A01021CDE9001008490988183988B202
:1041B0001023C8220021FFF76DFF4FF4784001491A
:1041C00008801CBD0A00002052535400100100203A
:1041D0002DE9F0410746884614461D46284600F062
:1041E00033F8C5F1040007FA00F60F20284100EA71
:1041F0000800064306F00F06E21704EBD2625211E4
:10420000920002F1E022D2F800212146E31704EBEC
:10421000D3635B11A4EB431C012303FA0CF31A4391
:104220002046E31704EBD3635B119B0003F1E0230B
:10423000C3F800210348005D40EA06100149085513
:10424000BDE8F08100E400E00146072323EA010213
:104250001202054B18684FF6FF031840034B184332
:104260001043014B186070470CED00E00000FA05A8
:104270004A0A52020243014B1A60704708ED00E0FF
:104280001CB52848006840F002002649086008462E
:10429000006840F0040008600846006840F0200014
:1042A0000860012000210B460A46CDE900100621D6
:1042B0001D48FCF7A9FB0120032100230246CDE99C
:1042C000001001461848FCF79FFB01200321002342
:1042D0000246CDE9001041031448FCF795FB01208C
:1042E000032100230246CDE90010C1021048FCF76B
:1042F0008BFB1049A1F10A0001F01CF8FCF7E0F972
:1043000000F07EFE08B100201CBD4FF6FF70FCF7E8
:104310007BFF00F09FF901F085F800F071FE0120AD
:10432000F2E700003038024000040240000802407A
:104330000014024026000020F0B504460D46164643
:104340001F461448006840F0010012490860002030
:104350001049083108600F4800680F4908400D49AE
:1043600008600E48091D0860081F006820F48020BE
:10437000091F0860002007490C3108603B4632469F
:104380002946204600F00CF800210846FFF770FF90
:10439000F0BD000000380240FFFFF6FE10300024A0
:1043A000F0B504460D46002100203D4E366846F427
:1043B00080363B4F3E6001E04E1CB1B2384E36684D
:1043C00006F400361EB941F6FF76B142F4DB41F641
:1043D000FF76B14201D1012060E0314E40363668AF
:1043E00046F080562E4F40373E602E4E366846F4DB
:1043F00040462C4F3E602A4E0836366846F4144636
:10440000274F08373E60264E366826F08076244FC8
:104410003E6045EA84160127C7EB520746EA074685
:1044200046EA036646F480061D4F3F1D3E603E1F70
:10443000366846F080763F1F3E6000BF184E3668F3
:1044400006F00076002EF9D0174E366846F48076D6
:10445000154F3E603E46366846F400763E603E4666
:10446000366846F480663E603E46366846F005068D
:104470003E600B4E0836366826F00306084F0837B4
:104480003E603E46366846F002063E6000BF044E7F
:104490000836366806F00C06082EF8D1F0BD00008C
:1044A0000038024000700040003C02402DE9FC5FF3
:1044B00004460D4617461E46DDE90EABDDE90C89C4
:1044C0004FF478405749088057A01021CDE90010DB
:1044D000564843880288A0212820FFF7DBFD54A01E
:1044E0001021CDE90010514843880288A02178208E
:1044F000FFF7D0FD4FA01021CDE900104B484388B5
:104500000288B4212820FFF7C5FD4BA01021CDE97A
:104510000010464843880288B4217820FFF7BAFD8E
:1045200046A01021CDE90010404843880288C821E8
:104530002820FFF7AFFD42A01021CDE900103B4835
:1045400043880288C8217820FFF7A4FD3DA01021F0
:10455000CDE90010354843880288DC212820FFF788
:1045600099FD39A01021CDE9001030484388028818
:10457000DC217820FFF78EFD34A01021CDE900105A
:104580002A4843880288F0212820FFF783FD102065
:1045900004232246A02100904020FFF731FD102087
:1045A00004232A46A02100909020FFF729FD102027
:1045B00004233A46B42100904020FFF721FD10204B
:1045C00004233246B42100909020FFF719FD1020FB
:1045D00004234246C82100904020FFF711FD10201F
:1045E00004234A46C82100909020FFF709FD1020BF
:1045F00004235246DC2100904020FFF701FD1020EB
:1046000004235A46DC2100909020FFF7F9FC10208B
:1046100003230090F0216020109AFFF7F1FCBDE821
:10462000FC9F00000A00002078313A0010010020B1
:1046300079313A0078323A0079323A0078333A00E8
:1046400079333A0078343A0079343A00666163206D
:1046500069733A0000B597B0002012900B90129049
:104660001F21FE4801804FF6FF71FD48018008467A
:10467000FCF7CAFD4FF47841F84801804FF6FF700F
:10468000FCF7C2FD0020F5490880F64800681021BB
:104690006423A022CDE9001028210846FFF7FAFC88
:1046A0004FF478421421084600F072FC0020EE49D5
:1046B00081F820009FEDED0A084680ED090A47E2E7
:1046C000E94840680A9001200A998847E64890F82E
:1046D000200000F0C00040286FD100200B90E2487D
:1046E00090F8200020F04000DF4981F820000846C3
:1046F000818913AA129822F82010DB48C18A1298E7
:1047000002EB800041801298401CC0B212901298B7
:10471000012806D0022815D0032829D0042810D15A
:1047200041E04FF6FF721421084600F031FCD048FA
:104730000088143880B24FF4784214210A9000F0B7
:1047400027FCF2E3CA480088143880B24FF6FF72A3
:1047500014210A9000F01CFCC5484088143880B22F
:104760004FF4784201460A90142000F011FCDCE37B
:10477000BF484088143880B24FF6FF7201460A9055
:10478000142000F005FCBA484088143880B20A9022
:10479000B7480088143880B24FF4784209900A99DB
:1047A00000F0F6FBC1E3BDF84C10BDF85000081A4C
:1047B0000A90002802DB0A9802E0B7E30A98404218
:1047C0000F90BDF84E1013A8C088081A0A90002850
:1047D00001DB0A9801E00A9840420E900F9840438E
:1047E0000F900E9840430E90DDE90E10084405909E
:1047F00001F003FBCDE906019DED060B00F036FF4D
:104800008DED080B9DED080B51EC100B01F0C8FA73
:1048100080B21190BDF85400BDF85810401A0A90AB
:10482000002801DB0A9801E00A9840420F9013A883
:104830004189C089081A0A90002801DB0A9801E022
:104840000A9840420E900F9840430F900E984043B4
:104850000E90DDE90E100844059001F0CEFACDE986
:1048600006019DED060B00F001FF8DED080B9DED9F
:10487000080B51EC100B01F093FA80B210909DEDF3
:10488000110AF8EE400A9DED100AB8EE401A80EECB
:10489000810A8DED0A0A0A9801F0FEFCCDE90C01AF
:1048A0009FED740B53EC102B9DED0C0B51EC100B8A
:1048B00001F0B6FA0ED39FED710B53EC102B9DED6A
:1048C0000C0B51EC100B01F0E5FB03D3119808B170
:1048D0001098E8BB0020129065484088143880B2D8
:1048E0000A9063480088143880B24FF6FF7209902E
:1048F0000A9900F04DFB4FF478421421084600F06D
:1049000047FB9FED600B53EC102B9DED0C0B51EC16
:10491000100B01F0C1FACDE908019DED080B51EC37
:10492000100B01F03DFA80B213A90A90C989BDF8B5
:10493000582013AB5B89CDE90132CDE90310BDF8F6
:104940005400009013A8C0880990BDF8500000E002
:104950000BE00890BDF84E000790BDF84C000690A3
:1049600007A90EC9FFF7A2FDEFE2BDF84C10BDF894
:104970005400081A0A90002801DB0A9801E00A98FE
:1049800040420F90BDF84E1013A84089081A0A90B3
:10499000002801DB0A9801E00A9840420E900F9827
:1049A00040430F900E9840430E90DDE90E100844EE
:1049B000059001F022FACDE906019DED060B00F00D
:1049C00055FE8DED080B9DED080B51EC100B01F021
:1049D000E7F980B21190BDF85010BDF85800081AE0
:1049E0000A90002801DB0A9801E00A9840420F90E3
:1049F00013A8C188C089081A0A90002801DB0A9808
:104A000001E00A9840420E900F9840430F900E9894
:104A100040430E90DDE90E100844059001F0EDF9D9
:104A2000CDE906019DED060B00F020FE8DED080B93
:104A30009DED080B51EC100B01F0B2F980B2109013
:104A40009DED110AF8EE400A9DED100AB8EE401AED
:104A500080EE810A8DED0A0A0A9817E00A0000200C
:104A60000C000020487C000810000020000000001E
:104A700010010020666666666666EE3FCDCCCCCC43
:104A8000CCCCF03F000000000000594001F004FCD5
:104A9000CDE90C011FED090B53EC102B9DED0C0B18
:104AA00051EC100B01F0BCF90AD31FED0C0B53ECC9
:104AB000102B9DED0C0B51EC100B01F0EBFA48D2D2
:104AC00000201290FE484088143880B20A90FC48BA
:104AD0000088143880B24FF6FF7209900A9900F0EE
:104AE00057FA4FF478421421084600F051FA1FEDAE
:104AF0001B0B53EC102B9DED0C0B51EC100B01F02C
:104B0000CBF9CDE908019DED080B51EC100B01F03C
:104B100047F980B213A90A90C989BDF8582013AB90
:104B20005B89CDE90132CDE90310BDF85400009056
:104B300013A8C0880990BDF850000890BDF84E0039
:104B40000790BDF84C00069007A90EC9FFF7AEFC10
:104B5000FBE1BDF85000BDF85410401A0A9000283F
:104B600001DB0A9801E00A9840420F9013A8C1881F
:104B70004089081A0A90002801DB0A9801E00A9887
:104B800040420E900F9840430F900E9840430E9075
:104B9000DDE90E100844059001F02FF9CDE906017A
:104BA0009DED060B00F062FD8DED080B9DED080BF1
:104BB00051EC100B01F0F4F880B21190BDF84C00EC
:104BC000BDF85810401A0A90002801DB0A9801E04D
:104BD0000A9840420F90BDF84E1013A8C089081AD9
:104BE0000A90002801DB0A9801E00A9840420E90E2
:104BF0000F9840430F900E9840430E90DDE90E1041
:104C00000844059001F0F9F8CDE906019DED060B89
:104C100000F02CFD8DED080B9DED080B51EC100BF9
:104C200001F0BEF880B210909DED110AF8EE400A36
:104C30009DED100AB8EE401A80EE810A8DED0A0A49
:104C40000A9801F029FBCDE90C011FED760B53EC1E
:104C5000102B9DED0C0B51EC100B01F0E1F80AD379
:104C60001FED7A0B53EC102B9DED0C0B51EC100B40
:104C700001F010FA49D2002012909148408814386F
:104C800080B20A908E480088143880B24FF6FF72C6
:104C900009900A9900F07CF94FF4784214210846F3
:104CA00000F076F91FED890B53EC102B9DED0C0BEA
:104CB00051EC100B01F0F0F8CDE908019DED080B67
:104CC00051EC100B01F06CF880B201460A9013A869
:104CD000C289BDF8580013AB5B89CDE90130CDE93D
:104CE0000321BDF85400009013A8C0880990BDF8B6
:104CF00050000890BDF84E000790BDF84C0006909B
:104D000007A90EC9FFF7D2FB1FE1BDF85000BDF89F
:104D10004C10401A00EE100AF8EEC00A68480088ED
:104D2000283800EE100AB8EEC00A80EE201A654856
:104D300080ED091ABDF85000BDF84C10084400EE93
:104D4000100AF8EEC00A5E48008800EE100AB8EEBD
:104D5000400A5C4890ED091A01EE600AF0EE000A84
:104D600080EE201ABDEEC10A10EE100A01B25548BD
:104D7000818513A84089BDF84E10401A00EE100A34
:104D8000F8EEC00A4E484088283800EE100AB8EE07
:104D9000C00A80EE201A4B4880ED0A1A13A84089F9
:104DA000BDF84E10084400EE100AF8EEC00A444860
:104DB000408800EE100AB8EE400A424890ED0A1A08
:104DC00001EE600AF0EE000A80EE201ABDEEC10A84
:104DD00010EE100A00B23B49C885084690ED090A5A
:104DE000BDEEC00A8DED090A0998002801DB09987B
:104DF00001E00998404202280FDC324890ED0A0A8F
:104E0000BDEEC00A8DED0A0A0A98002801DB0A9857
:104E100001E00A984042022842DD00201290284812
:104E20004088143880B20A9025480088143880B22F
:104E30004FF6FF7209900A9900F0AAF84FF47842F1
:104E40001421084600F0A4F81FA01021CDE900109D
:104E50001B4840880A901A480088099002461A2187
:104E600028200A9BFFF716F9164890F8300008B979
:104E7000012000E00020134981F83000084690F836
:104E8000300030B1902015490870D02114480170CD
:104E900005E0D0211148017090201149087054E0BC
:104EA0001F21104801804FF6FF70FCF7ADF90EA0EE
:104EB0001021CDE90010024840880A9000481FE008
:104EC00010010020100000205450204E6565642021
:104ED000726561646A7573742100000044000020EB
:104EE000450000200A000020546F7563682053635A
:104EF0007265656E2041646A757374204F4B2100A2
:104F00000088099002466E2123200A9BFFF7C2F811
:104F10004FF47A7000F0A2FC00F084FA4FF6FF70B4
:104F2000FCF772F917B000BDFFE700BF0A2000F0E0
:104F300095FC0B98401C80B20B900B98B0F57A7FD3
:104F400002DD00F05DF802E000BFFFF7B9BB00BF73
:104F500000BFE7E770B504460D4616460B480680CD
:104F600029462046FCF74AFA611C88B22946FCF71C
:104F700045FA681C81B22046FCF740FA6A1C91B2DF
:104F8000621C90B2FCF73AFA70BD00000A000020E3
:104F900070B504460D4616461848068004F10D010A
:104FA0008AB2193988B22B462946FCF7CFF905F1A8
:104FB0000D0083B2193881B222462046FCF7C6F9AB
:104FC0006A1C91B2621C90B2FCF718FA6A1C91B28A
:104FD000621E90B2FCF712FA6A1E91B2621C90B285
:104FE000FCF70CFA6A1E91B2621E90B2FCF706FA48
:104FF000062229462046FCF725FA70BD0A0000204B
:1050000010B53520FBF776FB04460A2C46D1042167
:105010002820FBF759FB044600EE104AB8EEC00A00
:10502000DFED1F0A80EE201A1E4880ED091A0421C8
:105030002C20FBF749FB044600EE104AB8EEC00AEC
:10504000DFED170A80EE201A164880ED0A1A0221B9
:105050003020FBF739FB00B212498885022132204B
:10506000FBF732FB00B20F49C8853420FBF742FB47
:105070000C4981F83000084690F8300030B190209B
:1050800009490870D0200949087005E0D020064978
:105090000870902005490870012010BD0020FCE731
:1050A00020BCBE4C10000020440000204500002021
:1050B0001CB55948808847F28971884218D1FBF79E
:1050C00013FD564856494860084690F8300040F0B5
:1050D000800081F83000084690F830004E49897908
:1050E00001F0010108434E4981F8300000201CBD49
:1050F0004948808845F21051884218D1FBF7F4FCEA
:10510000464847494860084690F8300040F0800023
:1051100081F83000084690F830003F49897901F065
:10512000010108433E4981F830000020DFE73A489A
:10513000808847F29671884205D03748808845F2CA
:105140001031884220D1FBF7CFFCB0B93348344945
:105150004860084690F8300040F0800081F8300048
:10516000084690F830002C49897901F00101084384
:105170002B4981F830000020B9E7FFF781F808B922
:105180000020B4E70120B2E72648006840F00200A2
:1051900024490860012000210B460A46CDE9001091
:1051A0004FF440512048FBF72FFC0120032100233E
:1051B0000246CDE9001001461B48FBF725FC012003
:1051C000032100230246CDE9001001031648FBF736
:1051D0001BFC0120032100230246CDE900108103BE
:1051E0001148FBF711FC0E491631A1F10A0000F03D
:1051F000A1F8FBF765FAFFF703FF08B1002076E797
:105200004FF6FF70FCF700F8FFF724FA00F00AF9F8
:10521000FFF7F6FE01206AE710010020410C0008AC
:1052200010000020303802400004024070B50646ED
:105230000025002400201F4908601F49C1F8B00262
:105240001C49091F0860304600F0AAF9062000F04A
:1052500021FB00201849C1F8BC02012000F01AFB14
:1052600001201449086000F015FB00201249C1F824
:10527000BC0200BF15E04FF6FF7000EA44040020B6
:105280000C490860012000F005FB01200A49C1F823
:10529000BC0208489038006808B1601C84B2681CE1
:1052A000C5B2102DE7DB241101200249091F086057
:1052B000204670BDBC824042008040422DE9FE4342
:1052C00080460027002406E04046FFF7AFFF2DF898
:1052D0001400601C84B2052CF6DB002416E0601C70
:1052E00085B20FE03DF814003DF81510884207DD47
:1052F0003DF814603DF815002DF814002DF81560E8
:10530000681C85B2052DEDDB601C84B2042CE6DB45
:105310000027012405E03DF81400384487B2601CE2
:1053200084B2042CF7DB032097FBF0F086B2304602
:10533000BDE8FE832DE9F04104460D46074800789C
:10534000FFF7BCFF064606480078FFF7B7FF0746A1
:1053500026802F800120BDE8F0810000440000205D
:10536000450000207FB504460D4602A903A8FFF7BB
:10537000E1FF064616B9002004B070BD694601A8D9
:10538000FFF7D8FF06460EB90020F5E7BDF8040088
:10539000BDF80C10884206DCBDF80C10BDF8040006
:1053A000323081420CDBBDF80C00BDF8041088429D
:1053B00036DCBDF80410BDF80C00323081422FDA23
:1053C000BDF80000BDF80810884206DCBDF80810E2
:1053D000BDF80000323081420CDBBDF80800BDF89A
:1053E000001088421CDCBDF80010BDF80800323007
:1053F000814215DABDF80C10BDF80420881800EBC6
:10540000D071C1F34F012180BDF80810BDF8002014
:10541000881800EBD071C1F34F0129800120ABE760
:105420000020A9E710B51D4890ED090ADFED1C0A20
:1054300020EE200ABDEEC00A10EE104A04222146DA
:105440002820FBF783F9154890ED0A0ADFED140ACE
:1054500020EE200ABDEEC00A10EE104A04222146BA
:105460002C20FBF773F90D48B0F92C1002223020E4
:10547000FBF76CF90948B0F92E1002223220FBF735
:1054800065F9064890F830103420FBF774F90A24C7
:1054900021463520FBF76FF910BD000010000020F9
:1054A00020BCBE4C10B504463B48006800284ED1D5
:1054B0002CB13A49A1F10A00FFF754FF35E0374912
:1054C000A1F10A00FFF74EFF78B334481638B0F95F
:1054D0002C0000EE100AB8EEC00A3048163890EDE5
:1054E000091A808900EE900AF8EE600A01EE200A9F
:1054F000BCEEC00A10EE100A284916398881084609
:10550000B0F92E0000EE100AB8EEC00A084690ED81
:105510000A1AC08A00EE900AF8EE600A01EE200A2C
:10552000BCEEC00A10EE100AC8821C48163890F86B
:10553000200000F0800038BBC0201849163981F8DF
:105540002000084681898182C18AC1831CE01348FA
:10555000163890F8200000F0800050B10F4816383F
:1055600090F8200020F080000C49163981F82000C6
:105570000AE00021094816388182C1834FF6FF7086
:10558000064916398881C8820448163890F82000E8
:1055900000F0800010BD0000348240422600002050
:1055A00070B50446002500BF18E004F0800018B173
:1055B00001200C49086002E000200A4908606006EA
:1055C000040E002007490C310860012000F062F948
:1055D00001200549C1F8BC02681CC5B2082DE4DBF6
:1055E00070BD0000B0824042008040421C490988E2
:1055F00001F0200109B31A498988C8B219490988FC
:1056000001F40041C9B91749098801F4804161B129
:105610000A2803D00021134A118020E0114909888B
:1056200041F400410F4A118019E00D2806D10D49BF
:10563000098841F480410B4A118010E0094909882A
:10564000C1F30D01084A505406490988491C054A0E
:10565000118011460988C72901DD0021118070479A
:1056600000100140080000204800002000B52DED8A
:10567000048BB0EE409AF0EE609A83B051EC190BB7
:1056800000F03EFD41EC180B18EE100A18EE901ACF
:105690008DED008B002818BF0120084320F000404A
:1056A000C0F17F6000F1E040C00F14D019EE101A75
:1056B00019EE900A8DED009B002918BF01210843C7
:1056C00020F00040C0F17F6000F1E040C00F04BF57
:1056D0000120FAF71CFFB0EE480A03B0F0EE680AAA
:1056E000BDEC048B00BD30380A2801D20120704780
:1056F0000020704700BF704788B00024002584E078
:105700004248416800208847002469E03F4890F8FB
:1057100020000121A140084000285AD03B480C300D
:1057200030F814003A490988884257DA3748163069
:1057300030F814003649498888424FDA03A830F817
:1057400024004FF6FF7188420DD130480C3030F8FC
:10575000140003A921F824002C48163030F8140056
:1057600001EB840148802B4830F814000221274EB9
:105770001636CDE9001036F814300A3E36F81420FB
:1057800003AE06EB8406718803AE36F8240000F001
:1057900035F91E480C3030F8140003A921F8240014
:1057A0001A48163030F8140001EB8401488017487D
:1057B0000C3030F8141016480088183881420DDD7E
:1057C0001248163030F81400142807DAFEF7E0FC0F
:1057D00004E04FF6FF7003A921F82400601CC4B256
:1057E000052C93DB052000F039F8681CC5B21420A5
:1057F00095FBF0F100FB115038B90748006808B973
:10580000012000E000200449086079E71000002032
:105810001001002084630008840240424FF0E02120
:10582000096921F004014FF0E0221161C21700EB79
:105830005272C2F3C702074B1A701946097801EB7E
:105840004102C2EBC1114FF6FF7202EAC101024AE6
:1058500011807047000000200200002070B504464F
:105860004FF4077094FBF0F0C6B24FF4077094FB4E
:10587000F0F100FB114085B205E04FF4077000F035
:1058800027F8701EC6B2002EF7D115B1284600F0D9
:105890001FF870BD01460D4A12784A434FF0E023CD
:1058A0005A6100229A6101221A6100BF4FF0E02282
:1058B000106900F001021AB100F48032002AF5D01C
:1058C00000224FF0E0231A619A6170470000002027
:1058D00001460D4A12884A434FF0E0235A610022E4
:1058E0009A6101221A6100BF4FF0E022106900F0B6
:1058F00001021AB100F48032002AF5D000224FF0E4
:10590000E0231A619A6170470200002000BF054A37
:10591000128802F04002002AF9D0C2B2014B9A80EC
:105920007047000000100140F8B505460E461446C9
:105930001F4604B9F8BD2819401E82B233463146CD
:1059400028460097FBF722FE00BFF3E72DE9F05F42
:105950000746884616469A4640F2C32070434FF4E5
:105960007A71B0FBF1F000F1010906FB06F000EBE3
:10597000560B344671040A0CB91B88B25346414693
:10598000FFF7D2FF012535E005FB05F004FB04001D
:1059900058451AD94C4517D96B1E5B041A0C08EBF5
:1059A000040399B27B1B5B1C98B25346FFF7BCFF04
:1059B0006B1E5B041A0CA8EB040399B27B1B5B1CE7
:1059C00098B25346FFF7B0FF641E63041A0C08EB4D
:1059D000050399B23B1B98B25346FFF7A5FF63043A
:1059E0001A0CA8EB050399B23B1B98B25346FFF77C
:1059F0009BFF6D1C4D45C7D9BDE8F09F2DE9FF4FBA
:105A000085B080468946129F002003900290B845D9
:105A100007DB0798B84204DBB94502DB0898B842B7
:105A200002DA09B0BDE8F08F0798A0EB08040898E7
:105A3000A0EB0905CDF80480CDF80090002C02DD24
:105A40004FF0010A06E014B94FF0000A02E04FF0EF
:105A5000FF3A6442002D02DD4FF0010B06E015B95C
:105A60004FF0000B02E04FF0FF3B6D42AC4201DD16
:105A7000264600E02E460020049023E0009A91B2D2
:105A8000019A90B23A46139BFFF760FF03982044B7
:105A900003900298284402900398B04205DD0398D1
:105AA000801B03900198504401900298B04205DD9C
:105AB0000298801B02900098584400900498401C63
:105AC00080B20490711C04988842D7DD00BFA8E71B
:105AD0001CB50723022219214FF4A870FEF72CFCF5
