:020000040800F2
:1000000048050020310200083F02000841020008B4
:1000100043020008450200084702000800000000F3
:10002000000000000000000000000000490200087D
:100030004B020008000000004D0200084F020008BB
:100040005102000851020008510200085102000844
:100050005102000851020008510200085102000834
:100060005102000851020008510200085102000824
:100070005102000851020008510200085102000814
:100080005102000851020008510200085102000804
:1000900051020008510200085102000851020008F4
:1000A00051020008510200085102000851020008E4
:1000B00051020008510200085102000851020008D4
:1000C00051020008510200085102000851020008C4
:1000D0005102000841360008510200085102000890
:1000E00051020008510200085102000851020008A4
:1000F0005102000851020008510200085102000894
:100100005102000851020008510200085102000883
:100110005102000851020008510200085102000873
:100120005102000851020008510200085102000863
:100130005102000851020008510200085102000853
:100140005102000851020008510200085102000843
:100150005102000851020008510200085102000833
:100160005102000851020008510200085102000823
:100170005102000851020008510200085102000813
:10018000510200085102000800F002F800F041F8A6
:100190000AA090E8000C82448344AAF10107DA45E2
:1001A00001D100F036F8AFF2090EBAE80F0013F0F3
:1001B000010F18BFFB1A43F001031847E450000079
:1001C00004510000103A24BF78C878C1FAD8520709
:1001D00024BF30C830C144BF04680C6070470000C1
:1001E0000023002400250026103A28BF78C1FBD840
:1001F000520728BF30C148BF0B607047782900F014
:100200008380002070471FB503F048FC1FBD10B568
:1002100010BD00F0D3F91146FFF7F5FF03F0E0FA47
:1002200000F0F1F903B4FFF7F2FF03BC03F04FFA5B
:100230000B48016841F4700101600A480047FEE77D
:10024000FEE7FEE7FEE7FEE7FEE7FEE7FEE7FEE786
:10025000FEE7000004480549034A054B70470000CB
:1002600088ED00E0890100084801002048050020D1
:1002700048010020704700000FB4044910B503AADC
:10028000029800F085F910BC5DF814FB0400002012
:100290000FB41CB5074B06AA7B446946009005982D
:1002A00000F05DF90020694600F06CF91CBC5DF8B7
:1002B00014FB0000E902000070B50446856900687F
:1002C000C10601D5302600E02026C00707D070BD4A
:1002D000D4E9012130469047206A401C20626D1EFF
:1002E000F6D570BD70B5044685690078C00707D1A2
:1002F00070BDD4E9012120209047206A401C206273
:100300006D1EF6D570BD000070B504460D46214641
:100310001068AFF300802188090502D50F4A7A449E
:1003200002E00E4A7A440E32002104F1240305E073
:1003300000F00F060009965D5E54491C0028F7D1B5
:1003400020780023000704D5702D02D009B10223C4
:1003500011322046BDE8704000F0A2B8444F0000C2
:100360002DE9F05F894604464FF0000ADFF824B11A
:10037000FB44C0F820A02046E168884700287DD0D3
:10038000252806D0D4E901219047206A401C20622C
:10039000F1E700255F462046E168884720280646A9
:1003A00007DB312E05D2B81910F8200C08B105432F
:1003B000F1E7A80701D525F00405C4F81CA0002723
:1003C000C4F818A02A2E09D0304603F079F938B3C2
:1003D00004EB8708303EC8F8186019E059F8041B90
:1003E000204604EB87029161E1688847012F0646A9
:1003F00018D1E069002820DA25F020051DE0D8F8A2
:10040000180000EB800006EB40003038C8F81800F8
:100410002046E1688847064603F052F90028EED1ED
:10042000012F0AD02E2E08D12046E16888477F1C74
:100430000646022F45F02005C4DBA069002803DA38
:10044000404245F00105A061E80701D025F0100504
:10045000A6B1A6F14100192802D8203645F400655E
:100460004A463146204625604D46FFF7C7FE60B13B
:10047000012807D0ED1D25F0070000E007E000F19E
:10048000080978E705F1040975E730467AE7206A3C
:10049000BDE8F09F1A4F00007047704770477047E3
:1004A0002DE9F0470D4699469246044600F124088E
:1004B0000168880604D5E06921F01001216000E0A0
:1004C0000120A84201DD471B00E00027A1697A193D
:1004D00002EB0900081AA0612078C00602D4204669
:1004E000FFF7EAFE002608E0D4E901211AF8060029
:1004F0009047206A401C761C20624E45F4DB207831
:10050000C0060AD52046FFF7D7FE06E0D4E9012150
:1005100030209047206A401C2062381EA7F1010756
:10052000F4DC07E0D4E9012118F805009047206ABF
:10053000401C2062281EA5F10105F3DC2046FFF7D0
:10054000D1FE2078000602D50220BDE8F087012008
:10055000FBE7000001694A1C02610878704700B59A
:100560008FB0CDE901310021059105497944CDE9EC
:10057000031011466846FFF7F3FE0FB000BD000000
:10058000E5FFFFFF0A6802F8010B0A6070470000F0
:10059000074B70B50D467B44FFF7E1FF0446284644
:1005A00000F008F810B14FF0FF3070BD204670BD6C
:1005B0002B320000007B00F080007047754600F091
:1005C0002BF8AE4605006946534620F007008546E5
:1005D00018B020B5FFF73EFEBDE820404FF0000602
:1005E0004FF000074FF000084FF0000B21F007011B
:1005F000AC46ACE8C009ACE8C009ACE8C009ACE85E
:10060000C0098D46704710B50446AFF30080204600
:10061000BDE81040FFF706BE00487047E800002024
:1006200030B5CC1000F1200353F824304C07E50E10
:100630000F24AC40A343CD1000F1200444F8253032
:10064000CC1000F1200353F824304C07E40E02FADA
:1006500004F42343CD1000F1200444F8253030BDCC
:100660002DE9F0470C46DDE90867002100258C469E
:1006700000BF60E04FF0010808FA01F504EA050C3C
:10068000AC4557D1D0F800804FEA410A4FF003093A
:1006900009FA0AF928EA0908C0F80080D0F80080B1
:1006A0004FEA410902FA09F948EA0908C0F800804E
:1006B000012A01D0022A27D1D0F808804FEA410A46
:1006C0004FF0030909FA0AF928EA0908C0F8088076
:1006D000D0F808804FEA410906FA09F948EA090802
:1006E000C0F80880D0F804904FF0010808FA01F82B
:1006F00029EA0809C0F80490D0F8048003FA01F947
:1007000048EA0908C0F80480D0F80C804FEA410A92
:100710004FF0030909FA0AF928EA0908C0F80C8021
:10072000D0F80C804FEA410907FA09F948EA0908AC
:10073000C0F80C80491C10299CD3BDE8F08700004C
:1007400070B5044600260F480588408845430021BF
:10075000084602F00FFD02F02FFE00BF0EE0094830
:10076000808847F28971884205D1201206490880A5
:100770000846048001E004480480761CAE42EED3B3
:1007800070BD0000D80000200000086010B50446CD
:100790003B488471002C37D1F020394908804FF450
:1007A000A07048800846808845F21051884210D1D8
:1007B0004FF43050324908814FF4285048814FF4AB
:1007C0002C5088814FF4F07008804FF448704880B6
:1007D00006E02C202A4908812A2048812B20888184
:1007E0002748808845F21031884205D02448808807
:1007F00047F2967188423ED14FF4A070204908809C
:100800004FF4F070488036E04FF4A0701C49088027
:10081000F02048800846808845F21051884210D167
:100820004FF43050164908814FF4285048814FF456
:100830002C5088814FF4487008804FF4F070488045
:1008400006E02C200E4908812A2048812B2088812F
:100850000B48808845F21031884205D008488088CE
:1008600047F29671884206D14FF4F070044908802F
:100870004FF4A0704880002002F07CFB10BD000007
:10088000D800002030B504460D462848808845F23F
:100890001051884220D12549488902F081FD20125B
:1008A00002F072FD21494989491C88B202F078FDA5
:1008B000E0B202F069FD1D49888902F071FD28123D
:1008C00002F062FD19498989491C88B202F068FD6D
:1008D000E8B202F059FD13E01449488902F060FDC6
:1008E000201202F051FDE0B202F04EFD0F4988895E
:1008F00002F056FD281202F047FDE8B202F044FD76
:100900000A4800890A4908800848808847F28971A6
:10091000884206D110120649891C088008460280C8
:1009200002E00348801C028030BD0000D800002097
:10093000FEFF07601CB5FE48006840F01800FC4947
:100940000860FB480830006840F00100F8490831B1
:1009500008600120022100230246CDE900100103B6
:10096000F448FFF77DFE0120022100230246CDE975
:100970000010C102EF48FFF773FE0120032100239E
:100980000222CDE900104EF2B371EA48FFF768FE8B
:100990000120032100230222CDE900104FF68071CF
:1009A000E548FFF75DFE0C220021E248FFF738FE24
:1009B0000C220121DF48FFF733FE0C220421DD4821
:1009C000FFF72EFE0C220521DA48FFF729FE0C2244
:1009D0000721D848FFF724FE0C220821D548FFF74D
:1009E0001FFE0C220921D348FFF71AFE0C220A2110
:1009F000D048FFF715FE0C220D21CE48FFF710FE60
:100A00000C220E21CB48FFF70BFE0C220F21C94808
:100A1000FFF706FE0C220721C748FFF701FE0C2254
:100A20000821C548FFF7FCFD0C220921C248FFF749
:100A3000F7FD0C220A21C048FFF7F2FD0C220B2122
:100A4000BD48FFF7EDFD0C221146BB48FFF7E8FD5E
:100A50000C220D21B848FFF7E3FD0C220E21B64809
:100A6000FFF7DEFD0C220F21B348FFF7D9FD002070
:100A70004FF0204108604860B04908604FF02040C6
:100A8000006840F480504FF020410860084600683C
:100A900040F4804008600846006840F0100008609C
:100AA0000846406848600846406840F00F004860CB
:100AB0000846406840F470504860A0480068C1F89B
:100AC00004010846D0F8040140F00900C1F804010F
:100AD0000846D0F8040140F40060C1F8040108465B
:100AE000006840F001000860322002F013FE01208F
:100AF0009349C1F8AC020A2002F00CFE0020904994
:100B0000C1F8AC02322002F005FE01208D490860D8
:100B1000C82002F0FFFDD32002F042FC02F020FAD0
:100B20008949888002F01CFA8749888002F018FA07
:100B300085498880084680884FF6FF7101EA0020C9
:100B40008149888002F00CFA7F49898808437E49F0
:100B500088800846808847F2967188427ED00420BB
:100B600002F01EFC02F0FCF97749888002F0F8F9E7
:100B70007549888002F0F4F97349888008468088B6
:100B80004FF6FF7101EA00206F49888002F0E8F912
:100B9000C0B26D49898808436B49888008468088BF
:100BA00048F25251884203D147F2897066498880E1
:100BB0006548808847F2897188425CD0D42002F071
:100BC000EFFB02F0CDF96049888002F0C9F95E4977
:100BD000888002F0C5F95C498880084680884FF615
:100BE000FF7101EA00205849888002F0B9F956499E
:100BF00089880843544988800846808845F2103126
:100C0000884238D055214FF4704002F0DFFBAA2112
:100C10004FF2010002F0DAFB52214FF2020002F023
:100C2000D5FB08214FF2030002F0D0FB01214FF267
:100C3000040002F0CBFB4FF4454002F0B1FB02F0A0
:100C40008FF941498880084680884FF6FF7101EA94
:100C500000203D4988804CF2015000E00BE002F09A
:100C60009FFB02F07DF9384989880843364988801E
:100C7000052002F04FFD3448818834A0FFF7FCFACC
:100C80003148808847F29671884267D1F02002F09F
:100C900087FBC32002F078FBF02002F081FB962056
:100CA00002F072FB362002F07BFB482002F06CFB66
:100CB0003A2002F075FB552002F066FBB42002F0EA
:100CC0006FFB012002F060FBB62002F069FB802080
:100CD00002F05AFB222002F057FB3B2002F054FBAB
:100CE000B72002F05DFBC62002F04EFBC02002F0F0
:100CF00057FB802002F048FB162002F045FBC12084
:100D000002F04EFB192002F03FFBC22002F048FB2C
:100D1000A72002F039FBC52002F042FB162002F0AA
:100D200033FBE82002F03CFB402002F02DFB16E0F4
:100D300030380240000C024000100240040100A0C4
:100D400000804142AC824142D8000020204C434404
:100D50002049443A25780D0A00000000B2E08A20BC
:100D600002F012FB002002F00FFB002002F00CFB4F
:100D7000292002F009FB192002F006FBA52002F051
:100D800003FB332002F000FBE02002F009FBF0201F
:100D900002F0FAFA072002F0F7FA0D2002F0F4FA56
:100DA000042002F0F1FA052002F0EEFA142002F01D
:100DB000EBFA362002F0E8FA542002F0E5FA4C2073
:100DC00002F0E2FA382002F0DFFA132002F0DCFA37
:100DD000142002F0D9FA2E2002F0D6FA342002F0C4
:100DE000D3FAE12002F0DCFAF02002F0CDFA102074
:100DF00002F0CAFA142002F0C7FA0E2002F0C4FA78
:100E00000C2002F0C1FA082002F0BEFA352002F0F0
:100E1000BBFA442002F0B8FA4C2002F0B5FA2620C2
:100E200002F0B2FA102002F0AFFA122002F0ACFA8F
:100E30002C2002F0A9FA322002F0A6FAF02002F0EB
:100E4000AFFA3C2002F0A0FAF02002F0A9FA6920E3
:100E500002F09AFA352002F0A3FA002002F094FA88
:100E6000212002F09DFA112002F09AFA782002F077
:100E700051FC292002F094FA322002F04BFC2A2087
:100E800002F08EFA002002F07FFA002002F07CFAD5
:100E9000012002F079FA3F2002F076FA2B2002F0CE
:100EA0007FFA002002F070FA002002F06DFA0120B3
:100EB00002F06AFADF2002F067FA2C2002F070FAE2
:100EC00001F0F7BFFE48808847F2897188427CD1E3
:100ED000112002F065FA782002F01CFC362002F0A6
:100EE0005FFA002002F050FA3A2002F059FA552039
:100EF00002F04AFAB22002F053FA0C2002F044FA4F
:100F00000C2002F041FA002002F03EFA332002F0F9
:100F10003BFA332002F038FAB72002F041FA5620AB
:100F200002F032FABB2002F03BFA202002F02CFA49
:100F3000C02002F035FA2C2002F026FAC22002F07E
:100F40002FFA012002F020FAC32002F029FA0F2024
:100F500002F01AFAC42002F023FA202002F014FA58
:100F6000C62002F01DFA0F2002F00EFAD02002F087
:100F700017FAA42002F008FAA12002F005FAD62000
:100F800002F00EFAA12002F0FFF9E02002F008FAC8
:100F9000F02002F0F9F9002002F0F6F9062002F044
:100FA000F3F9062002F0F0F9072002F0EDF9052030
:100FB00002F0EAF9302002F0E7F9442002F0E4F907
:100FC000482002F0E1F9382000E068E002F0DCF9A6
:100FD000112002F0D9F9102002F0D6F92E2002F0EB
:100FE000D3F9342002F0D0F9E12002F0D9F9F02051
:100FF00002F0CAF90A2002F0C7F90E2002F0C4F983
:101000000D2002F0C1F90B2002F0BEF9272002F0FA
:10101000BBF92F2002F0B8F9442002F0B5F94720BF
:1010200002F0B2F9352002F0AFF9122002F0ACF96B
:10103000122002F0A9F92C2002F0A6F9322002F0C9
:10104000A3F9352002F0ACF9002002F09DF921202F
:1010500002F0A6F9292002F0A3F92A2002F0A0F953
:10106000002002F091F9002002F08EF9012002F038
:101070008BF93F2002F088F92B2002F091F9002033
:1010800002F082F9002002F07FF9002002F07CF9E2
:10109000EF2002F079F92C2002F082F910E788485D
:1010A000808845F21031884240F07B87ED2002F0C5
:1010B00077F9012002F068F9FE2002F065F9EE20D0
:1010C00002F06EF9DE2002F05FF9212002F05CF9F7
:1010D000F12002F065F9012002F056F9DF2002F05C
:1010E0005FF9102002F050F9C42002F059F98F2066
:1010F00002F04AF9C62002F053F9002002F044F948
:10110000E22002F041F9E22002F03EF9E22002F092
:101110003BF9BF2002F044F9AA2002F035F9B020D3
:1011200002F03EF90D2002F02FF9002002F02CF918
:101130000D2002F029F9002002F026F9112002F01A
:1011400023F9002002F020F9192002F01DF90020F7
:1011500002F01AF9212002F017F9002002F014F928
:101160002D2002F011F9002002F00EF93D2002F0CE
:101170000BF9002002F008F95D2002F005F90020CB
:1011800002F002F95D2002F0FFF8002002F0FCF806
:10119000B12002F005F9802002F0F6F8002002F0FC
:1011A000F3F88B2002F0F0F8002002F0EDF8962022
:1011B00002F0EAF8002002F0E7F8B22002F0F0F8BE
:1011C000002002F0E1F8002002F0DEF8022002F038
:1011D000DBF8002002F0D8F8032002F0D5F8002058
:1011E00002F0D2F8B32002F0DBF8002002F0CCF8D5
:1011F000002002F0C9F8002002F0C6F8002002F03A
:10120000C3F8002002F0C0F8002002F0BDF8002072
:1012100002F0BAF8002002F0B7F8002002F0B4F8AB
:10122000002002F0B1F8002002F0AEF8002002F039
:10123000ABF8002002F0A8F8002002F0A5F800208A
:1012400002F0A2F8002002F09FF8002002F09CF8C3
:10125000002002F099F8002002F096F8002002F039
:1012600093F8002002F090F8002002F08DF80020A2
:1012700002F08AF8002002F087F8B42002F090F81B
:101280008B2002F081F8002002F07EF8962002F018
:101290007BF8002002F078F8A12002F075F8002019
:1012A00002F072F8B52002F07BF8022002F06CF830
:1012B000002002F069F8032002F066F8002001E047
:1012C000D800002002F060F8042002F05DF8002051
:1012D00002F05AF8B62002F063F8002002F054F849
:1012E000002002F051F8B72002F05AF8002002F076
:1012F0004BF8002002F048F83F2002F045F80020AB
:1013000002F042F85E2002F03FF8002002F03CF8C4
:10131000642002F039F8002002F036F88C2002F048
:1013200033F8002002F030F8AC2002F02DF8002055
:1013300002F02AF8DC2002F027F8002002F024F85E
:10134000702002F021F8002002F01EF8902002F038
:101350001BF8002002F018F8EB2002F015F800202E
:1013600002F012F8DC2002F00FF8002002F00CF876
:10137000B82002F015F8002002F006F8002002F074
:1013800003F8002002F000F8002001F0FDFF00202B
:1013900001F0FAFF002001F0F7FF002001F0F4FF58
:1013A000002001F0F1FFBA2001F0FAFF242001F043
:1013B000EBFF002001F0E8FF002001F0E5FF002036
:1013C00001F0E2FFC12001F0EBFF202001F0DCFF83
:1013D000002001F0D9FF542001F0D6FF002001F0D9
:1013E000D3FFFF2001F0D0FF002001F0CDFFC2208D
:1013F00001F0D6FF0A2001F0C7FF002001F0C4FF72
:10140000042001F0C1FF002001F0BEFFC32001F065
:10141000C7FF3C2001F0B8FF002001F0B5FF3A20E3
:1014200001F0B2FF002001F0AFFF392001F0ACFF66
:10143000002001F0A9FF372001F0A6FF002001F0F5
:10144000A3FF3C2001F0A0FF002001F09DFF36200B
:1014500001F09AFF002001F097FF322001F094FF85
:10146000002001F091FF2F2001F08EFF002001F0FD
:101470008BFF2C2001F088FF002001F085FF292040
:1014800001F082FF002001F07FFF262001F07CFFA9
:10149000002001F079FF242001F076FF002001F008
:1014A00073FF242001F070FF002001F06DFF232066
:1014B00001F06AFF002001F067FF3C2001F064FFAB
:1014C000002001F061FF362001F05EFF002001F0F6
:1014D0005BFF322001F058FF002001F055FF2F2064
:1014E00001F052FF002001F04FFF2C2001F04CFFD3
:1014F000002001F049FF292001F046FF002001F003
:1015000043FF262001F040FF002001F03DFF242092
:1015100001F03AFF002001F037FF242001F034FFF2
:10152000002001F031FF232001F02EFF002001F008
:101530002BFFC42001F034FF622001F025FF0020C2
:1015400001F022FF052001F01FFF002001F01CFF29
:10155000842001F019FF002001F016FFF02001F0B7
:1015600013FF002001F010FF182001F00DFF0020F4
:1015700001F00AFFA42001F007FF002001F004FFA2
:10158000182001F001FF002001F0FEFE502001F0C4
:10159000FBFE002001F0F8FE0C2001F0F5FE00201B
:1015A00001F0F2FE172001F0EFFE002001F0ECFE4A
:1015B000952001F0E9FE002001F0E6FEF32001F0A5
:1015C000E3FE002001F0E0FEE62001F0DDFE002059
:1015D00001F0DAFEC52001F0E3FE322001F0D4FE76
:1015E000002001F0D1FE442001F0CEFE002001F0E9
:1015F000CBFE652001F0C8FE002001F0C5FE76207C
:1016000001F0C2FE002001F0BFFE882001F0BCFE08
:10161000002001F0B9FEC62001F0C2FE202001F03A
:10162000B3FE002001F0B0FE172001F0ADFE002057
:1016300001F0AAFE012001F0A7FE002001F0A4FEA7
:10164000C72001F0ADFE002001F09EFE002001F059
:101650009BFE002001F098FE002001F095FEC820BE
:1016600001F09EFE002001F08FFE002001F08CFEB4
:10167000002001F089FE002001F086FEC92001F063
:101680008FFE002001F080FE002001F07DFE002092
:1016900001F07AFE002001F077FE002001F074FED8
:1016A000002001F071FE002001F06EFE002001F02C
:1016B0006BFE002001F068FE002001F065FE0020B6
:1016C00001F062FE002001F05FFE002001F05CFEF0
:1016D000002001F059FE002001F056FE002001F02C
:1016E00053FEE02001F05CFE162001F04DFE0020CC
:1016F00001F04AFE1C2001F047FE002001F044FEEC
:10170000212001F041FE002001F03EFE362001F0D4
:101710003BFE002001F038FE462001F035FE00209F
:1017200001F032FE522001F02FFE002001F02CFECD
:10173000642001F029FE002001F026FE7A2001F04D
:1017400023FE002001F020FE8B2001F01DFE002072
:1017500001F01AFE992001F017FE002001F014FE9E
:10176000A82001F011FE002001F00EFEB92001F0CA
:101770000BFE002001F008FEC42001F005FE002051
:1017800001F002FECA2001F0FFFD002001F0FCFD87
:10179000D22001F0F9FD002001F0F6FDD92001F082
:1017A000F3FD002001F0F0FDE02001F0EDFD002050
:1017B00001F0EAFDF32001F0E7FD002001F0E4FD77
:1017C000E12001F0EDFD162001F0DEFD002001F02A
:1017D000DBFD1C2001F0D8FD002001F0D5FD22200A
:1017E00001F0D2FD002001F0CFFD362001F0CCFD4C
:1017F000002001F0C9FD452001F0C6FD002001F0E8
:10180000C3FD522001F0C0FD002001F0BDFD6420A9
:1018100001F0BAFD002001F0B7FD7A2001F0B4FD1F
:10182000002001F0B1FD8B2001F0AEFD002001F0A1
:10183000ABFD992001F0A8FD002001F0A5FDA82036
:1018400001F0A2FD002001F09FFDB92001F09CFDF8
:10185000002001F099FDC42001F096FD002001F068
:1018600093FDCA2001F090FD002001F08DFDD220F3
:1018700001F08AFD002001F087FDD82001F084FDF1
:10188000002001F081FDE02001F07EFD002001F04C
:101890007BFDF32001F078FD002001F075FDE220D2
:1018A00001F07EFD052001F06FFD002001F06CFDD0
:1018B0000B2001F069FD002001F066FD1B2001F006
:1018C00063FD002001F060FD342001F05DFD00208B
:1018D00001F05AFD442001F057FD002001F054FDB5
:1018E0004F2001F051FD002001F04EFD612001F07C
:1018F0004BFD002001F048FD792001F045FD00205E
:1019000001F042FD882001F03FFD002001F03CFD88
:10191000972001F039FD002001F036FDA62001F0EE
:1019200033FD002001F030FDB72001F02DFD002037
:1019300001F02AFDC22001F027FD002001F024FD66
:10194000C72001F021FD002001F01EFDD12001F093
:101950001BFD002001F018FDD62001F015FD002030
:1019600001F012FDDD2001F00FFD002001F00CFD63
:10197000F32001F009FD002001F006FDE32001F055
:101980000FFD052001F000FD002001F0FDFC0A2004
:1019900001F0FAFC002001F0F7FC1C2001F0F4FC3F
:1019A000002001F0F1FC332001F0EEFC002001F0FA
:1019B000EBFC442001F0E8FC002001F0E5FC5020A5
:1019C00001F0E2FC002001F0DFFC622001F0DCFC11
:1019D000002001F0D9FC782001F0D6FC002001F0B5
:1019E000D3FC882001F0D0FC002001F0CDFC972032
:1019F00001F0CAFC002001F0C7FCA62001F0C4FCE5
:101A0000002001F0C1FCB72001F0BEFC002001F075
:101A1000BBFCC22001F0B8FC002001F0B5FCC720DF
:101A200001F0B2FC002001F0AFFCD12001F0ACFCD1
:101A3000002001F0A9FCD52001F0A6FC002001F057
:101A4000A3FCDD2001F0A0FC002001F09DFCF320B0
:101A500001F09AFC002001F097FCE42001F0A0FCCA
:101A6000012001F091FC002001F08EFC012001F02A
:101A70008BFC002001F088FC022001F085FC002096
:101A800001F082FC2A2001F07FFC002001F07CFCA8
:101A90003C2001F079FC002001F076FC4B2001F0A5
:101AA00073FC002001F070FC5D2001F06DFC002053
:101AB00001F06AFC742001F067FC002001F064FC76
:101AC000842001F061FC002001F05EFC932001F015
:101AD0005BFC002001F058FCA22001F055FC002026
:101AE00001F052FCB32001F04FFC002001F04CFC4F
:101AF000BE2001F049FC002001F046FCC42001F0AA
:101B000043FC002001F040FCCD2001F03DFC002012
:101B100001F03AFCD32001F037FC002001F034FC46
:101B2000DD2001F031FC002001F02EFCF32001F05B
:101B30002BFC002001F028FCE52001F031FC002006
:101B400001F022FC002001F01FFC002001F01CFC31
:101B5000002001F019FC022001F016FC002001F029
:101B600013FC292001F010FC002001F00DFC3C20AA
:101B700001F00AFC002001F007FC4B2001F004FCFE
:101B8000002001F001FC5D2001F0FEFB002001F0CF
:101B9000FBFB742001F0F8FB002001F0F5FB842032
:101BA00001F0F2FB002001F0EFFB932001F0ECFBD1
:101BB000002001F0E9FBA22001F0E6FB002001F08B
:101BC000E3FBB32001F0E0FB002001F0DDFBBE20D1
:101BD00001F0DAFB002001F0D7FBC42001F0D4FBB8
:101BE000002001F0D1FBCD2001F0CEFB002001F060
:101BF000CBFBD32001F0C8FB002001F0C5FBDC20AB
:101C000001F0C2FB002001F0BFFBF32001F0BCFBA0
:101C1000002001F0B9FBE62001F0C2FB112001F029
:101C2000B3FB002001F0B0FB342001F0ADFB00203D
:101C300001F0AAFB562001F0A7FB002001F0A4FB55
:101C4000762001F0A1FB002001F09EFB772001F03F
:101C50009BFB002001F098FB662001F095FB002023
:101C600001F092FB882001F08FFB002001F08CFB3B
:101C7000992001F089FB002001F086FBBB2001F0D8
:101C800083FB002001F080FB992001F07DFB002008
:101C900001F07AFB662001F077FB002001F074FB75
:101CA000552001F071FB002001F06EFB552001F082
:101CB0006BFB002001F068FB452001F065FB002074
:101CC00001F062FB432001F05FFB002001F05CFBB0
:101CD000442001F059FB002001F056FBE72001F001
:101CE0005FFB322001F050FB002001F04DFB55203E
:101CF00001F04AFB002001F047FB762001F044FB95
:101D0000002001F041FB662001F03EFB002001F0C5
:101D10003BFB672001F038FB002001F035FB67201A
:101D200001F032FB002001F02FFB872001F02CFB9B
:101D3000002001F029FB992001F026FB002001F092
:101D400023FBBB2001F020FB002001F01DFB9920AC
:101D500001F01AFB002001F017FB772001F014FBC3
:101D6000002001F011FB442001F00EFB002001F0E7
:101D70000BFB562001F008FB002001F005FB23209F
:101D800001F002FB002001F0FFFA332001F0FCFA21
:101D9000002001F0F9FA452001F0F6FA002001F0E8
:101DA000F3FAE82001F0FCFA002001F0EDFA00203F
:101DB00001F0EAFA992001F0E7FA002001F0E4FAD4
:101DC000872001F0E1FA002001F0DEFA882001F01E
:101DD000DBFA002001F0D8FA772001F0D5FA0020D4
:101DE00001F0D2FA662001F0CFFA002001F0CCFA1F
:101DF000882001F0C9FA002001F0C6FAAA2001F0FB
:101E0000C3FA002001F0C0FABB2001F0BDFA0020A7
:101E100001F0BAFA992001F0B7FA002001F0B4FA03
:101E2000662001F0B1FA002001F0AEFA552001F071
:101E3000ABFA002001F0A8FA552001F0A5FA002025
:101E400001F0A2FA442001F09FFA002001F09CFA70
:101E5000442001F099FA002001F096FA552001F093
:101E600093FA002001F090FAE92001F099FAAA20F3
:101E700001F08AFA002001F087FA002001F084FACC
:101E8000002001F081FA002001F08AFAAA2001F076
:101E90007BFACF2001F084FA002001F075FA0020CF
:101EA00001F072FA002001F06FFA002001F06CFAE4
:101EB000002001F069FA002001F066FA002001F02C
:101EC00063FA002001F060FA002001F05DFA0020C2
:101ED00001F05AFA002001F057FA002001F054FAFC
:101EE000002001F051FA002001F04EFA002001F02C
:101EF0004BFA002001F048FA002001F045FAF020EA
:101F000001F04EFA002001F03FFA502001F03CFAB7
:101F1000002001F039FA002001F036FA002001F02B
:101F200033FAF32001F03CFA002001F02DFAF920F9
:101F300001F036FA062001F027FA102001F024FA09
:101F4000292001F021FA002001F01EFA3A2001F0C8
:101F500027FA552001F018FA112001F021FA642027
:101F600001F0D8FB292001F01BFA352001F018FA06
:101F7000002001F009FA512001F012FAFF2001F0CF
:101F800003FA532001F00CFA2C2001F0FDF9552042
:101F900001F006FA822001F0F7F92C2001F000FA96
:101FA000FDE3FE48808845F210518842F8D1552162
:101FB0004FF4704001F00AFAAA214FF2010001F03B
:101FC00005FA52214FF2020001F000FA08214FF207
:101FD000030001F0FBF901214FF2040001F0F6F9D2
:101FE0000D214FF4304001F0F1F90D214BF20100C9
:101FF00001F0ECF90D214BF2020001F0E7F9342178
:102000004FF4364001F0E2F934214BF2016001F067
:10201000DDF934214BF2026001F0D8F90D214FF4C3
:10202000314001F0D3F90D214BF2011001F0CEF94E
:102030000D214BF2021001F0C9F934214FF4374061
:1020400001F0C4F934214BF2017001F0BFF93421E1
:102050004BF2027001F0BAF900214FF4324001F066
:10206000B5F900214BF2012001F0B0F900214BF24B
:10207000022001F0ABF924214FF4384001F0A6F919
:1020800024214BF6010001F0A1F924214BF60200B6
:1020900001F09CF901214FF43F4001F097F90F2125
:1020A0004FF4334001F092F90F214BF2013001F06F
:1020B0008DF90F214BF2023001F088F934214FF4F1
:1020C000394001F083F934214BF6011001F07EF91B
:1020D00034214BF6021001F079F908214FF4354014
:1020E00001F074F908214BF2015001F06FF9082159
:1020F0004BF2025001F06AF903214FF4424001F023
:1021000065F924214FF43A4001F060F924214BF69F
:10211000012001F05BF924214BF6022001F056F971
:1021200000214FF43C4001F051F978214BF6014079
:1021300001F04CF900214BF6024001F047F9002173
:102140004FF43D4001F042F978214BF6015001F087
:102150003DF900214BF6025001F038F900214FF40F
:102160003E4001F033F964214BF6016001F02EF995
:1021700000214FF4514001F029F933214DF20110B3
:1021800001F024F900214DF2021001F01FF9342171
:102190004DF2031001F01AF900214DF2041001F084
:1021A00015F93A214DF2051001F010F900214DF218
:1021B000061001F00BF94A214DF2071001F006F963
:1021C00000214DF2081001F001F95C214DF20910D7
:1021D00001F0FCF800214DF20A1001F0F7F881211E
:1021E0004DF20B1001F0F2F800214DF20C1001F04D
:1021F000EDF8A6214DF20D1001F0E8F800214DF2A6
:102200000E1001F0E3F8E5214DF20F1001F0DEF8B9
:1022100001214DF2101001F0D9F813214DF21110E7
:1022200001F0D4F801214DF2121001F0CFF8542141
:102230004DF2131001F0CAF801214DF2141001F013
:10224000C5F882214DF2151001F0C0F801214DF2C0
:10225000161001F0BBF8CA214DF2171001F0B6F8C4
:1022600002214DF2181001F0B1F800214DF21910C1
:1022700001F0ACF802214DF21A1001F0A7F801218B
:102280004DF21B1001F0A2F802214DF21C1001F0DA
:102290009DF834214DF21D1001F098F802214DF205
:1022A0001E1001F093F867214DF21F1001F08EF817
:1022B00002214DF2201001F089F884214DF2211005
:1022C00001F084F802214DF2221001F07FF8A421E0
:1022D0004DF2231001F07AF802214DF2241001F0A2
:1022E00075F8B7214DF2251001F070F802214DF27A
:1022F000261001F06BF8CF214DF2271001F066F89F
:1023000002214DF2281001F061F8DE214DF2291072
:1023100001F05CF802214DF22A1001F057F8F22189
:102320004DF22B1001F052F802214DF22C1001F069
:102330004DF8FE214DF22D1001F048F803214DF229
:102340002E1001F043F810214DF22F1001F03EF84D
:1023500003214DF2301001F039F833214DF23110E4
:1023600001F034F803214DF2321001F02FF86D2105
:102370004DF2331001F02AF800214FF4524001F0E1
:1023800025F833214DF2012001F020F800214DF213
:10239000022001F01BF8342102E00000D8000020E8
:1023A0004DF2032001F012F800214DF2042001F05B
:1023B0000DF83A214DF2052001F008F800214DF208
:1023C000062001F003F84A214DF2072000F0FEFF3D
:1023D00000214DF2082000F0F9FF5C214DF20920A8
:1023E00000F0F4FF00214DF20A2000F0EFFF812100
:1023F0004DF20B2000F0EAFF00214DF20C2000F01E
:10240000E5FFA6214DF20D2000F0E0FF00214DF286
:102410000E2000F0DBFFE5214DF20F2000F0D6FF8B
:1024200001214DF2102000F0D1FF13214DF21120B7
:1024300000F0CCFF01214DF2122000F0C7FF542123
:102440004DF2132000F0C2FF01214DF2142000F0E4
:10245000BDFF82214DF2152000F0B8FF01214DF2A1
:10246000162000F0B3FFCA214DF2172000F0AEFF96
:1024700002214DF2182000F0A9FF00214DF2192091
:1024800000F0A4FF02214DF21A2000F09FFF01216D
:102490004DF21B2000F09AFF02214DF21C2000F0AB
:1024A00095FF34214DF21D2000F090FF02214DF2E6
:1024B0001E2000F08BFF67214DF21F2000F086FFE9
:1024C00002214DF2202000F081FF84214DF22120D5
:1024D00000F07CFF02214DF2222000F077FFA421C2
:1024E0004DF2232000F072FF02214DF2242000F073
:1024F0006DFFB7214DF2252000F068FF02214DF25B
:10250000262000F063FFCF214DF2272000F05EFF70
:1025100002214DF2282000F059FFDE214DF2292042
:1025200000F054FF02214DF22A2000F04FFFF2216B
:102530004DF22B2000F04AFF02214DF22C2000F03A
:1025400045FFFE214DF22D2000F040FF03214DF20A
:102550002E2000F03BFF10214DF22F2000F036FF1F
:1025600003214DF2302000F031FF33214DF23120B4
:1025700000F02CFF03214DF2322000F027FF6D21E7
:102580004DF2332000F022FF00214FF4534000F0C1
:102590001DFF33214DF2013000F018FF00214DF2F4
:1025A000023000F013FF34214DF2033000F00EFF33
:1025B00000214DF2043000F009FF3A214DF20530C0
:1025C00000F004FF00214DF2063000F0FFFE4A212A
:1025D0004DF2073000F0FAFE00214DF2083000F015
:1025E000F5FE5C214DF2093000F0F0FE00214DF2C5
:1025F0000A3000F0EBFE81214DF20B3000F0E6FED8
:1026000000214DF20C3000F0E1FEA6214DF20D301C
:1026100000F0DCFE00214DF20E3000F0D7FEE52187
:102620004DF20F3000F0D2FE01214DF2103000F0DB
:10263000CDFE13214DF2113000F0C8FE01214DF204
:10264000123000F0C3FE54214DF2133000F0BEFEF4
:1026500001214DF2143000F0B9FE82214DF2153007
:1026600000F0B4FE01214DF2163000F0AFFECA2199
:102670004DF2173000F0AAFE02214DF2183000F0A2
:10268000A5FE00214DF2193000F0A0FE02214DF20E
:102690001A3000F09BFE01214DF21B3000F096FE37
:1026A00002214DF21C3000F091FE34214DF21D301C
:1026B00000F08CFE02214DF21E3000F087FE6721F3
:1026C0004DF21F3000F082FE02214DF2203000F06A
:1026D0007DFE84214DF2213000F078FE02214DF282
:1026E000223000F073FEA4214DF2233000F06EFE84
:1026F00002214DF2243000F069FEB7214DF2253061
:1027000000F064FE02214DF2263000F05FFECF2182
:102710004DF2273000F05AFE02214DF2283000F031
:1027200055FEDE214DF2293000F050FE02214DF21F
:102730002A3000F04BFEF2214DF22B3000F046FE25
:1027400002214DF22C3000F041FEFE214DF22D30E1
:1027500000F03CFE03214DF22E3000F037FE102138
:102760004DF22F3000F032FE03214DF2303000F0F8
:102770002DFE33214DF2313000F028FE03214DF2C1
:10278000323000F023FE6D214DF2333000F01EFE9A
:1027900000214FF4544000F019FE332100E088E39B
:1027A0004DF2014000F012FE00214DF2024000F017
:1027B0000DFE34214DF2034000F008FE00214DF2E1
:1027C000044000F003FE3A214DF2054000F0FEFD0A
:1027D00000214DF2064000F0F9FD4A214DF207407C
:1027E00000F0F4FD00214DF2084000F0EFFD5C2107
:1027F0004DF2094000F0EAFD00214DF20A4000F0E0
:10280000E5FD81214DF20B4000F0E0FD00214DF28D
:102810000C4000F0DBFDA6214DF20D4000F0D6FD8E
:1028200000214DF20E4000F0D1FDE5214DF20F40A8
:1028300000F0CCFD01214DF2104000F0C7FD132146
:102840004DF2114000F0C2FD01214DF2124000F0A6
:10285000BDFD54214DF2134000F0B8FD01214DF2B1
:10286000144000F0B3FD82214DF2154000F0AEFDA2
:1028700001214DF2164000F0A9FDCA214DF217408A
:1028800000F0A4FD02214DF2184000F09FFD002150
:102890004DF2194000F09AFD02214DF21A4000F06D
:1028A00095FD01214DF21B4000F090FD02214DF2FB
:1028B0001C4000F08BFD34214DF21D4000F086FDE0
:1028C00002214DF21E4000F081FD67214DF21F40B4
:1028D00000F07CFD02214DF2204000F077FD8421C4
:1028E0004DF2214000F072FD02214DF2224000F035
:1028F0006DFDA4214DF2234000F068FD02214DF250
:10290000244000F063FDB7214DF2254000F05EFD4C
:1029100002214DF2264000F059FDCF214DF2274013
:1029200000F054FD02214DF2284000F04FFDDE2161
:102930004DF2294000F04AFD02214DF22A4000F0FC
:1029400045FDF2214DF22B4000F040FD02214DF2F9
:102950002C4000F03BFDFE214DF22D4000F036FDF5
:1029600003214DF22E4000F031FD10214DF22F4099
:1029700000F02CFD03214DF2304000F027FD332103
:102980004DF2314000F022FD03214DF2324000F0C3
:102990001DFD6D214DF2334000F018FD00214FF474
:1029A000554000F013FD33214DF2015000F00EFDB3
:1029B00000214DF2025000F009FD34214DF2035088
:1029C00000F004FD00214DF2045000F0FFFC3A211C
:1029D0004DF2055000F0FAFC00214DF2065000F0D7
:1029E000F5FC4A214DF2075000F0F0FC00214DF2B9
:1029F000085000F0EBFC5C214DF2095000F0E6FCC1
:102A000000214DF20A5000F0E1FC81214DF20B5003
:102A100000F0DCFC00214DF20C5000F0D7FCA621A8
:102A20004DF20D5000F0D2FC00214DF20E5000F09E
:102A3000CDFCE5214DF20F5000F0C8FC01214DF214
:102A4000105000F0C3FC13214DF2115000F0BEFCF9
:102A500001214DF2125000F0B9FC54214DF21350F7
:102A600000F0B4FC01214DF2145000F0AFFC8221C3
:102A70004DF2155000F0AAFC01214DF2165000F065
:102A8000A5FCCA214DF2175000F0A0FC02214DF226
:102A9000185000F09BFC00214DF2195000F096FCFC
:102AA00002214DF21A5000F091FC01214DF21B5011
:102AB00000F08CFC02214DF21C5000F087FC342108
:102AC0004DF21D5000F082FC02214DF21E5000F02C
:102AD0007DFC67214DF21F5000F078FC02214DF281
:102AE000205000F073FC84214DF2215000F06EFC68
:102AF00002214DF2225000F069FCA4214DF2235036
:102B000000F064FC02214DF2245000F05FFCB7217C
:102B10004DF2255000F05AFC02214DF2265000F0F3
:102B200055FCCF214DF2275000F050FC02214DF210
:102B3000285000F04BFCDE214DF2295000F046FCFD
:102B400002214DF22A5000F041FCF2214DF22B50AF
:102B500000F03CFC02214DF22C5000F037FCFE212D
:102B60004DF22D5000F032FC03214DF22E5000F0BA
:102B70002DFC10214DF22F5000F028FC03214DF2C6
:102B8000305000F023FC33214DF2315000F01EFC98
:102B900003214DF2325000F019FC6D214DF23350FB
:102BA00000F014FC00214FF4564000F00FFC3321DC
:102BB0004DF2016000F00AFC00214DF2026000F0CD
:102BC00005FC34214DF2036000F000FC00214DF2C1
:102BD000046000F0FBFB3A214DF2056000F0F6FBCB
:102BE00000214DF2066000F0F1FB4A214DF2076032
:102BF00000F0ECFB00214DF2086000F0E7FB5C21E7
:102C00004DF2096000F0E2FB00214DF20A6000F095
:102C1000DDFB81214DF20B6000F0D8FB00214DF26D
:102C20000C6000F0D3FBA6214DF20D6000F0CEFB4E
:102C300000214DF20E6000F0C9FBE5214DF20F605E
:102C400000F0C4FB01214DF2106000F0BFFB132126
:102C50004DF2116000F0BAFB01214DF2126000F05C
:102C6000B5FB54214DF2136000F0B0FB01214DF291
:102C7000146000F0ABFB82214DF2156000F0A6FB62
:102C800001214DF2166000F0A1FBCA214DF2176040
:102C900000F09CFB02214DF2186000F097FB002130
:102CA0004DF2196000F092FB02214DF21A6000F023
:102CB0008DFB01214DF21B6000F088FB02214DF2DB
:102CC0001C6000F083FB34214DF21D6000F07EFBA0
:102CD00002214DF21E6000F079FB67214DF21F606A
:102CE00000F074FB02214DF2206000F06FFB8421A4
:102CF0004DF2216000F06AFB02214DF2226000F0EB
:102D000065FBA4214DF2236000F060FB02214DF22F
:102D1000246000F05BFBB7214DF2256000F056FB0C
:102D200002214DF2266000F051FBCF214DF22760C9
:102D300000F04CFB02214DF2286000F047FBDE2141
:102D40004DF2296000F042FB02214DF22A6000F0B2
:102D50003DFBF2214DF22B6000F038FB02214DF2D9
:102D60002C6000F033FBFE214DF22D6000F02EFBB5
:102D700003214DF22E6000F029FB10214DF22F604F
:102D800000F024FB03214DF2306000F01FFB3321E3
:102D90004DF2316000F01AFB03214DF2326000F079
:102DA00015FB6D214DF2336000F010FB55214FF4FF
:102DB000704000F00BFBAA214FF2010000F006FB6F
:102DC00052214FF2020000F001FB08214FF20300F4
:102DD00000F0FCFA00214FF2040000F0F7FACC21D9
:102DE0004FF4314000F0F2FA00214BF2011000F0F4
:102DF000EDFA05214FF4364000F0E8FA70214FF467
:102E0000374000F0E3FA70214BF2017000F0DEFA77
:102E100001214FF4384000F0D9FA03214BF60100AC
:102E200000F0D4FA03214BF6020000F0CFFA0321A0
:102E30004BF6030000F0CAFA02214FF43C4000F0C8
:102E4000C5FA00214BF6014000F0C0FA00214BF614
:102E5000024000F0BBFAD0214FF4494000F0B6FA2E
:102E600002214CF6011000F0B1FA50214CF602108C
:102E700000F0ACFA50214CF6031000F0A7FA5021F4
:102E80004CF6041000F0A2FA00214FF4545000F068
:102E90009DFA55214FF4685000F098FA4FF488508D
:102EA00000F07EFA782000F051FC4FF4245000F03E
:102EB00077FA2848808847F29671884211D02548D1
:102EC000808847F2897188420BD02248808845F279
:102ED0001031884205D01F48808845F21051884241
:102EE0002CD11D48006820F00F004FF02041C1F8A0
:102EF0001C010846D0F81C0120F47060C1F81C01C8
:102F00000846D0F81C0140F00300C1F81C0111482C
:102F1000808847F28971884208D10F48006840F4E0
:102F200080604FF02041C1F81C0107E00A480068AA
:102F300040F400704FF02041C1F81C010020FDF763
:102F400025FC0120054908604FF6FF70FDF7F8FBEE
:102F50001CBD0000D80000201C0100A0B08241422E
:102F600008B5034800880090BDF8000008BD0000C7
:102F700000000860F0B50546002400277C488079F1
:102F8000012818D1082D15D2DFE805F00406080A3B
:102F90000C0E101206250DE007250BE0042509E0B4
:102FA000052507E0012505E0002503E0032501E0F4
:102FB000022500BF00BF082D1CD2DFE805F0040683
:102FC000090C0F12151800BF14E044F0800411E042
:102FD00044F040040EE044F0C0040BE044F0200450
:102FE00008E044F0600405E044F0A00402E044F08E
:102FF000E00400BF00BF5E48808845F2105188425F
:1030000002D14FF4585700E036275948808847F2DC
:103010009671884201D144F008042146384600F0F8
:10302000D5F904F0200068B151480088504949881A
:10303000884214DA4E48068840884D490880084680
:1030400046800CE04A48008849494988884206DDA4
:1030500047480688408846490880084646804448D4
:10306000808845F21051884252D14149488900F088
:1030700097F9002000F088F93D494989491C88B238
:1030800000F08EF9002000F07FF939494989891C48
:1030900088B200F085F936490988491EC1F30F202E
:1030A00000F072F932494989C91C88B200F078F9F8
:1030B0002F490978491EC8B200F066F92C49888961
:1030C00000F06EF9002000F05FF929498989491C58
:1030D00088B200F065F9002000F056F9244989898A
:1030E000891C88B200F05CF921494988491EC1F366
:1030F0000F2000F049F91E498989C91C88B200F0E7
:103100004FF91B498978491EC8B200F03DF92DE0FE
:103110001749488900F044F9002000F035F90020F3
:1031200000F032F912490988491EC1F30F2000F05E
:103130002BF90F490978491EC8B200F025F90C494E
:10314000888900F02DF9002000F01EF9002000F021
:103150001BF907494988491EC1F30F2000F014F9F3
:1031600003498978491EC8B200F00EF9F0BD00008D
:10317000D800002010B502460C461E48808845F253
:103180001051884220D11B49488900F009F91012DA
:1031900000F0FAF817494989491C88B200F000F993
:1031A000D0B200F0F1F81349888900F0F9F8201244
:1031B00000F0EAF80F498989491C88B200F0F0F85C
:1031C000E0B200F0E1F813E00A49488900F0E8F8BD
:1031D000101200F0D9F8D0B200F0D6F8054988896D
:1031E00000F0DEF8201200F0CFF8E0B200F0CCF8EA
:1031F00010BD0000D80000202DE9F84F80460E4693
:1032000017461C46B3462046E31704EB5373DB1006
:1032100021464FEAE47C04EB5C7C4FEAEC0CA4EB27
:10322000CC0CBCF1000F02D04FF0010C01E04FF0CC
:10323000000C6344224604EBD27C4FEA6C0C03FB87
:103240000CF3DBB20093A7F12000C7B2002556E0D3
:103250000C2C07D107EB47002B4901EB800010F83D
:10326000059013E0102C05D1284800EB071010F84A
:1032700005900BE0182C07D107EBC700244901EBA0
:10328000800010F8059001E0BDE8F88F4FF0000ACB
:103290002FE009F0800030B11E48028831464046D8
:1032A000FDF7F0FA07E00A9828B91B480288314672
:1032B0004046FDF7E7FA4FEA49604FEA1069701C93
:1032C00086B216484088B04200DCDDE7A6EB0B0072
:1032D000A0420AD15E4608F101001FFA80F80F48AB
:1032E0000088404500DCCFE706E00AF1010000F06D
:1032F000FF0ABAF1080FCCDB00BF681CC5B200980A
:103300008542A5DB00BFBFE7A63A00081A3F0008C8
:103310000A4500080A0000200C000020D800002008
:103320002DE9F84704460D4690469946DDE90967C0
:1033300004F0FF0A08EB04001FFA80F809EB05000F
:103340001FFA80F916E0444502DB5446A81985B2FD
:103350004D4500DB14E0002000903A7833462946C2
:103360002046FFF749FF304606EBD07104EB6101C0
:103370008CB27F1C38787E2802DC38782028E2DA8C
:1033800000BFBDE8F887000001B5BDF8000000905F
:10339000BDF800000149088008BD00000000086079
:1033A00001B5BDF800000090BDF80000014908809B
:1033B00008BD0000FEFF076002480089024908803E
:1033C00070470000D8000020FEFF0760024A10800E
:1033D000921C118070470000FEFF07601CB50B486F
:1033E000006840F020000949086001200321002303
:1033F0000246CDE9001049020548FDF731F90120E8
:10340000044908600449C1F8A8021CBD30380240D4
:1034100000140240A4824242008042422DE9F04161
:103420000746884614461D46284600F033F8C5F185
:10343000040007FA00F60F20284100EA08000643BE
:1034400006F00F06E21704EBD2625211920002F16D
:10345000E022D2F800212146E31704EBD3635B118D
:10346000A4EB431C012303FA0CF31A432046E31791
:1034700004EBD3635B119B0003F1E023C3F800214D
:103480000348005D40EA061001490855BDE8F08197
:1034900000E400E00146072323EA01021202054B83
:1034A00018684FF6FF031840034B18431043014BB5
:1034B000186070470CED00E00000FA054A0A52025D
:1034C0000243014B1A60704708ED00E0F0B5044676
:1034D0000D4616461F461448006840F00100124988
:1034E000086000201049083108600F4800680F4943
:1034F00008400D4908600E48091D0860081F006853
:1035000020F48020091F0860002007490C31086062
:103510003B4632462946204600F00CF8002108467A
:10352000FFF7CCFFF0BD000000380240FFFFF6FEC1
:1035300010300024F0B504460D46002100203D4E19
:10354000366846F480363B4F3E6001E04E1CB1B217
:10355000384E366806F400361EB941F6FF76B142A1
:10356000F4DB41F6FF76B14201D1012060E0314E3B
:103570004036366846F080562E4F40373E602E4E1D
:10358000366846F440462C4F3E602A4E0836366870
:1035900046F41446274F08373E60264E366826F01C
:1035A0008076244F3E6045EA84160127C7EB520718
:1035B00046EA074646EA036646F480061D4F3F1D6D
:1035C0003E603E1F366846F080763F1F3E6000BF7B
:1035D000184E366806F00076002EF9D0174E366881
:1035E00046F48076154F3E603E46366846F40076D7
:1035F0003E603E46366846F480663E603E4636682B
:1036000046F005063E600B4E0836366826F0030687
:10361000084F08373E603E46366846F002063E6078
:1036200000BF044E0836366806F00C06082EF8D1A6
:10363000F0BD00000038024000700040003C024035
:103640001C49098801F0200109B31A498988C8B2C8
:103650001949098801F40041C9B91749098801F4D9
:10366000804161B10A2803D00021134A118020E073
:103670001149098841F400410F4A118019E00D28D1
:1036800006D10D49098841F480410B4A118010E0B0
:1036900009490988C1F30D01084A505406490988AF
:1036A000491C054A118011460988C72901DD0021FE
:1036B0001180704700100140080000201000002019
:1036C00030380A2801D2012070470020704700BF1F
:1036D000704700004FF0E021096921F004014FF02C
:1036E000E0221161C21700EB5272C2F3C702074B0E
:1036F0001A701946097801EB4102C2EBC1114FF66D
:10370000FF7202EAC101024A1180704700000020E6
:103710000200002070B504464FF4077094FBF0F0EF
:10372000C6B24FF4077094FBF0F100FB114085B274
:1037300005E04FF4077000F027F8701EC6B2002EA7
:10374000F7D115B1284600F01FF870BD01460D4AAB
:1037500012784A434FF0E0235A6100229A61012215
:103760001A6100BF4FF0E022106900F001021AB1A7
:1037700000F48032002AF5D000224FF0E0231A61D5
:103780009A6170470000002001460D4A12884A43A2
:103790004FF0E0235A6100229A6101221A6100BFB2
:1037A0004FF0E022106900F001021AB100F48032FB
:1037B000002AF5D000224FF0E0231A619A61704789
:1037C0000200002000BF054A128802F04002002AD1
:1037D000F9D0C2B2014B9A8070470000001001403E
:1037E00086B000240723022208214FF4A870FFF7B7
:1037F0006DFEA820FFF76EFF4FF4E131542000F07A
:10380000CDF8FFF7EBFDFDF795F84FF478404B4905
:1038100008804B4882884BA103A8FCF739FD8BE058
:103820000C2C41D2DFE804F0060B0F13181D2227E1
:103830002C31363B4FF6FF70FCF782FF34E000205E
:10384000FCF77EFF30E01F20FCF77AFF2CE04FF4FE
:103850007840FCF775FF27E04FF61F00FCF770FF7C
:1038600022E04FF4FC60FCF76BFF1DE047F6FF70B1
:10387000FCF766FF18E04FF6E070FCF761FF13E01D
:103880004FF60740FCF75CFF0EE048F23040FCF7D3
:1038900057FF09E04CF21860FCF752FF04E04BF6CA
:1038A0004040FCF74DFF00BF00BF4FF47840234974
:1038B000088027A018210B46D222CDE9001028212C
:1038C0001E20FFF72DFD27A010210B46C822CDE9B1
:1038D000001046211E20FFF723FD28A010210B46D3
:1038E000C822CDE900105A211E20FFF719FD03A8B8
:1038F00010210B46C822CDE900106E211E20FFF7D3
:103900000FFD22A00C210B46C822CDE90010822118
:103910001E20FFF705FD601CC4B20C2C00D1002452
:103920001D48006808B9012000E000201A4908601D
:103930004FF47A70FFF7EEFE72E700000A000020F5
:10394000D80000204C43442049443A2530345800E4
:103950004578706C6F7265722053544D3332463423
:10396000000000005446544C434420544553542016
:1039700048656C6C6F20576F7264000041544F4D66
:1039800040414C49454E54454B00000032303134E3
:103990002F352F3400000000A4824242F0B52DEDF7
:1039A000028B83B005460E46384905FB01F000EE58
:1039B000100AF8EE400A300100EE100AB8EE400A94
:1039C00080EE801AB0EE418ABCEEC80A10EE100AF2
:1039D00084B200EE104AB8EE400A38EE400AF3EE28
:1039E000000A20EE200ABCEEC00A10EE107A4FF654
:1039F000FF7000EA0414E01984B22548006840F022
:103A000001002349086022481430006840F010008B
:103A10001F49143108600120022100230A46CDE924
:103A200000104FF4C0611B48FCF71AFE0722092161
:103A30001848FCF7F5FD07220A211648FCF7F0FDAF
:103A400015480481808920F4004013498881084684
:103A5000808940F0080088810846808940F0040091
:103A600088810846808940F0200088810223252231
:103A700003210846FFF7D2FC0748808940F4005034
:103A80000549888103B0BDEC028BF0BD40420F00B8
:103A90003038024000000240001001404FF04070FA
:103AA000E1EE100A70470000000000000000000076
:103AB0000000000000003F40000000000000000087
:103AC0003000400030004000000009000BC03D0005
:103AD0000BC03D00090018C024407FE02240318027
:103AE0000000180024C01B000D80324001800380BC
:103AF0001C4027401C800740004010006000000070
:103B00000000000000000000000000001F802040B6
:103B100040200000402020401F80000000000900DD
:103B200006001F80060009000000040004003F801A
:103B3000040004000000001000600000000000000D
:103B40000000040004000400040004000000000061
:103B500000400000000000000000002001C006003E
:103B60003800400000001F802040204020401F807F
:103B70000000000010403FC000400000000018C0DE
:103B80002140224024401840000010802040244062
:103B900024401B80000002000D0011003FC00140C6
:103BA00000003C80244024402440238000001F80EB
:103BB000244024403440038000003000200027C00F
:103BC0003800200000001B802440244024401B803B
:103BD00000001C0022C0224022401F800000000084
:103BE0000000084000000000000000000000046029
:103BF000000000000000000004000A001100208006
:103C00004040090009000900090009000000000007
:103C10004040208011000A000400180020002340CA
:103C20002400180000001F802040274029401F402A
:103C30000000004007C039000F0001C000402040D4
:103C40003FC0244024401B8000001F8020402040B3
:103C500020403080000020403FC0204020401F8096
:103C6000000020403FC024402E4030C000002040D3
:103C70003FC024402E00300000000F001080204084
:103C800022403380020020403FC0040004003FC0B7
:103C90002040204020403FC02040204000000060E5
:103CA000202020203FC02000200020403FC0244092
:103CB0000B0030C0204020403FC02040004000406A
:103CC00000C03FC03C0003C03C003FC0000020409B
:103CD0003FC00C4023003FC020001F8020402040F8
:103CE00020401F80000020403FC0244024001800D6
:103CF00000001F802140214020E01FA00000204044
:103D00003FC02440260019C0004018C02440244071
:103D1000224031800000300020403FC02040300071
:103D2000000020003F80004000403F802000200035
:103D30003E0001C0070038002000380007C03C00EA
:103D400007C038000000204039C0060039C02040BC
:103D500000002000384007C03840200000003040FC
:103D600021C02640384020C00000000000007FE055
:103D7000402040200000000070000C000380004044
:103D800000000000402040207FE000000000000014
:103D90002000400020000000000000100010001073
:103DA00000100010001000000000400000000000A3
:103DB0000000000002800540054003C000402000D4
:103DC0003FC0044004400380000000000380044022
:103DD00004400640000000000380044024403FC02F
:103DE0000040000003800540054003400000000043
:103DF00004401FC0244024402000000002E0055081
:103E000005500650042020403FC00440040003C079
:103E100000400000044027C00040000000000010E7
:103E20000010041027E00000000020403FC00140C7
:103E3000070004C00440204020403FC00040004034
:103E4000000007C0040007C0040003C000000440D5
:103E500007C00440040003C0004000000380044089
:103E6000044003800000041007F004500440038065
:103E70000000000003800440045007F000100440DC
:103E800007C0024004000400000000000640054096
:103E9000054004C00000000004001F8004400040F2
:103EA0000000040007800040044007C000400400F8
:103EB000070004C0018006000400060001C00700DE
:103EC00001C006000000044006C0010006C0044016
:103ED00000000410071004E0018006000400000048
:103EE000044005C00640044000000000000004003B
:103EF0007BE040200000000000000000FFF0000018
:103F00000000000040207BE00400000000004000B2
:103F10008000400020002000400000000000000061
:103F20000000000000000000000000000000000091
:103F30001FCC000C00000000000000000800300052
:103F400060000800300060000000022003FC1E201A
:103F5000022003FC1E200220000000000E181104A5
:103F60003FFF10840C78000000000F0010840F3811
:103F700000C0077818840078000000780F8410C40F
:103F800011240E9800E40084000808006800700006
:103F90000000000000000000000000000000000021
:103FA00007E018182004400200000000400220042E
:103FB000181807E0000000000000024002400180E5
:103FC0000FF001800240024000000080008000806D
:103FD0000FF800800080008000000001000D000E3E
:103FE00000000000000000000000000000800080D1
:103FF000008000800080008000800000000C000C29
:104000000000000000000000000000000006001892
:1040100000600180060018002000000007F008087A
:1040200010041004080807F0000000000804080449
:104030001FFC000400040000000000000E0C10141F
:104040001024104411840E0C000000000C18100401
:104050001104110412880C700000000000E003201D
:10406000042408241FFC0024000000001F98108472
:1040700011041104108810700000000007F0088877
:104080001104110418880070000000001C001000CA
:1040900010FC13001C001000000000000E3811443A
:1040A0001084108411440E38000000000700088CB2
:1040B00010441044088807F00000000000000000D1
:1040C000030C030C000000000000000000000001D1
:1040D0000106000000000000000000000080014018
:1040E0000220041008081004000002200220022010
:1040F0000220022002200220000000001004080814
:104100000410022001400080000000000E00120098
:10411000100C106C10800F00000003E00C1813E46A
:10412000142417C4082807D000000004003C03C46E
:104130001C40074000E4001C000410041FFC110494
:10414000110411040E880070000003E00C18100424
:104150001004100410081C10000010041FFC1004B0
:1041600010041004080807F0000010041FFC1104DC
:10417000110417C410040818000010041FFC1104D7
:10418000110017C010000800000003E00C18100414
:10419000100410441C780040000010041FFC108420
:1041A0000080008010841FFC100400001004100424
:1041B0001FFC1004100400000000000300011001A7
:1041C00010011FFE10001000000010041FFC11045D
:1041D00003801464181C1004000010041FFC100459
:1041E000000400040004000C000010041FFC1F0069
:1041F00000FC1F001FFC1004000010041FFC0C0436
:10420000030000E010181FFC100007F0080810045D
:1042100010041004080807F0000010041FFC1084AC
:104220001080108010800F00000007F00818102484
:104230001024101C080A07F2000010041FFC1104CF
:10424000110011C011300E0C000400000E1C1104EE
:104250001084108410441C38000018001000100452
:104260001FFC100410001800000010001FF81004BC
:104270000004000410041FF8100010001E0011E0DC
:10428000001C007013801C0010001FC0103C00E0D8
:104290001F0000E0103C1FC000001004180C163472
:1042A00001C001C01634180C100410001C001304C7
:1042B00000FC13041C00100000000804101C106413
:1042C000108413041C0410180000000000000000FB
:1042D0007FFE4002400240020000000030000C005F
:1042E00003800060001C0003000000004002400248
:1042F00040027FFE000000000000000000002000DF
:1043000040004000400020000000000100010001CA
:104310000001000100010001000100004000400018
:1043200020000000000000000000000000980124B0
:1043300001440144014400FC000410001FFC0088FB
:104340000104010400880070000000000070008873
:1043500001040104010400880000000000700088CE
:104360000104010411081FFC0004000000F80144CE
:1043700001440144014400C800000000010401049C
:104380000FFC1104110411001800000000D60129CF
:104390000129012901C90106000010041FFC008445
:1043A00001000100010400FC0004000001041904E4
:1043B00019FC0004000400000000000000030001DC
:1043C0000101190119FE0000000010041FFC002467
:1043D000004001B4010C01040000000010041004AE
:1043E0001FFC0004000400000000010401FC0104A3
:1043F000010001FC0104010000FC010401FC008437
:1044000001000100010400FC0004000000F80104A8
:1044100001040104010400F80000010101FF00850E
:104420000104010400880070000000000070008892
:1044300001040104010501FF00010104010401FC64
:1044400000840104010001800000000000CC012470
:104450000124012401240198000000000100010052
:1044600007F80104010400000000010001F8000445
:1044700000040004010801FC000401000180017037
:10448000000C001001600180010001F0010C0030FF
:1044900001C00030010C01F0010000000104018C9A
:1044A00000740170018C010400000101018101719F
:1044B000000E001801600180010000000184010C61
:1044C000013401440184010C0000000000000000E0
:1044D000000001003EFC400240020000000000001D
:1044E0000000FFFF0000000000000000400240024A
:1044F0003EFC0100000000000000000060008000A1
:10450000800040004000200020000000000000006B
:10451000000000000000000000000000000000009B
:10452000000000000000000000000000000000008B
:10453000000000000000000000000000000F8038B4
:104540000FFE380F8038000000000000000000005F
:1045500000000000000000000100000600000C0048
:10456000003800003100000600000C000038000098
:104570003000000000000000000061800067F807C4
:10458000F9800061800061800061800061800067C7
:10459000F807F980006180000000000000000000C2
:1045A00001C0E003E0F00630080418081FFFFE0415
:1045B0000E080787F00381E000000000000001F012
:1045C00000060C00040408060C7001F9C0000E007F
:1045D000003BE000EC18070808040C180003E0009A
:1045E00000000001E00007F003F818041C0804179D
:1045F0000807E1D003C0E00023B0003C0800200819
:104600000000100000000000000100003100003236
:1046100000001C000000000000000000000000007E
:10462000000000000000000000000000000000008A
:10463000000000000000000000007F0001FFC00734
:1046400080F00C00181000042000020000000000A0
:10465000002000021000040C00180780F001FFC0C9
:10466000007F0000000000000000000000000000CB
:104670000000000000004200006600006600003CF0
:104680000000180003FFC0001800003C0000660096
:104690000066000042000000000008000008000062
:1046A000080000080000080001FFC0000800000822
:1046B00000000800000800000800000000000001E1
:1046C00000003100003200001C000000000000006B
:1046D00000000000000000000000000000000000DA
:1046E00000000800000800000800000800000800A2
:1046F0000008000008000008000008000008000092
:104700000000000000000000000038000038000039
:104710003800000000000000000000000000000061
:1047200000000000000000000000000600001C0067
:104730000070000180000E0000380000C00007007B
:10474000001C0000300000000000000000007F801E
:1047500001FFE0038070060018040008040008064A
:10476000001803807001FFE0007F8000000000005F
:104770000000000001000801000801000803FFF824
:1047800007FFF80000080000080000080000000013
:10479000000000000001C03802C058040098040165
:1047A00018040218040418061C1803F81801E0F88D
:1047B00000000000000000000001C0E003C0F004A1
:1047C000000804080804080806180803F41801E79C
:1047D000F00001E000000000000000000000030005
:1047E000000D0000110000610000810803010807AE
:1047F000FFF80FFFF80001080001080000000000AA
:10480000000000E007FCD0060808061008061008A3
:10481000061008061838060FF00607C00000000052
:104820000000000000003F8001FFE0038430020828
:1048300018041008041008041008071810030FF0DB
:104840000007C000000000000000000003C00007D7
:1048500000000600000600F80607F806180006E04B
:104860000007000006000000000000000001E1E079
:1048700003F7F0063410041808041808040C0804A0
:104880000C0806161803F3F001C1E0000000000058
:104890000000F80003FC3003063804020804020894
:1048A0000402080404100308F001FFC0007F0000A8
:1048B00000000000000000000000000000000000F8
:1048C00000007038007038007038000000000000F0
:1048D00000000000000000000000000000000000D8
:1048E000000000000000301A00301C000000000032
:1048F00000000000000000000000000000000000B8
:104900000008000014000022000041000080800127
:104910000040020020040010080008000000000011
:1049200000002100002100002100002100002100E2
:1049300000210000210000210000210000210000D2
:104940000000000000000000080008040010020041
:10495000200100400080800041000022000014007F
:1049600000080000000000000003C00004C00004B4
:104970000000080038080F380808380810000C300C
:104980000007E00003C000000000000000003F80BE
:1049900000FFE0038070020F1006708804C08804D6
:1049A0008308047F8802C09003012000FE400000BD
:1049B000080000180001F8003E0801C200070200CC
:1049C00007E20000FE00001FC80001F800003800E8
:1049D000000804000807FFF807FFF80408080408A7
:1049E0000804080804080806180803F41801E7F08A
:1049F0000001E0000000000000003F8001FFE00334
:104A00008070020018040008040008040008040074
:104A1000100600200780C000000004000807FFF80F
:104A200007FFF80400080400080400080400180246
:104A3000001003807001FFE0007F80000000040090
:104A40000807FFF807FFF804080804080804080826
:104A5000040808043E08040008060018010060006D
:104A6000000004000807FFF807FFF804080804081E
:104A700000040800040800043E00060000060000D0
:104A8000018000000000000000003F8001FFE00303
:104A900080700600180400080402080402080203DB
:104AA000F00783F000020000020004000807FFF88E
:104AB00007FFF804080800080000080000080000CC
:104AC000080004080807FFF807FFF80400080000C2
:104AD0000000000004000804000804000807FFF8B4
:104AE00007FFF804000804000804000800000000A4
:104AF00000000000000000060000070000010400A4
:104B00000104000104000307FFFE07FFFC0400008E
:104B100004000004000004000807FFF807FFF80481
:104B20000C08001800003E0004C7800503C80600FA
:104B3000F804003804001800000804000807FFF813
:104B400007FFF80400080000080000080000080043
:104B500000080000080000180000600000000400C9
:104B60000807FFF807800807FC00007FC00003F873
:104B70000007C000780007800807FFF807FFF80467
:104B8000000804000807FFF807000803C00000E061
:104B900000003800001E000007000001C00400F003
:104BA00007FFF8040000000000007F8001FFE00321
:104BB00080700600180400080400080600180300AE
:104BC0003001FFE0007F8000000004000807FFF8CC
:104BD00007FFF804040804040004040004040004AB
:104BE0000400060C0003F80001F0000000000000C3
:104BF00000007F8001FFE0038070060088040088C9
:104C00000400C806003C03003E01FFE6007F84006C
:104C1000000004000807FFF807FFF804080804086C
:104C200000040C00040F00040BC00610F003F03861
:104C300001E00800000800000001E0F803F0300681
:104C40003010041808041808040C08040C080206A4
:104C5000180207F00781E000000001800006000054
:104C600004000004000004000807FFF807FFF80430
:104C70000008040000040000060000018000040099
:104C80000007FFE007FFF00400180000080000081C
:104C900000000800000800000804001007FFE004FE
:104CA000000004000006000007E00007FE00041FEB
:104CB000E00001F80000380001E0043E0007C000F9
:104CC00006000004000004000007E00007FFC00425
:104CD0001FF80007C007F80007FF80043FF800072F
:104CE000C004F800070000040000000000040008F1
:104CF00006001807C07805F1C8003E00001F8004B8
:104D000063E80780F80600180400080000000400AB
:104D10000006000007800007E008047C08001FF878
:104D20000007F800180804E0080700000600000467
:104D300000000000000100080600380400F8040329
:104D4000E8040F08047C0805F00807C008070018ED
:104D500004006000000000000000000000000000EF
:104D600000000000003FFFFE2000022000022000A3
:104D700002200002200002000000000000000000ED
:104D800008000007000000C0000038000006000016
:104D900001C000003000000E000001000000000013
:104DA000000000002000022000022000022000027B
:104DB0002000023FFFFE0000000000000000000095
:104DC00000000000000000000000000800001000CB
:104DD000003000002000003000001000000800003B
:104DE00000000000000000000100000100000100C0
:104DF00000010000010000010000010000010000AE
:104E0000010000010000010000010000000000009E
:104E10000000002000002000001000001000000032
:104E20000000000000000000000000000000000082
:104E3000000000F00019F8001B18002208002608E6
:104E4000002408002410003FF8001FF800000800AC
:104E5000001800000004000007FFF80FFFF0001822
:104E600018001008002008002008003018001FF06B
:104E7000000FC00000000000000007C0001FF0008D
:104E80001830002008002008002008003C08001C02
:104E9000100000600000000000000000000007C0DB
:104EA000001FF00038180020080020080020080427
:104EB000101007FFF80FFFF00000100000000000C6
:104EC000000000000007C0001FF000123000221890
:104ED000002208002208003208001E10000E2000E8
:104EE000000000000000200000200800200801FF52
:104EF000F803FFF806200804200804200807200013
:104F000003000000000000000000000E000E6E0014
:104F10001FF30031B10020B10020B1003191001F1A
:104F200013002E1E00200E003000000000040008B8
:104F300007FFF80FFFF80010080020000020000015
:104F40002008003FF8001FF80000080000000000E3
:104F500000000000002008002008002008063FF89C
:104F6000063FF800000800000800000800000000EC
:104F7000000000000000000000000300000300200B
:104F800001002001002003063FFE063FFC00000058
:104F900000000000000000000004000807FFF80FF8
:104FA000FFF8000188000300002FC00038F800203F
:104FB0003800200800000800000000000000000089
:104FC00004000804000804000807FFF80FFFF800B9
:104FD0000008000008000008000000000000002099
:104FE00008003FF8003FF8001008002000003FF8DC
:104FF000003FF8001008002000003FF8003FF800D4
:105000000008000000002008003FF8003FF80010F2
:1050100008001000002000002008003FF8001FF8E2
:105020000000080000000000000007C0000FF000B2
:105030001830003008002008002008003008001850
:1050400030000FF00007C000000000000000200149
:10505000003FFF003FFF0010110020090020080062
:105060002008003038001FF0000FC00000000000D2
:10507000000007C0001FF0003818002008002008BA
:10508000002009001011001FFF003FFF0000010079
:105090000000002008002008002008003FF8003F22
:1050A000F800080800100800200800200000300068
:1050B000003000000000000000000000000C78003C
:1050C0001E18003308002308002108002188002151
:1050D000980030F000386000000000000000200060
:1050E00000200000200000FFF003FFF8002008006F
:1050F0002008002008000030000000000000000030
:1051000000002000003FF0007FF8000018000008B9
:10511000000008002010003FF8007FF000001000A1
:105120000000000000002000003000003C00003FB4
:10513000800023F0000078000070002380003C0015
:10514000003000002000002000003C00003FE00094
:1051500023F80000E0002700003E00003FE00021AF
:10516000F80001E0003E00002000000000002008E0
:10517000002008003838003E680027800003C8007F
:105180002CF800383800201800200800000000002B
:1051900000002000003003003C01003F830023ECAE
:1051A000000070002380003C000020000020000070
:1051B0000000000000000000003808002038002037
:1051C000F80023E8002F88003E0800380800201867
:1051D000000070000000000000000000000000005F
:1051E00000000000000008000014001FF7FC300061
:1051F0000620000200000000000000000000000087
:10520000000000000000000000000000FFFFFF00A1
:10521000000000000000000000000000000000008E
:10522000000000002000023000061FF7FC00140000
:105230000008000000000000000000000000000066
:105240000000000000180000600000400000400066
:10525000002000001000000800000400000400000E
:105260000C00001000003031323334353637383915
:1052700041424344454640305800303132333435A2
:1052800036373839616263646566403078000400FF
:1052900000080000000000000002000100001000F3
:1052A000C05200080000002010000000C4010008E7
:1052B000D05200081000002038050000E00100086E
:1052C000000000000000000000000000FFFF0000E0
:040000050800018965
:00000001FF
